{"contracts/FirelinkBridge.sol":{"FirelinkBridge":{"abi":[{"inputs":[],"stateMutability":"nonpayable","type":"constructor"},{"anonymous":false,"inputs":[{"indexed":false,"internalType":"address","name":"previousAdmin","type":"address"},{"indexed":false,"internalType":"address","name":"newAdmin","type":"address"}],"name":"AdminChanged","type":"event"},{"anonymous":false,"inputs":[{"indexed":true,"internalType":"address","name":"beacon","type":"address"}],"name":"BeaconUpgraded","type":"event"},{"anonymous":false,"inputs":[{"indexed":true,"internalType":"address","name":"localToken","type":"address"},{"indexed":true,"internalType":"address","name":"remoteToken","type":"address"},{"indexed":true,"internalType":"address","name":"from","type":"address"},{"indexed":false,"internalType":"address","name":"to","type":"address"},{"indexed":false,"internalType":"uint256","name":"amount","type":"uint256"},{"indexed":false,"internalType":"bytes","name":"extraData","type":"bytes"}],"name":"ERC20BridgeFinalized","type":"event"},{"anonymous":false,"inputs":[{"indexed":true,"internalType":"address","name":"localToken","type":"address"},{"indexed":true,"internalType":"address","name":"remoteToken","type":"address"},{"indexed":true,"internalType":"address","name":"from","type":"address"},{"indexed":false,"internalType":"address","name":"to","type":"address"},{"indexed":false,"internalType":"uint256","name":"amount","type":"uint256"},{"indexed":false,"internalType":"bytes","name":"extraData","type":"bytes"}],"name":"ERC20BridgeInitiated","type":"event"},{"anonymous":false,"inputs":[{"indexed":true,"internalType":"address","name":"from","type":"address"},{"indexed":true,"internalType":"address","name":"to","type":"address"},{"indexed":false,"internalType":"uint256","name":"amount","type":"uint256"},{"indexed":false,"internalType":"bytes","name":"extraData","type":"bytes"}],"name":"ETHBridgeFinalized","type":"event"},{"anonymous":false,"inputs":[{"indexed":true,"internalType":"address","name":"from","type":"address"},{"indexed":true,"internalType":"address","name":"to","type":"address"},{"indexed":false,"internalType":"uint256","name":"amount","type":"uint256"},{"indexed":false,"internalType":"bytes","name":"extraData","type":"bytes"}],"name":"ETHBridgeInitiated","type":"event"},{"anonymous":false,"inputs":[{"indexed":false,"internalType":"uint8","name":"version","type":"uint8"}],"name":"Initialized","type":"event"},{"anonymous":false,"inputs":[{"indexed":true,"internalType":"address","name":"previousOwner","type":"address"},{"indexed":true,"internalType":"address","name":"newOwner","type":"address"}],"name":"OwnershipTransferred","type":"event"},{"anonymous":false,"inputs":[{"indexed":true,"internalType":"address","name":"implementation","type":"address"}],"name":"Upgraded","type":"event"},{"inputs":[{"components":[{"internalType":"bytes32[]","name":"merkleProof","type":"bytes32[]"},{"components":[{"internalType":"bytes32","name":"attestationType","type":"bytes32"},{"internalType":"bytes32","name":"sourceId","type":"bytes32"},{"internalType":"uint64","name":"votingRound","type":"uint64"},{"internalType":"uint64","name":"lowestUsedTimestamp","type":"uint64"},{"components":[{"internalType":"bytes32","name":"transactionHash","type":"bytes32"},{"internalType":"uint16","name":"requiredConfirmations","type":"uint16"},{"internalType":"bool","name":"provideInput","type":"bool"},{"internalType":"bool","name":"listEvents","type":"bool"},{"internalType":"uint32[]","name":"logIndices","type":"uint32[]"}],"internalType":"struct EVMTransaction.RequestBody","name":"requestBody","type":"tuple"},{"components":[{"internalType":"uint64","name":"blockNumber","type":"uint64"},{"internalType":"uint64","name":"timestamp","type":"uint64"},{"internalType":"address","name":"sourceAddress","type":"address"},{"internalType":"bool","name":"isDeployment","type":"bool"},{"internalType":"address","name":"receivingAddress","type":"address"},{"internalType":"uint256","name":"value","type":"uint256"},{"internalType":"bytes","name":"input","type":"bytes"},{"internalType":"uint8","name":"status","type":"uint8"},{"components":[{"internalType":"uint32","name":"logIndex","type":"uint32"},{"internalType":"address","name":"emitterAddress","type":"address"},{"internalType":"bytes32[]","name":"topics","type":"bytes32[]"},{"internalType":"bytes","name":"data","type":"bytes"},{"internalType":"bool","name":"removed","type":"bool"}],"internalType":"struct EVMTransaction.Event[]","name":"events","type":"tuple[]"}],"internalType":"struct EVMTransaction.ResponseBody","name":"responseBody","type":"tuple"}],"internalType":"struct EVMTransaction.Response","name":"data","type":"tuple"}],"internalType":"struct EVMTransaction.Proof","name":"_transaction","type":"tuple"}],"name":"FinalizeBridgeAndReleaseEth","outputs":[],"stateMutability":"nonpayable","type":"function"},{"inputs":[],"name":"MESSENGER","outputs":[{"internalType":"contract IFlareRelayer","name":"","type":"address"}],"stateMutability":"view","type":"function"},{"inputs":[],"name":"OTHER_BRIDGE","outputs":[{"internalType":"contract FirelinkBridge","name":"","type":"address"}],"stateMutability":"view","type":"function"},{"inputs":[{"internalType":"address","name":"_localToken","type":"address"},{"internalType":"address","name":"_remoteToken","type":"address"},{"internalType":"uint256","name":"_amount","type":"uint256"},{"internalType":"uint32","name":"_minGasLimit","type":"uint32"},{"internalType":"bytes","name":"_extraData","type":"bytes"}],"name":"bridgeERC20","outputs":[],"stateMutability":"nonpayable","type":"function"},{"inputs":[{"internalType":"address","name":"_localToken","type":"address"},{"internalType":"address","name":"_remoteToken","type":"address"},{"internalType":"address","name":"_to","type":"address"},{"internalType":"uint256","name":"_amount","type":"uint256"},{"internalType":"uint32","name":"_minGasLimit","type":"uint32"},{"internalType":"bytes","name":"_extraData","type":"bytes"}],"name":"bridgeERC20To","outputs":[],"stateMutability":"nonpayable","type":"function"},{"inputs":[{"internalType":"uint32","name":"_minGasLimit","type":"uint32"},{"internalType":"bytes","name":"_extraData","type":"bytes"}],"name":"bridgeETH","outputs":[],"stateMutability":"payable","type":"function"},{"inputs":[{"internalType":"address","name":"_to","type":"address"},{"internalType":"uint32","name":"_minGasLimit","type":"uint32"},{"internalType":"bytes","name":"_extraData","type":"bytes"}],"name":"bridgeETHTo","outputs":[],"stateMutability":"payable","type":"function"},{"inputs":[{"internalType":"address","name":"","type":"address"},{"internalType":"address","name":"","type":"address"}],"name":"deposits","outputs":[{"internalType":"uint256","name":"","type":"uint256"}],"stateMutability":"view","type":"function"},{"inputs":[{"internalType":"address","name":"_localToken","type":"address"},{"internalType":"address","name":"_remoteToken","type":"address"},{"internalType":"address","name":"_from","type":"address"},{"internalType":"address","name":"_to","type":"address"},{"internalType":"uint256","name":"_amount","type":"uint256"},{"internalType":"bytes","name":"_extraData","type":"bytes"}],"name":"finalizeBridgeERC20","outputs":[],"stateMutability":"nonpayable","type":"function"},{"inputs":[{"internalType":"address","name":"_from","type":"address"},{"internalType":"address","name":"_to","type":"address"},{"internalType":"uint256","name":"_amount","type":"uint256"},{"internalType":"bytes","name":"_extraData","type":"bytes"}],"name":"finalizeBridgeETH","outputs":[],"stateMutability":"payable","type":"function"},{"inputs":[],"name":"getAllTransactions","outputs":[{"components":[{"components":[{"internalType":"bytes32[]","name":"merkleProof","type":"bytes32[]"},{"components":[{"internalType":"bytes32","name":"attestationType","type":"bytes32"},{"internalType":"bytes32","name":"sourceId","type":"bytes32"},{"internalType":"uint64","name":"votingRound","type":"uint64"},{"internalType":"uint64","name":"lowestUsedTimestamp","type":"uint64"},{"components":[{"internalType":"bytes32","name":"transactionHash","type":"bytes32"},{"internalType":"uint16","name":"requiredConfirmations","type":"uint16"},{"internalType":"bool","name":"provideInput","type":"bool"},{"internalType":"bool","name":"listEvents","type":"bool"},{"internalType":"uint32[]","name":"logIndices","type":"uint32[]"}],"internalType":"struct EVMTransaction.RequestBody","name":"requestBody","type":"tuple"},{"components":[{"internalType":"uint64","name":"blockNumber","type":"uint64"},{"internalType":"uint64","name":"timestamp","type":"uint64"},{"internalType":"address","name":"sourceAddress","type":"address"},{"internalType":"bool","name":"isDeployment","type":"bool"},{"internalType":"address","name":"receivingAddress","type":"address"},{"internalType":"uint256","name":"value","type":"uint256"},{"internalType":"bytes","name":"input","type":"bytes"},{"internalType":"uint8","name":"status","type":"uint8"},{"components":[{"internalType":"uint32","name":"logIndex","type":"uint32"},{"internalType":"address","name":"emitterAddress","type":"address"},{"internalType":"bytes32[]","name":"topics","type":"bytes32[]"},{"internalType":"bytes","name":"data","type":"bytes"},{"internalType":"bool","name":"removed","type":"bool"}],"internalType":"struct EVMTransaction.Event[]","name":"events","type":"tuple[]"}],"internalType":"struct EVMTransaction.ResponseBody","name":"responseBody","type":"tuple"}],"internalType":"struct EVMTransaction.Response","name":"data","type":"tuple"}],"internalType":"struct EVMTransaction.Proof","name":"originalTransaction","type":"tuple"},{"internalType":"uint256","name":"eventNumber","type":"uint256"},{"components":[{"internalType":"address","name":"sender","type":"address"},{"internalType":"address","name":"receiver","type":"address"},{"internalType":"uint256","name":"value","type":"uint256"},{"internalType":"bytes","name":"data","type":"bytes"}],"internalType":"struct FirelinkBridge.EventInfo[]","name":"eventInfo","type":"tuple[]"}],"internalType":"struct FirelinkBridge.TransactionInfo[]","name":"","type":"tuple[]"}],"stateMutability":"view","type":"function"},{"inputs":[],"name":"getTransactionCount","outputs":[{"internalType":"uint256","name":"","type":"uint256"}],"stateMutability":"view","type":"function"},{"inputs":[{"internalType":"address","name":"initialOwner","type":"address"},{"internalType":"address payable","name":"_messenger","type":"address"},{"internalType":"address payable","name":"_otherBridge","type":"address"}],"name":"initialize","outputs":[],"stateMutability":"nonpayable","type":"function"},{"inputs":[{"components":[{"internalType":"bytes32[]","name":"merkleProof","type":"bytes32[]"},{"components":[{"internalType":"bytes32","name":"attestationType","type":"bytes32"},{"internalType":"bytes32","name":"sourceId","type":"bytes32"},{"internalType":"uint64","name":"votingRound","type":"uint64"},{"internalType":"uint64","name":"lowestUsedTimestamp","type":"uint64"},{"components":[{"internalType":"bytes32","name":"transactionHash","type":"bytes32"},{"internalType":"uint16","name":"requiredConfirmations","type":"uint16"},{"internalType":"bool","name":"provideInput","type":"bool"},{"internalType":"bool","name":"listEvents","type":"bool"},{"internalType":"uint32[]","name":"logIndices","type":"uint32[]"}],"internalType":"struct EVMTransaction.RequestBody","name":"requestBody","type":"tuple"},{"components":[{"internalType":"uint64","name":"blockNumber","type":"uint64"},{"internalType":"uint64","name":"timestamp","type":"uint64"},{"internalType":"address","name":"sourceAddress","type":"address"},{"internalType":"bool","name":"isDeployment","type":"bool"},{"internalType":"address","name":"receivingAddress","type":"address"},{"internalType":"uint256","name":"value","type":"uint256"},{"internalType":"bytes","name":"input","type":"bytes"},{"internalType":"uint8","name":"status","type":"uint8"},{"components":[{"internalType":"uint32","name":"logIndex","type":"uint32"},{"internalType":"address","name":"emitterAddress","type":"address"},{"internalType":"bytes32[]","name":"topics","type":"bytes32[]"},{"internalType":"bytes","name":"data","type":"bytes"},{"internalType":"bool","name":"removed","type":"bool"}],"internalType":"struct EVMTransaction.Event[]","name":"events","type":"tuple[]"}],"internalType":"struct EVMTransaction.ResponseBody","name":"responseBody","type":"tuple"}],"internalType":"struct EVMTransaction.Response","name":"data","type":"tuple"}],"internalType":"struct EVMTransaction.Proof","name":"transaction","type":"tuple"}],"name":"isEVMTransactionProofValid","outputs":[{"internalType":"bool","name":"","type":"bool"}],"stateMutability":"view","type":"function"},{"inputs":[],"name":"owner","outputs":[{"internalType":"address","name":"","type":"address"}],"stateMutability":"view","type":"function"},{"inputs":[],"name":"proxiableUUID","outputs":[{"internalType":"bytes32","name":"","type":"bytes32"}],"stateMutability":"view","type":"function"},{"inputs":[],"name":"renounceOwnership","outputs":[],"stateMutability":"nonpayable","type":"function"},{"inputs":[{"internalType":"address","name":"_ethAddress","type":"address"}],"name":"setEthERC20ContractAddress","outputs":[],"stateMutability":"nonpayable","type":"function"},{"inputs":[{"internalType":"uint256","name":"","type":"uint256"}],"name":"transactions","outputs":[{"components":[{"internalType":"bytes32[]","name":"merkleProof","type":"bytes32[]"},{"components":[{"internalType":"bytes32","name":"attestationType","type":"bytes32"},{"internalType":"bytes32","name":"sourceId","type":"bytes32"},{"internalType":"uint64","name":"votingRound","type":"uint64"},{"internalType":"uint64","name":"lowestUsedTimestamp","type":"uint64"},{"components":[{"internalType":"bytes32","name":"transactionHash","type":"bytes32"},{"internalType":"uint16","name":"requiredConfirmations","type":"uint16"},{"internalType":"bool","name":"provideInput","type":"bool"},{"internalType":"bool","name":"listEvents","type":"bool"},{"internalType":"uint32[]","name":"logIndices","type":"uint32[]"}],"internalType":"struct EVMTransaction.RequestBody","name":"requestBody","type":"tuple"},{"components":[{"internalType":"uint64","name":"blockNumber","type":"uint64"},{"internalType":"uint64","name":"timestamp","type":"uint64"},{"internalType":"address","name":"sourceAddress","type":"address"},{"internalType":"bool","name":"isDeployment","type":"bool"},{"internalType":"address","name":"receivingAddress","type":"address"},{"internalType":"uint256","name":"value","type":"uint256"},{"internalType":"bytes","name":"input","type":"bytes"},{"internalType":"uint8","name":"status","type":"uint8"},{"components":[{"internalType":"uint32","name":"logIndex","type":"uint32"},{"internalType":"address","name":"emitterAddress","type":"address"},{"internalType":"bytes32[]","name":"topics","type":"bytes32[]"},{"internalType":"bytes","name":"data","type":"bytes"},{"internalType":"bool","name":"removed","type":"bool"}],"internalType":"struct EVMTransaction.Event[]","name":"events","type":"tuple[]"}],"internalType":"struct EVMTransaction.ResponseBody","name":"responseBody","type":"tuple"}],"internalType":"struct EVMTransaction.Response","name":"data","type":"tuple"}],"internalType":"struct EVMTransaction.Proof","name":"originalTransaction","type":"tuple"},{"internalType":"uint256","name":"eventNumber","type":"uint256"}],"stateMutability":"view","type":"function"},{"inputs":[{"internalType":"address","name":"newOwner","type":"address"}],"name":"transferOwnership","outputs":[],"stateMutability":"nonpayable","type":"function"},{"inputs":[{"internalType":"address","name":"newImplementation","type":"address"}],"name":"upgradeTo","outputs":[],"stateMutability":"nonpayable","type":"function"},{"inputs":[{"internalType":"address","name":"newImplementation","type":"address"},{"internalType":"bytes","name":"data","type":"bytes"}],"name":"upgradeToAndCall","outputs":[],"stateMutability":"payable","type":"function"},{"stateMutability":"payable","type":"receive"}],"devdoc":{"kind":"dev","methods":{"constructor":{"custom:oz-upgrades-unsafe-allow":"constructor"},"owner()":{"details":"Returns the address of the current owner."},"proxiableUUID()":{"details":"Implementation of the ERC1822 {proxiableUUID} function. This returns the storage slot used by the implementation. It is used to validate the implementation's compatibility when performing an upgrade. IMPORTANT: A proxy pointing at a proxiable contract should not be considered proxiable itself, because this risks bricking a proxy that upgrades to it, by delegating to itself until out of gas. Thus it is critical that this function revert if invoked through a proxy. This is guaranteed by the `notDelegated` modifier."},"renounceOwnership()":{"details":"Leaves the contract without owner. It will not be possible to call `onlyOwner` functions. Can only be called by the current owner. NOTE: Renouncing ownership will leave the contract without an owner, thereby disabling any functionality that is only available to the owner."},"transferOwnership(address)":{"details":"Transfers ownership of the contract to a new account (`newOwner`). Can only be called by the current owner."},"upgradeTo(address)":{"custom:oz-upgrades-unsafe-allow-reachable":"delegatecall","details":"Upgrade the implementation of the proxy to `newImplementation`. Calls {_authorizeUpgrade}. Emits an {Upgraded} event."},"upgradeToAndCall(address,bytes)":{"custom:oz-upgrades-unsafe-allow-reachable":"delegatecall","details":"Upgrade the implementation of the proxy to `newImplementation`, and subsequently execute the function call encoded in `data`. Calls {_authorizeUpgrade}. Emits an {Upgraded} event."}},"version":1},"evm":{"bytecode":{"linkReferences":{},"object":"60a08060405234620000e157306080526000549060ff8260081c166200008f575060ff8082160362000053575b604051613df99081620000e78239608051818181610b3b01528181610e4f0152610f650152f35b60ff90811916176000557f7f26b83ff96e1f2b6a682f133852f6798a09c465da95921460cefb3847402498602060405160ff8152a1386200002c565b62461bcd60e51b815260206004820152602760248201527f496e697469616c697a61626c653a20636f6e747261637420697320696e697469604482015266616c697a696e6760c81b6064820152608490fd5b600080fdfe6080604052600436101561001b575b361561001957600080fd5b005b60003560e01c80630166a07a146101d357806309f5dc91146101ca57806309fc8843146101c15780631635f5fd146101b857806327506f53146101af5780632e7700f0146101a65780633659cfe61461019d5780634f1ef2861461019457806352d1902d1461018b578063540abf7314610182578063715018a6146101795780637eccb307146101705780637f46ddb214610167578063870876231461015e5780638da5cb5b146101555780638f601f661461014c578063927ede2d146101435780639ace38c21461013a578063c0c53b8b14610131578063e11013dd14610128578063ecc6da0c1461011f5763f2fde38b0361000e5761011a611e4d565b61000e565b5061011a611e05565b5061011a611d84565b5061011a611c7d565b5061011a611be5565b5061011a6115cc565b5061011a611568565b5061011a61153e565b5061011a6113ed565b5061011a6113c3565b5061011a6111d9565b5061011a61117a565b5061011a611017565b5061011a610f51565b5061011a610e0d565b5061011a610b13565b5061011a610af4565b5061011a610997565b5061011a6104a9565b5061011a61042b565b5061011a6103fa565b5061011a61022c565b6001600160a01b038116036101ed57565b600080fd5b35906101fd826101dc565b565b9181601f840112156101ed578235916001600160401b0383116101ed57602083818601950101116101ed57565b50346101ed5760c03660031901126101ed5760043561024a816101dc565b60243590610257826101dc565b604435610263816101dc565b60643561026f816101dc565b6084359160a4356001600160401b0381116101ed576102929036906004016101ff565b959061029d86612885565b15610343576102b46102af83886129f0565b612671565b6001600160a01b03861690813b156101ed576040516340c10f1960e01b81526001600160a01b03861660048201526024810187905261001998610317939091906000908290604490829084905af18015610336575b61031d575b505b3691610dbb565b94612b84565b8061032a61033092610c78565b806105d6565b3861030e565b61033e612064565b610309565b610317906100199761038c876103868661036f8c60018060a01b031660005260ce602052604060002090565b9060018060a01b0316600052602052604060002090565b5461265c565b6001600160a01b038916600090815260ce602052604090206103af90869061036f565b556103c487876001600160a01b038b166126f6565b610310565b600319906020818301126101ed57600435916001600160401b0383116101ed57826040920301126101ed5760040190565b50346101ed57602061041361040e366103c9565b612ec5565b6040519015158152f35b63ffffffff8116036101ed57565b5060403660031901126101ed5761044360043561041d565b6024356001600160401b0381116101ed576104656104709136906004016101ff565b610310333b156124c6565b604051907f2849b43074093a05396b6f2a937dee8565b15a48a7b3d4bffb732a5017380af53392806104a433943483612ab5565b0390a3005b5060803660031901126101ed576004356104c2816101dc565b6024356104ce816101dc565b604435906064356001600160401b0381116101ed576104f19036906004016101ff565b929081340361056b5761001994610566946105579284918691610551916103106001600160a01b03851661052730821415612538565b60c95461054a9061053e906001600160a01b031681565b6001600160a01b031690565b1415612590565b92612acc565b5a610560612042565b92612bcb565b6125ed565b60405162461bcd60e51b815260206004820152603a60248201527f466972656c696e6b4272696467653a20616d6f756e742073656e7420646f657360448201527f206e6f74206d6174636820616d6f756e742072657175697265640000000000006064820152608490fd5b60009103126101ed57565b90815180825260208080930193019160005b828110610601575050505090565b8351855293810193928101926001016105f3565b919082519283825260005b848110610641575050826000602080949584010152601f8019910116010190565b602081830181015184830182015201610620565b908082519081815260208091019281808460051b8301019501936000915b8483106106835750505050505090565b9091929394958480600192601f1985820301865289519063ffffffff8251168152848060a01b038383015116838201526106e26106cf6040808501519060a080918601528401906105e1565b6060808501519084830390850152610615565b9160808091015115159101529801930193019194939290610673565b80516001600160401b0316825261079991906020818101516001600160401b0316908301526040818101516001600160a01b0316908301526060818101511515908301526080818101516001600160a01b03169083015260a081015160a083015261077860c08201516101208060c0860152840190610615565b60e08281015160ff1690840152916101008092015191818403910152610655565b90565b9190916107b281516040855260408501906105e1565b60208092015193828183039101528351815281840151828201526001600160401b03806040860151166040830152606085015116606082015260808401519160c060808301526080610160830193805160c085015261ffff838201511660e0850152604081015115156101008501526060810151151561012085015201519260a0610140840152835180915281610180840194019160005b82811061086c575050505060a0610799939401519060a08184039101526106fe565b835163ffffffff168652948101949281019260010161084a565b6020808201908083528351809252604092838101600594838186881b850101970195600080945b8786106108c05750505050505050505090565b909192939495969798603f19828203018652878a51805190876108eb6060938487528487019061079c565b918481015185870152015193888183039101528351808252838201918480838b1b83010196019388905b8b84831061093b5750505050505050806001929b019601960194979695939291906108ad565b9661098660019395979983839496989a601f198a8403018c528c5190878060a01b03808351168552868301511686850152808201519084015201519060809081888201520190610615565b9801960192018d9594929391610915565b50346101ed57600080600319360112610af15760cb54906109b782611782565b906040906109c782519384610d56565b838352601f196109d685611782565b01815b818110610a315750505b8381106109fb578151806109f78582610886565b0390f35b80610a11610a0b610a2c9361160d565b50613cf1565b610a1b8286613ccf565b52610a268185613ccf565b50613a9a565b6109e3565b6020908451610a3f81610c98565b8551610a4a81610cb3565b6060808252875191610a5b83610cce565b87835285928884820152888a82015288838201528951610a7a81610ce9565b8981528985820152898b8201528984820152608090848282015281830152898b5191610aa583610d04565b8183528187840152818d840152818684015282015260a08a818301528460c08301528a60e0830152846101008301528201528382015283528682840152878301528288010152016109d9565b80fd5b50346101ed5760003660031901126101ed57602060cb54604051908152f35b50346101ed5760203660031901126101ed57600435610b31816101dc565b6001600160a01b037f000000000000000000000000000000000000000000000000000000000000000081169190610b6a30841415611f80565b610b87600080516020613da4833981519152938285541614611fe1565b610b8f611edf565b60405190610b9c82610d3b565b600082527f4910fdfa16fed3260ed0e7147f7cc6da11a60208b5b9406d12a635614ffd91435460ff1615610bd6575050610019915061211e565b6020600491604094939451928380926352d1902d60e01b825286165afa60009181610c31575b50610c1e5760405162461bcd60e51b815280610c1a600482016120cf565b0390fd5b61001993610c2c9114612071565b6121ae565b610c5391925060203d8111610c5a575b610c4b8183610d56565b810190612055565b9038610bfc565b503d610c41565b50634e487b7160e01b600052604160045260246000fd5b6001600160401b038111610c8b57604052565b610c93610c61565b604052565b606081019081106001600160401b03821117610c8b57604052565b604081019081106001600160401b03821117610c8b57604052565b60c081019081106001600160401b03821117610c8b57604052565b60a081019081106001600160401b03821117610c8b57604052565b61012081019081106001600160401b03821117610c8b57604052565b608081019081106001600160401b03821117610c8b57604052565b602081019081106001600160401b03821117610c8b57604052565b90601f801991011681019081106001600160401b03821117610c8b57604052565b604051906101fd82610d20565b604051906101fd82610d04565b6020906001600160401b038111610dae575b601f01601f19160190565b610db6610c61565b610da3565b929192610dc782610d91565b91610dd56040519384610d56565b8294818452818301116101ed578281602093846000960137010152565b9080601f830112156101ed5781602061079993359101610dbb565b5060403660031901126101ed57600435610e26816101dc565b6024356001600160401b0381116101ed57610e45903690600401610df2565b6001600160a01b037f00000000000000000000000000000000000000000000000000000000000000008116929190610e7f30851415611f80565b610e9c600080516020613da4833981519152948286541614611fe1565b610ea4611edf565b7f4910fdfa16fed3260ed0e7147f7cc6da11a60208b5b9406d12a635614ffd91435460ff1615610eda575050610019915061211e565b6020600491604094939451928380926352d1902d60e01b825286165afa60009181610f31575b50610f1e5760405162461bcd60e51b815280610c1a600482016120cf565b61001993610f2c9114612071565b61226a565b610f4a91925060203d8111610c5a57610c4b8183610d56565b9038610f00565b50346101ed5760003660031901126101ed577f00000000000000000000000000000000000000000000000000000000000000006001600160a01b03163003610fac57604051600080516020613da48339815191528152602090f35b60405162461bcd60e51b815260206004820152603860248201527f555550535570677261646561626c653a206d757374206e6f742062652063616c60448201527f6c6564207468726f7567682064656c656761746563616c6c00000000000000006064820152608490fd5b50346101ed5760c03660031901126101ed57600435611035816101dc565b60243590611042826101dc565b60443561104e816101dc565b6064359061105d60843561041d565b60a4356001600160401b0381116101ed5761031061107f9136906004016101ff565b9261108981612885565b1561110e5761109b6102af86836129f0565b6001600160a01b03811694853b156101ed57604051632770a7eb60e21b815233600482015260248101859052610019966000908290604490829084905af18015611101575b6110ee575b505b3391612b38565b8061032a6110fb92610c78565b386110e5565b611109612064565b6110e0565b610019946111278430336001600160a01b038616612843565b6111518461114b8361036f8660018060a01b031660005260ce602052604060002090565b54612836565b6001600160a01b038316600090815260ce6020526040902061117490839061036f565b556110e7565b50346101ed57600080600319360112610af157611195611edf565b603380546001600160a01b0319811690915581906001600160a01b03167f8be0079c531659141344cd1fd0a4f28419497f9722a3daafe3b4186f6b6457e08280a380f35b50346101ed576111e8366103c9565b6111f96111f482612ec5565b61309e565b60cb54906112056130ea565b505061121a816112148461160d565b50613903565b60208082019261122a8484613218565b600f61126461123e60a093848101906133ec565b9361124f610100958681019061315d565b9050600e61125c8361160d565b50015561160d565b50019460005b61128c61128361127a8489613218565b858101906133ec565b8581019061315d565b905081101561132057806113166113086112cb61131b946112c56112bc6112b3898e613218565b8a8101906133ec565b8a81019061315d565b90613ab6565b6112e56112dd6060928381019061340c565b810190613adc565b93926112f395919295610d77565b6001600160a01b03918216815295168c860152565b604084015282015289613b72565b613a9a565b61126a565b60fe548790611337906001600160a01b031661053e565b90600261136061135a600161134b85613b25565b5001546001600160a01b031690565b92613b25565b500154823b156101ed576040516340c10f1960e01b81526001600160a01b039290921660048301526024820152906000908290604490829084905af180156113b6575b6113a957005b8061032a61001992610c78565b6113be612064565b6113a3565b50346101ed5760003660031901126101ed5760ca546040516001600160a01b039091168152602090f35b50346101ed5760a03660031901126101ed5760043561140b816101dc565b602435611417816101dc565b60443561142560643561041d565b6084356001600160401b0381116101ed576104656114479136906004016101ff565b9161145184612885565b156114d8576114636102af82866129f0565b6001600160a01b03841693843b156101ed57604051632770a7eb60e21b815233600482015260248101849052610019956000908290604490829084905af180156114cb575b6114b8575b505b33913391612b38565b8061032a6114c592610c78565b386114ad565b6114d3612064565b6114a8565b610019936114f18330336001600160a01b038516612843565b6115158361114b8461036f8560018060a01b031660005260ce602052604060002090565b6001600160a01b038216600090815260ce6020526040902061153890849061036f565b556114af565b50346101ed5760003660031901126101ed576033546040516001600160a01b039091168152602090f35b50346101ed5760403660031901126101ed5760206115c360043561158b816101dc565b60243590611598826101dc565b60018060a01b031660005260ce835260406000209060018060a01b0316600052602052604060002090565b54604051908152f35b50346101ed5760003660031901126101ed5760c9546040516001600160a01b039091168152602090f35b50634e487b7160e01b600052603260045260246000fd5b60cb54811015611648575b60cb60005260041b7fa7ce836d032b2bf62b7e2097a8e0a6d8aeb35405ad15271e96d3b0188a1d06fb0190600090565b6116506115f6565b611618565b9060405191828154918282526020928383019160005283600020936000905b82821061168a575050506101fd92500383610d56565b855484526001958601958895509381019390910190611674565b90600182811c921680156116d4575b60208310146116be57565b634e487b7160e01b600052602260045260246000fd5b91607f16916116b3565b90604051918260008254926116f2846116a4565b90818452600194858116908160001461175f575060011461171c575b50506101fd92500383610d56565b9093915060005260209081600020936000915b8183106117475750506101fd9350820101388061170e565b8554888401850152948501948794509183019161172f565b9150506101fd94506020925060ff191682840152151560051b820101388061170e565b6020906001600160401b03811161179b575b60051b0190565b6117a3610c61565b611794565b9081546117b481611782565b926040936117c485519182610d56565b828152809460208092019260005281600020906000935b8585106117ea57505050505050565b60048460019284516117fb81610ce9565b865463ffffffff81168252858060a01b0390841c168382015261181f858801611655565b8682015261182f600288016116de565b606082015260ff600388015416151560808201528152019301940193916117db565b906118eb600661185f610d84565b84546001600160401b03808216835260409190911c1660208201529360018101546001600160a01b038116604087015260a01c60ff161515606086015260028101546001600160a01b03166080860152600381015460a08601526118c5600482016116de565b60c08601526118e56118db600583015460ff1690565b60ff1660e0870152565b016117a8565b610100830152565b9060409182519261190384610cb3565b8361190d83611655565b815281519261191b84610cce565b600192838201548552600282015493602094858701528460038401546001600160401b03808216858a0152606091851c168189015283519361195c85610ce9565b6004860154855260ff600587015461ffff811685880152818160101c1615158388015260181c16151582860152600686019181519081956119b26119a68654809560209181520190565b95600052602060002090565b916000925b846007850110611b275793879389979360079b99611a249894611a349e9c985495858510611b11575b858510611af9575b858510611adf575b50848410611aba575b50838310611a95575b838310611a70575b838310611a4b575b505010611a3d575b5090500382610d56565b6080820152608087015201611851565b60a08401520152565b60e01c815201899038611a1a565b909194611a668163ffffffff8760c01c1663ffffffff169052565b0193013885611a12565b85611a8b83949763ffffffff8860a01c1663ffffffff169052565b0194019085611a0a565b85611ab083949763ffffffff8860801c1663ffffffff169052565b0194019085611a02565b95611ad48163ffffffff8886979a1c1663ffffffff169052565b0194019085386119f9565b86901c63ffffffff168752929582908201960192386119f0565b63ffffffff87841c16885296820196938301936119e8565b63ffffffff8716885296820196938301936119e0565b96916101008194959697611bd460089495611bc98c5491611b6963ffffffff91611b588784871663ffffffff169052565b63ffffffff85821c84161690870152565b63ffffffff838e1c821616858e015263ffffffff838a1c821616858a0152611b9e60808285828901921c1663ffffffff169052565b611bb560a08285828901921c1663ffffffff169052565b60c09083828701921c1663ffffffff169052565b60e090811c90830152565b019701930191908b969594936119b7565b50346101ed5760203660031901126101ed5760043560cb548110156101ed57611c739060cb60005260041b7fa7ce836d032b2bf62b7e2097a8e0a6d8aeb35405ad15271e96d3b0188a1d0709611c5c827fa7ce836d032b2bf62b7e2097a8e0a6d8aeb35405ad15271e96d3b0188a1d06fb016118f3565b91015460405192839260408452604084019061079c565b9060208301520390f35b50346101ed5760603660031901126101ed57600435611c9b816101dc565b611cf8602435611caa816101dc565b60443590611cb7826101dc565b60005493611cdc60ff8660081c161580968197611d76575b8115611d56575b50612386565b84611cef600160ff196000541617600055565b611d3d576123e9565b611cfe57005b611d0e61ff001960005416600055565b604051600181527f7f26b83ff96e1f2b6a682f133852f6798a09c465da95921460cefb384740249890602090a1005b611d5161010061ff00196000541617600055565b6123e9565b303b15915081611d68575b5038611cd6565b6001915060ff161438611d61565b600160ff8216109150611ccf565b5060603660031901126101ed57600435611d9d816101dc565b611da860243561041d565b6044356001600160401b0381116101ed57610310611dca9136906004016101ff565b7f2849b43074093a05396b6f2a937dee8565b15a48a7b3d4bffb732a5017380af56040519260018060a01b031692806104a433943483612ab5565b50346101ed5760203660031901126101ed57600435611e23816101dc565b611e2b611edf565b60fe80546001600160a01b0319166001600160a01b0392909216919091179055005b50346101ed5760203660031901126101ed57600435611e6b816101dc565b611e73611edf565b6001600160a01b03811615611e8b5761001990611f37565b60405162461bcd60e51b815260206004820152602660248201527f4f776e61626c653a206e6577206f776e657220697320746865207a65726f206160448201526564647265737360d01b6064820152608490fd5b6033546001600160a01b03163303611ef357565b606460405162461bcd60e51b815260206004820152602060248201527f4f776e61626c653a2063616c6c6572206973206e6f7420746865206f776e65726044820152fd5b603380546001600160a01b039283166001600160a01b0319821681179092559091167f8be0079c531659141344cd1fd0a4f28419497f9722a3daafe3b4186f6b6457e0600080a3565b15611f8757565b60405162461bcd60e51b815260206004820152602c60248201527f46756e6374696f6e206d7573742062652063616c6c6564207468726f7567682060448201526b19195b1959d85d1958d85b1b60a21b6064820152608490fd5b15611fe857565b60405162461bcd60e51b815260206004820152602c60248201527f46756e6374696f6e206d7573742062652063616c6c6564207468726f7567682060448201526b6163746976652070726f787960a01b6064820152608490fd5b6040519061204f82610d3b565b60008252565b908160209103126101ed575190565b506040513d6000823e3d90fd5b1561207857565b60405162461bcd60e51b815260206004820152602960248201527f45524331393637557067726164653a20756e737570706f727465642070726f786044820152681a58589b195555525160ba1b6064820152608490fd5b60809060208152602e60208201527f45524331393637557067726164653a206e657720696d706c656d656e7461746960408201526d6f6e206973206e6f74205555505360901b60608201520190565b803b1561215357600080516020613da483398151915280546001600160a01b0319166001600160a01b03909216919091179055565b60405162461bcd60e51b815260206004820152602d60248201527f455243313936373a206e657720696d706c656d656e746174696f6e206973206e60448201526c1bdd08184818dbdb9d1c9858dd609a1b6064820152608490fd5b906121b88261211e565b6001600160a01b0382167fbc7cd75a20ee27fd9adebab32041f755214dbc6bffa90cc0225b39da2e5c2d3b600080a2805115801590612262575b6121fa575050565b61225f916000806040519361220e85610c98565b602785527f416464726573733a206c6f772d6c6576656c2064656c65676174652063616c6c6020860152660819985a5b195960ca1b6040860152602081519101845af46122596122bd565b916122ed565b50565b5060006121f2565b906122748261211e565b6001600160a01b0382167fbc7cd75a20ee27fd9adebab32041f755214dbc6bffa90cc0225b39da2e5c2d3b600080a28051158015906122b5576121fa575050565b5060016121f2565b3d156122e8573d906122ce82610d91565b916122dc6040519384610d56565b82523d6000602084013e565b606090565b9192901561234f5750815115612301575090565b3b1561230a5790565b60405162461bcd60e51b815260206004820152601d60248201527f416464726573733a2063616c6c20746f206e6f6e2d636f6e74726163740000006044820152606490fd5b8251909150156123625750805190602001fd5b60405162461bcd60e51b815260206004820152908190610c1a906024830190610615565b1561238d57565b60405162461bcd60e51b815260206004820152602e60248201527f496e697469616c697a61626c653a20636f6e747261637420697320616c72656160448201526d191e481a5b9a5d1a585b1a5e995960921b6064820152608490fd5b919061240560ff60005460081c1661240081612466565b612466565b61240e33611f37565b61241f60ff60005460081c16612466565b60018060a01b038092816bffffffffffffffffffffffff60a01b93168360c954161760c955169060ca54161760ca55612456611edf565b811615611e8b576101fd90611f37565b1561246d57565b60405162461bcd60e51b815260206004820152602b60248201527f496e697469616c697a61626c653a20636f6e7472616374206973206e6f74206960448201526a6e697469616c697a696e6760a81b6064820152608490fd5b156124cd57565b60405162461bcd60e51b815260206004820152603760248201527f466972656c696e6b4272696467653a2066756e6374696f6e2063616e206f6e6c60448201527f792062652063616c6c65642066726f6d20616e20454f410000000000000000006064820152608490fd5b1561253f57565b60405162461bcd60e51b815260206004820152602360248201527f466972656c696e6b4272696467653a2063616e6e6f742073656e6420746f207360448201526232b63360e91b6064820152608490fd5b1561259757565b60405162461bcd60e51b815260206004820152602860248201527f466972656c696e6b4272696467653a2063616e6e6f742073656e6420746f206d60448201526732b9b9b2b733b2b960c11b6064820152608490fd5b156125f457565b60405162461bcd60e51b815260206004820152602360248201527f466972656c696e6b4272696467653a20455448207472616e73666572206661696044820152621b195960ea1b6064820152608490fd5b50634e487b7160e01b600052601160045260246000fd5b9190820391821161266957565b6101fd612645565b1561267857565b60405162461bcd60e51b815260206004820152604a60248201527f466972656c696e6b4272696467653a2077726f6e672072656d6f746520746f6b60448201527f656e20666f7220466972656c696e6b204d696e7461626c65204552433230206c60648201526937b1b0b6103a37b5b2b760b11b608482015260a490fd5b60405163a9059cbb60e01b60208201526001600160a01b039290921660248301526044808301939093529181526101fd91612732606483610d56565b612756565b801515036101ed57565b908160209103126101ed575161079981612737565b6040516127ae916001600160a01b031661276f82610cb3565b6000806020958685527f5361666545524332303a206c6f772d6c6576656c2063616c6c206661696c656487860152868151910182855af16122596122bd565b80519082821592831561281e575b505050156127c75750565b6084906040519062461bcd60e51b82526004820152602a60248201527f5361666545524332303a204552433230206f7065726174696f6e20646964206e6044820152691bdd081cdd58d8d9595960b21b6064820152fd5b61282e9350820181019101612741565b3882816127bc565b9190820180921161266957565b6040516323b872dd60e01b60208201526001600160a01b0392831660248201529290911660448301526064808301939093529181526101fd9161273282610ce9565b61288e81612925565b908115612899575090565b90506128a481612982565b9081612913575b816128b4575090565b60209150600090604051838101906301ffc9a760e01b825263ec4fc8e360e01b6024820152602481526128e681610c98565b5191617530fa6000513d82612907575b5081612900575090565b9050151590565b602011159150386128f6565b905061291e816129ab565b15906128ab565b61292e81612982565b9081612970575b8161293e575090565b60209150600090604051838101906301ffc9a760e01b8252631d1d8b6360e01b6024820152602481526128e681610c98565b905061297b816129ab565b1590612935565b6000602091604051838101906301ffc9a760e01b8083526024820152602481526128e681610c98565b6000602091604051838101906301ffc9a760e01b825263ffffffff60e01b6024820152602481526128e681610c98565b908160209103126101ed5751610799816101dc565b6129f981612925565b15612a785760405163600f0deb60e11b81526001600160a01b03918291906020908290600490829086165afa908115612a6b575b600091612a3d575b501691161490565b612a5e915060203d8111612a64575b612a568183610d56565b8101906129db565b38612a35565b503d612a4c565b612a73612064565b612a2d565b6040516335b02cb160e21b81526001600160a01b03918291906020908290600490829086165afa908115612a6b57600091612a3d57501691161490565b604090610799939281528160208201520190610615565b6040516001600160a01b039283169492909116927f31b2166ff604fc5672ea5df08a78081d2bc6d746cadce880747f3643d819e83d928291612b0f919083612ab5565b0390a3565b610799939260609260018060a01b0316825260208201528160408201520190610615565b6040516001600160a01b03938416969284169591909316937f7ff126db8024424bbfd9826e8ab82ff59136289ea440b04b39a0df1b03b9cabf93928392612b7f9284612b14565b0390a4565b6040516001600160a01b03938416969284169591909316937fd59c65b35445225835c83f50b6ede06a7be047d22e357073e250d9af537518cd93928392612b7f9284612b14565b906000939192849360208451940192f190565b9035601e19823603018112156101ed5701602081359101916001600160401b0382116101ed578160051b360383136101ed57565b81835290916001600160fb1b0383116101ed5760209260051b809284830137010190565b6001600160401b038116036101ed57565b35906101fd82612c36565b9035609e19823603018112156101ed570190565b61ffff8116036101ed57565b35906101fd82612737565b903561011e19823603018112156101ed570190565b9035601e19823603018112156101ed5701602081359101916001600160401b0382116101ed5781360383136101ed57565b908060209392818452848401376000828201840152601f01601f1916010190565b60ff8116036101ed57565b35906101fd82612ce4565b90808352602080930192838260051b810194846000925b858410612d22575050505050505090565b9091929394959685808284600194038752612d3d8b87612c52565b9063ffffffff8235612d4e8161041d565b16815282820135612d5e816101dc565b858060a01b031683820152612da9612d8e6040612d7d81860186612bde565b909160a08091870152850191612c12565b6060612d9c81860186612c92565b9185840390860152612cc3565b91608080910135612db981612737565b1515910152990194019401929594939190612d11565b61079991612ded81612de084612c47565b6001600160401b03169052565b612e0c612dfc60208401612c47565b6001600160401b03166020830152565b612e2b612e1b604084016101f2565b6001600160a01b03166040830152565b612e43612e3a60608401612c72565b15156060830152565b612e62612e52608084016101f2565b6001600160a01b03166080830152565b60a082013560a0820152612e8d612e7c60c0840184612c92565b6101208060c0860152840191612cc3565b91612ea7612e9d60e08301612cef565b60ff1660e0840152565b612eb76101009182810190612bde565b929091818503910152612cfa565b6040516358fbe9e160e01b815260206004820181905291612efa612ee98280612bde565b604060248601526064850191612c12565b908381013560be19823603018112156101ed578383036023190160448501520180358252808401358285015290839083906040840135612f3981612c36565b6001600160401b0380911660408301526060850135612f5781612c36565b166060820152612f6a6080850185612c52565b9360c06080830152612fce610160830195803560c085015261ffff86820135612f9281612c66565b1660e08501526040810135612fa681612737565b15156101008501526060810135612fbc81612737565b15156101208501526080810190612bde565b60a06101408501529586905261018083019560005b8181106130705750505093613010916130028660a08697980190612c7d565b9060a0818403910152612dcf565b038173f37ad1278917c04fb291c75a42e61710964cb57c5afa918215613063575b60009261303d57505090565b6107999250803d1061305c575b6130548183610d56565b810190612741565b503d61304a565b61306b612064565b613031565b929450929480829763ffffffff6001943561308a8161041d565b168152019601910190879492879492612fe3565b156130a557565b60405162461bcd60e51b815260206004820152601960248201527f496e76616c6964207472616e73616374696f6e2070726f6f66000000000000006044820152606490fd5b60cb54600160401b811015613139575b600181018060cb558110156116485760cb60005260041b7fa7ce836d032b2bf62b7e2097a8e0a6d8aeb35405ad15271e96d3b0188a1d06fb0190600090565b613141610c61565b6130fa565b50634e487b7160e01b600052600060045260246000fd5b903590601e19813603018212156101ed57018035906001600160401b0382116101ed57602001918160051b360383136101ed57565b805490600090818155826131a557505050565b815260208120918201915b8281106131bc57505050565b8181556001016131b0565b600160401b821161320b575b8054918082558281106131e557505050565b60009182526020822092830192015b82811061320057505050565b8181556001016131f4565b613213610c61565b6131d3565b90359060be19813603018212156101ed570190565b3561079981612c36565b903590609e19813603018212156101ed570190565b3561079981612737565b818110613261575050565b60008155600101613256565b90600160401b81116132d6575b815481835580821061328b57505050565b6101fd926000526007602060002091601c82850160031c84019460021b16806132bb575b500160031c0190613256565b600019908186019182549160200360031b1c169055386132af565b6132de610c61565b61327a565b356107998161041d565b9190613318906001600160401b0383116133df575b61330c838561326d565b92600052602060002090565b8160031c9160005b83811061338f5750600719811690038061333b575b50505050565b92600093845b81811061335657505050015538808080613335565b909194602061338560019261336a896132e3565b908560021b60031b63ffffffff811b9283911b169119161790565b9601929101613341565b6000805b600881106133a8575083820155600101613320565b959060206133d66001926133bb856132e3565b908a60021b60031b63ffffffff811b9283911b169119161790565b92019601613393565b6133e7610c61565b613302565b90359061011e19813603018212156101ed570190565b35610799816101dc565b903590601e19813603018212156101ed57018035906001600160401b0382116101ed576020019181360383136101ed57565b9190601f811161344d57505050565b6101fd926000526020600020906020601f840160051c83019310613479575b601f0160051c0190613256565b909150819061346c565b9092916001600160401b03811161354b575b6134a9816134a384546116a4565b8461343e565b6000601f82116001146134e357819293946000926134d8575b50508160011b916000199060031b1c1916179055565b0135905038806134c2565b601f198216946134f884600052602060002090565b91805b878110613533575083600195969710613519575b505050811b019055565b0135600019600384901b60f8161c1916905538808061350f565b909260206001819286860135815501940191016134fb565b613553610c61565b613495565b3561079981612ce4565b9063ffffffff81356135738161041d565b1682548163ffffffff19821617845560209182840135613592816101dc565b6001600160c01b03199092161790821b640100000000600160c01b03161783556001908382016135c5604085018561315d565b92906001600160401b038411613649575b6135e084846131c7565b91600052806000209060005b8481106136385750505050505090600361362560808461361f61361560606101fd98018361340c565b9060028801613483565b0161324c565b91019060ff801983541691151516179055565b8335838201559281019285016135ec565b613651610c61565b6135d6565b600160401b83116137a3575b80548382558084106136ba575b50906136818192600052602060002090565b906000925b848410613694575050505050565b60046020826136ae6136a860019587613237565b87613562565b01930193019291613686565b6001600160fe1b038181168203613796575b84168403613789575b60008281526020812091600290811b83019286821b015b8381106136fb5750505061366f565b80836004925583600161370f818401613192565b8483019061371d82546116a4565b9081613732575b5050506003820155016136ec565b601f80831160011461374c57505050555b83388080613724565b613784945090613774929161376685600052602060002090565b920160051c82019101613256565b6000908082528160208120915555565b613743565b613791612645565b6136d5565b61379e612645565b6136cc565b6137ab610c61565b613662565b6006906138fa6101fd936137e36137c68261322d565b845467ffffffffffffffff19166001600160401b03909116178455565b61381f6137f26020830161322d565b84546fffffffffffffffff0000000000000000191660409190911b67ffffffffffffffff60401b16178455565b6138776001840161385161383560408501613402565b82546001600160a01b0319166001600160a01b03909116178255565b61385d6060840161324c565b815460ff60a01b191690151560a01b60ff60a01b16179055565b6138a961388660808301613402565b6002850180546001600160a01b0319166001600160a01b03909216919091179055565b60a081013560038401556138cd6138c360c083018361340c565b9060048601613483565b6138ef6138dc60e08301613558565b600585019060ff1660ff19825416179055565b61010081019061315d565b92909101613656565b9061390e818061315d565b91906001600160401b038311613a8d575b61392983856131c7565b91836000526020928360002060005b838110613a7b5750505050613a7482613a6a613a60613960856101fd98976007970190613218565b92833560018801558084013560028801556139dd600388016139a6604087013561398981612c36565b825467ffffffffffffffff19166001600160401b03909116178255565b6060860135906139b582612c36565b9067ffffffffffffffff60401b82549160401b169067ffffffffffffffff60401b1916179055565b613a566139ed6080860186613237565b91823560048a01556005890190830135613a0681612c66565b815461ffff62ff00006040870135613a1d81612737565b151560101b1692169062ffffff191617178155613a3c6060840161324c565b815463ff000000191690151560181b63ff00000016179055565b608081019061315d565b90600687016132ed565b60a08101906133ec565b91016137b0565b82358282015591850191600101613938565b613a95610c61565b61391f565b6001906000198114613aaa570190565b613ab2612645565b0190565b909161079992811015613acf575b60051b810190613237565b613ad76115f6565b613ac4565b906080828203126101ed578135613af2816101dc565b926020830135613b01816101dc565b9260408101359260608201356001600160401b0381116101ed576107999201610df2565b805415613b3b575b600052602060002090600090565b613b436115f6565b613b2d565b8054821015613b65575b60005260206000209060021b0190600090565b613b6d6115f6565b613b52565b613b918154600160401b811015613cc2575b6001928382018155613b48565b613cb5575b825181546001600160a01b039182166001600160a01b031991821617835560208086015185850180549093169316929092179055906060906003906040860151600282015501930151908151916001600160401b038311613ca8575b613c0683613c0087546116a4565b8761343e565b81601f8411600114613c3f5750928293918392600094613c34575b50501b916000199060031b1c1916179055565b015192503880613c21565b919083601f198116613c5688600052602060002090565b946000905b88838310613c8e5750505010613c7557505050811b019055565b015160001960f88460031b161c1916905538808061350f565b858701518855909601959485019487935090810190613c5b565b613cb0610c61565b613bf2565b613cbd613146565b613b96565b613cca610c61565b613b84565b6020918151811015613ce4575b60051b010190565b613cec6115f6565b613cdc565b90604091825192613d0184610c98565b83613d0b836118f3565b8152600f600e840154936020948584015201805490613d2982611782565b94613d3685519687610d56565b82865260009182528082208187015b848410613d555750505050500152565b6004836001928951613d6681610d20565b848060a01b0380875416825285870154168382015260028601548b820152613d90600387016116de565b6060820152815201920193019290613d4556fe360894a13ba1a3210667c828492db98dca3e2076cc3735a920a3ca505d382bbca2646970667358221220f0fd61f6d1c68c5e8a5ad095f38f61965c7fe15a03b48781bd49f9a13b6ed4e664736f6c63430008110033","opcodes":"PUSH1 0xA0 DUP1 PUSH1 0x40 MSTORE CALLVALUE PUSH3 0xE1 JUMPI ADDRESS PUSH1 0x80 MSTORE PUSH1 0x0 SLOAD SWAP1 PUSH1 0xFF DUP3 PUSH1 0x8 SHR AND PUSH3 0x8F JUMPI POP PUSH1 0xFF DUP1 DUP3 AND SUB PUSH3 0x53 JUMPI JUMPDEST PUSH1 0x40 MLOAD PUSH2 0x3DF9 SWAP1 DUP2 PUSH3 0xE7 DUP3 CODECOPY PUSH1 0x80 MLOAD DUP2 DUP2 DUP2 PUSH2 0xB3B ADD MSTORE DUP2 DUP2 PUSH2 0xE4F ADD MSTORE PUSH2 0xF65 ADD MSTORE RETURN JUMPDEST PUSH1 0xFF SWAP1 DUP2 NOT AND OR PUSH1 0x0 SSTORE PUSH32 0x7F26B83FF96E1F2B6A682F133852F6798A09C465DA95921460CEFB3847402498 PUSH1 0x20 PUSH1 0x40 MLOAD PUSH1 0xFF DUP2 MSTORE LOG1 CODESIZE PUSH3 0x2C JUMP JUMPDEST PUSH3 0x461BCD PUSH1 0xE5 SHL DUP2 MSTORE PUSH1 0x20 PUSH1 0x4 DUP3 ADD MSTORE PUSH1 0x27 PUSH1 0x24 DUP3 ADD MSTORE PUSH32 0x496E697469616C697A61626C653A20636F6E747261637420697320696E697469 PUSH1 0x44 DUP3 ADD MSTORE PUSH7 0x616C697A696E67 PUSH1 0xC8 SHL PUSH1 0x64 DUP3 ADD MSTORE PUSH1 0x84 SWAP1 REVERT JUMPDEST PUSH1 0x0 DUP1 REVERT INVALID PUSH1 0x80 PUSH1 0x40 MSTORE PUSH1 0x4 CALLDATASIZE LT ISZERO PUSH2 0x1B JUMPI JUMPDEST CALLDATASIZE ISZERO PUSH2 0x19 JUMPI PUSH1 0x0 DUP1 REVERT JUMPDEST STOP JUMPDEST PUSH1 0x0 CALLDATALOAD PUSH1 0xE0 SHR DUP1 PUSH4 0x166A07A EQ PUSH2 0x1D3 JUMPI DUP1 PUSH4 0x9F5DC91 EQ PUSH2 0x1CA JUMPI DUP1 PUSH4 0x9FC8843 EQ PUSH2 0x1C1 JUMPI DUP1 PUSH4 0x1635F5FD EQ PUSH2 0x1B8 JUMPI DUP1 PUSH4 0x27506F53 EQ PUSH2 0x1AF JUMPI DUP1 PUSH4 0x2E7700F0 EQ PUSH2 0x1A6 JUMPI DUP1 PUSH4 0x3659CFE6 EQ PUSH2 0x19D JUMPI DUP1 PUSH4 0x4F1EF286 EQ PUSH2 0x194 JUMPI DUP1 PUSH4 0x52D1902D EQ PUSH2 0x18B JUMPI DUP1 PUSH4 0x540ABF73 EQ PUSH2 0x182 JUMPI DUP1 PUSH4 0x715018A6 EQ PUSH2 0x179 JUMPI DUP1 PUSH4 0x7ECCB307 EQ PUSH2 0x170 JUMPI DUP1 PUSH4 0x7F46DDB2 EQ PUSH2 0x167 JUMPI DUP1 PUSH4 0x87087623 EQ PUSH2 0x15E JUMPI DUP1 PUSH4 0x8DA5CB5B EQ PUSH2 0x155 JUMPI DUP1 PUSH4 0x8F601F66 EQ PUSH2 0x14C JUMPI DUP1 PUSH4 0x927EDE2D EQ PUSH2 0x143 JUMPI DUP1 PUSH4 0x9ACE38C2 EQ PUSH2 0x13A JUMPI DUP1 PUSH4 0xC0C53B8B EQ PUSH2 0x131 JUMPI DUP1 PUSH4 0xE11013DD EQ PUSH2 0x128 JUMPI DUP1 PUSH4 0xECC6DA0C EQ PUSH2 0x11F JUMPI PUSH4 0xF2FDE38B SUB PUSH2 0xE JUMPI PUSH2 0x11A PUSH2 0x1E4D JUMP JUMPDEST PUSH2 0xE JUMP JUMPDEST POP PUSH2 0x11A PUSH2 0x1E05 JUMP JUMPDEST POP PUSH2 0x11A PUSH2 0x1D84 JUMP JUMPDEST POP PUSH2 0x11A PUSH2 0x1C7D JUMP JUMPDEST POP PUSH2 0x11A PUSH2 0x1BE5 JUMP JUMPDEST POP PUSH2 0x11A PUSH2 0x15CC JUMP JUMPDEST POP PUSH2 0x11A PUSH2 0x1568 JUMP JUMPDEST POP PUSH2 0x11A PUSH2 0x153E JUMP JUMPDEST POP PUSH2 0x11A PUSH2 0x13ED JUMP JUMPDEST POP PUSH2 0x11A PUSH2 0x13C3 JUMP JUMPDEST POP PUSH2 0x11A PUSH2 0x11D9 JUMP JUMPDEST POP PUSH2 0x11A PUSH2 0x117A JUMP JUMPDEST POP PUSH2 0x11A PUSH2 0x1017 JUMP JUMPDEST POP PUSH2 0x11A PUSH2 0xF51 JUMP JUMPDEST POP PUSH2 0x11A PUSH2 0xE0D JUMP JUMPDEST POP PUSH2 0x11A PUSH2 0xB13 JUMP JUMPDEST POP PUSH2 0x11A PUSH2 0xAF4 JUMP JUMPDEST POP PUSH2 0x11A PUSH2 0x997 JUMP JUMPDEST POP PUSH2 0x11A PUSH2 0x4A9 JUMP JUMPDEST POP PUSH2 0x11A PUSH2 0x42B JUMP JUMPDEST POP PUSH2 0x11A PUSH2 0x3FA JUMP JUMPDEST POP PUSH2 0x11A PUSH2 0x22C JUMP JUMPDEST PUSH1 0x1 PUSH1 0x1 PUSH1 0xA0 SHL SUB DUP2 AND SUB PUSH2 0x1ED JUMPI JUMP JUMPDEST PUSH1 0x0 DUP1 REVERT JUMPDEST CALLDATALOAD SWAP1 PUSH2 0x1FD DUP3 PUSH2 0x1DC JUMP JUMPDEST JUMP JUMPDEST SWAP2 DUP2 PUSH1 0x1F DUP5 ADD SLT ISZERO PUSH2 0x1ED JUMPI DUP3 CALLDATALOAD SWAP2 PUSH1 0x1 PUSH1 0x1 PUSH1 0x40 SHL SUB DUP4 GT PUSH2 0x1ED JUMPI PUSH1 0x20 DUP4 DUP2 DUP7 ADD SWAP6 ADD ADD GT PUSH2 0x1ED JUMPI JUMP JUMPDEST POP CALLVALUE PUSH2 0x1ED JUMPI PUSH1 0xC0 CALLDATASIZE PUSH1 0x3 NOT ADD SLT PUSH2 0x1ED JUMPI PUSH1 0x4 CALLDATALOAD PUSH2 0x24A DUP2 PUSH2 0x1DC JUMP JUMPDEST PUSH1 0x24 CALLDATALOAD SWAP1 PUSH2 0x257 DUP3 PUSH2 0x1DC JUMP JUMPDEST PUSH1 0x44 CALLDATALOAD PUSH2 0x263 DUP2 PUSH2 0x1DC JUMP JUMPDEST PUSH1 0x64 CALLDATALOAD PUSH2 0x26F DUP2 PUSH2 0x1DC JUMP JUMPDEST PUSH1 0x84 CALLDATALOAD SWAP2 PUSH1 0xA4 CALLDATALOAD PUSH1 0x1 PUSH1 0x1 PUSH1 0x40 SHL SUB DUP2 GT PUSH2 0x1ED JUMPI PUSH2 0x292 SWAP1 CALLDATASIZE SWAP1 PUSH1 0x4 ADD PUSH2 0x1FF JUMP JUMPDEST SWAP6 SWAP1 PUSH2 0x29D DUP7 PUSH2 0x2885 JUMP JUMPDEST ISZERO PUSH2 0x343 JUMPI PUSH2 0x2B4 PUSH2 0x2AF DUP4 DUP9 PUSH2 0x29F0 JUMP JUMPDEST PUSH2 0x2671 JUMP JUMPDEST PUSH1 0x1 PUSH1 0x1 PUSH1 0xA0 SHL SUB DUP7 AND SWAP1 DUP2 EXTCODESIZE ISZERO PUSH2 0x1ED JUMPI PUSH1 0x40 MLOAD PUSH4 0x40C10F19 PUSH1 0xE0 SHL DUP2 MSTORE PUSH1 0x1 PUSH1 0x1 PUSH1 0xA0 SHL SUB DUP7 AND PUSH1 0x4 DUP3 ADD MSTORE PUSH1 0x24 DUP2 ADD DUP8 SWAP1 MSTORE PUSH2 0x19 SWAP9 PUSH2 0x317 SWAP4 SWAP1 SWAP2 SWAP1 PUSH1 0x0 SWAP1 DUP3 SWAP1 PUSH1 0x44 SWAP1 DUP3 SWAP1 DUP5 SWAP1 GAS CALL DUP1 ISZERO PUSH2 0x336 JUMPI JUMPDEST PUSH2 0x31D JUMPI JUMPDEST POP JUMPDEST CALLDATASIZE SWAP2 PUSH2 0xDBB JUMP JUMPDEST SWAP5 PUSH2 0x2B84 JUMP JUMPDEST DUP1 PUSH2 0x32A PUSH2 0x330 SWAP3 PUSH2 0xC78 JUMP JUMPDEST DUP1 PUSH2 0x5D6 JUMP JUMPDEST CODESIZE PUSH2 0x30E JUMP JUMPDEST PUSH2 0x33E PUSH2 0x2064 JUMP JUMPDEST PUSH2 0x309 JUMP JUMPDEST PUSH2 0x317 SWAP1 PUSH2 0x19 SWAP8 PUSH2 0x38C DUP8 PUSH2 0x386 DUP7 PUSH2 0x36F DUP13 PUSH1 0x1 DUP1 PUSH1 0xA0 SHL SUB AND PUSH1 0x0 MSTORE PUSH1 0xCE PUSH1 0x20 MSTORE PUSH1 0x40 PUSH1 0x0 KECCAK256 SWAP1 JUMP JUMPDEST SWAP1 PUSH1 0x1 DUP1 PUSH1 0xA0 SHL SUB AND PUSH1 0x0 MSTORE PUSH1 0x20 MSTORE PUSH1 0x40 PUSH1 0x0 KECCAK256 SWAP1 JUMP JUMPDEST SLOAD PUSH2 0x265C JUMP JUMPDEST PUSH1 0x1 PUSH1 0x1 PUSH1 0xA0 SHL SUB DUP10 AND PUSH1 0x0 SWAP1 DUP2 MSTORE PUSH1 0xCE PUSH1 0x20 MSTORE PUSH1 0x40 SWAP1 KECCAK256 PUSH2 0x3AF SWAP1 DUP7 SWAP1 PUSH2 0x36F JUMP JUMPDEST SSTORE PUSH2 0x3C4 DUP8 DUP8 PUSH1 0x1 PUSH1 0x1 PUSH1 0xA0 SHL SUB DUP12 AND PUSH2 0x26F6 JUMP JUMPDEST PUSH2 0x310 JUMP JUMPDEST PUSH1 0x3 NOT SWAP1 PUSH1 0x20 DUP2 DUP4 ADD SLT PUSH2 0x1ED JUMPI PUSH1 0x4 CALLDATALOAD SWAP2 PUSH1 0x1 PUSH1 0x1 PUSH1 0x40 SHL SUB DUP4 GT PUSH2 0x1ED JUMPI DUP3 PUSH1 0x40 SWAP3 SUB ADD SLT PUSH2 0x1ED JUMPI PUSH1 0x4 ADD SWAP1 JUMP JUMPDEST POP CALLVALUE PUSH2 0x1ED JUMPI PUSH1 0x20 PUSH2 0x413 PUSH2 0x40E CALLDATASIZE PUSH2 0x3C9 JUMP JUMPDEST PUSH2 0x2EC5 JUMP JUMPDEST PUSH1 0x40 MLOAD SWAP1 ISZERO ISZERO DUP2 MSTORE RETURN JUMPDEST PUSH4 0xFFFFFFFF DUP2 AND SUB PUSH2 0x1ED JUMPI JUMP JUMPDEST POP PUSH1 0x40 CALLDATASIZE PUSH1 0x3 NOT ADD SLT PUSH2 0x1ED JUMPI PUSH2 0x443 PUSH1 0x4 CALLDATALOAD PUSH2 0x41D JUMP JUMPDEST PUSH1 0x24 CALLDATALOAD PUSH1 0x1 PUSH1 0x1 PUSH1 0x40 SHL SUB DUP2 GT PUSH2 0x1ED JUMPI PUSH2 0x465 PUSH2 0x470 SWAP2 CALLDATASIZE SWAP1 PUSH1 0x4 ADD PUSH2 0x1FF JUMP JUMPDEST PUSH2 0x310 CALLER EXTCODESIZE ISZERO PUSH2 0x24C6 JUMP JUMPDEST PUSH1 0x40 MLOAD SWAP1 PUSH32 0x2849B43074093A05396B6F2A937DEE8565B15A48A7B3D4BFFB732A5017380AF5 CALLER SWAP3 DUP1 PUSH2 0x4A4 CALLER SWAP5 CALLVALUE DUP4 PUSH2 0x2AB5 JUMP JUMPDEST SUB SWAP1 LOG3 STOP JUMPDEST POP PUSH1 0x80 CALLDATASIZE PUSH1 0x3 NOT ADD SLT PUSH2 0x1ED JUMPI PUSH1 0x4 CALLDATALOAD PUSH2 0x4C2 DUP2 PUSH2 0x1DC JUMP JUMPDEST PUSH1 0x24 CALLDATALOAD PUSH2 0x4CE DUP2 PUSH2 0x1DC JUMP JUMPDEST PUSH1 0x44 CALLDATALOAD SWAP1 PUSH1 0x64 CALLDATALOAD PUSH1 0x1 PUSH1 0x1 PUSH1 0x40 SHL SUB DUP2 GT PUSH2 0x1ED JUMPI PUSH2 0x4F1 SWAP1 CALLDATASIZE SWAP1 PUSH1 0x4 ADD PUSH2 0x1FF JUMP JUMPDEST SWAP3 SWAP1 DUP2 CALLVALUE SUB PUSH2 0x56B JUMPI PUSH2 0x19 SWAP5 PUSH2 0x566 SWAP5 PUSH2 0x557 SWAP3 DUP5 SWAP2 DUP7 SWAP2 PUSH2 0x551 SWAP2 PUSH2 0x310 PUSH1 0x1 PUSH1 0x1 PUSH1 0xA0 SHL SUB DUP6 AND PUSH2 0x527 ADDRESS DUP3 EQ ISZERO PUSH2 0x2538 JUMP JUMPDEST PUSH1 0xC9 SLOAD PUSH2 0x54A SWAP1 PUSH2 0x53E SWAP1 PUSH1 0x1 PUSH1 0x1 PUSH1 0xA0 SHL SUB AND DUP2 JUMP JUMPDEST PUSH1 0x1 PUSH1 0x1 PUSH1 0xA0 SHL SUB AND SWAP1 JUMP JUMPDEST EQ ISZERO PUSH2 0x2590 JUMP JUMPDEST SWAP3 PUSH2 0x2ACC JUMP JUMPDEST GAS PUSH2 0x560 PUSH2 0x2042 JUMP JUMPDEST SWAP3 PUSH2 0x2BCB JUMP JUMPDEST PUSH2 0x25ED JUMP JUMPDEST PUSH1 0x40 MLOAD PUSH3 0x461BCD PUSH1 0xE5 SHL DUP2 MSTORE PUSH1 0x20 PUSH1 0x4 DUP3 ADD MSTORE PUSH1 0x3A PUSH1 0x24 DUP3 ADD MSTORE PUSH32 0x466972656C696E6B4272696467653A20616D6F756E742073656E7420646F6573 PUSH1 0x44 DUP3 ADD MSTORE PUSH32 0x206E6F74206D6174636820616D6F756E74207265717569726564000000000000 PUSH1 0x64 DUP3 ADD MSTORE PUSH1 0x84 SWAP1 REVERT JUMPDEST PUSH1 0x0 SWAP2 SUB SLT PUSH2 0x1ED JUMPI JUMP JUMPDEST SWAP1 DUP2 MLOAD DUP1 DUP3 MSTORE PUSH1 0x20 DUP1 DUP1 SWAP4 ADD SWAP4 ADD SWAP2 PUSH1 0x0 JUMPDEST DUP3 DUP2 LT PUSH2 0x601 JUMPI POP POP POP POP SWAP1 JUMP JUMPDEST DUP4 MLOAD DUP6 MSTORE SWAP4 DUP2 ADD SWAP4 SWAP3 DUP2 ADD SWAP3 PUSH1 0x1 ADD PUSH2 0x5F3 JUMP JUMPDEST SWAP2 SWAP1 DUP3 MLOAD SWAP3 DUP4 DUP3 MSTORE PUSH1 0x0 JUMPDEST DUP5 DUP2 LT PUSH2 0x641 JUMPI POP POP DUP3 PUSH1 0x0 PUSH1 0x20 DUP1 SWAP5 SWAP6 DUP5 ADD ADD MSTORE PUSH1 0x1F DUP1 NOT SWAP2 ADD AND ADD ADD SWAP1 JUMP JUMPDEST PUSH1 0x20 DUP2 DUP4 ADD DUP2 ADD MLOAD DUP5 DUP4 ADD DUP3 ADD MSTORE ADD PUSH2 0x620 JUMP JUMPDEST SWAP1 DUP1 DUP3 MLOAD SWAP1 DUP2 DUP2 MSTORE PUSH1 0x20 DUP1 SWAP2 ADD SWAP3 DUP2 DUP1 DUP5 PUSH1 0x5 SHL DUP4 ADD ADD SWAP6 ADD SWAP4 PUSH1 0x0 SWAP2 JUMPDEST DUP5 DUP4 LT PUSH2 0x683 JUMPI POP POP POP POP POP POP SWAP1 JUMP JUMPDEST SWAP1 SWAP2 SWAP3 SWAP4 SWAP5 SWAP6 DUP5 DUP1 PUSH1 0x1 SWAP3 PUSH1 0x1F NOT DUP6 DUP3 SUB ADD DUP7 MSTORE DUP10 MLOAD SWAP1 PUSH4 0xFFFFFFFF DUP3 MLOAD AND DUP2 MSTORE DUP5 DUP1 PUSH1 0xA0 SHL SUB DUP4 DUP4 ADD MLOAD AND DUP4 DUP3 ADD MSTORE PUSH2 0x6E2 PUSH2 0x6CF PUSH1 0x40 DUP1 DUP6 ADD MLOAD SWAP1 PUSH1 0xA0 DUP1 SWAP2 DUP7 ADD MSTORE DUP5 ADD SWAP1 PUSH2 0x5E1 JUMP JUMPDEST PUSH1 0x60 DUP1 DUP6 ADD MLOAD SWAP1 DUP5 DUP4 SUB SWAP1 DUP6 ADD MSTORE PUSH2 0x615 JUMP JUMPDEST SWAP2 PUSH1 0x80 DUP1 SWAP2 ADD MLOAD ISZERO ISZERO SWAP2 ADD MSTORE SWAP9 ADD SWAP4 ADD SWAP4 ADD SWAP2 SWAP5 SWAP4 SWAP3 SWAP1 PUSH2 0x673 JUMP JUMPDEST DUP1 MLOAD PUSH1 0x1 PUSH1 0x1 PUSH1 0x40 SHL SUB AND DUP3 MSTORE PUSH2 0x799 SWAP2 SWAP1 PUSH1 0x20 DUP2 DUP2 ADD MLOAD PUSH1 0x1 PUSH1 0x1 PUSH1 0x40 SHL SUB AND SWAP1 DUP4 ADD MSTORE PUSH1 0x40 DUP2 DUP2 ADD MLOAD PUSH1 0x1 PUSH1 0x1 PUSH1 0xA0 SHL SUB AND SWAP1 DUP4 ADD MSTORE PUSH1 0x60 DUP2 DUP2 ADD MLOAD ISZERO ISZERO SWAP1 DUP4 ADD MSTORE PUSH1 0x80 DUP2 DUP2 ADD MLOAD PUSH1 0x1 PUSH1 0x1 PUSH1 0xA0 SHL SUB AND SWAP1 DUP4 ADD MSTORE PUSH1 0xA0 DUP2 ADD MLOAD PUSH1 0xA0 DUP4 ADD MSTORE PUSH2 0x778 PUSH1 0xC0 DUP3 ADD MLOAD PUSH2 0x120 DUP1 PUSH1 0xC0 DUP7 ADD MSTORE DUP5 ADD SWAP1 PUSH2 0x615 JUMP JUMPDEST PUSH1 0xE0 DUP3 DUP2 ADD MLOAD PUSH1 0xFF AND SWAP1 DUP5 ADD MSTORE SWAP2 PUSH2 0x100 DUP1 SWAP3 ADD MLOAD SWAP2 DUP2 DUP5 SUB SWAP2 ADD MSTORE PUSH2 0x655 JUMP JUMPDEST SWAP1 JUMP JUMPDEST SWAP2 SWAP1 SWAP2 PUSH2 0x7B2 DUP2 MLOAD PUSH1 0x40 DUP6 MSTORE PUSH1 0x40 DUP6 ADD SWAP1 PUSH2 0x5E1 JUMP JUMPDEST PUSH1 0x20 DUP1 SWAP3 ADD MLOAD SWAP4 DUP3 DUP2 DUP4 SUB SWAP2 ADD MSTORE DUP4 MLOAD DUP2 MSTORE DUP2 DUP5 ADD MLOAD DUP3 DUP3 ADD MSTORE PUSH1 0x1 PUSH1 0x1 PUSH1 0x40 SHL SUB DUP1 PUSH1 0x40 DUP7 ADD MLOAD AND PUSH1 0x40 DUP4 ADD MSTORE PUSH1 0x60 DUP6 ADD MLOAD AND PUSH1 0x60 DUP3 ADD MSTORE PUSH1 0x80 DUP5 ADD MLOAD SWAP2 PUSH1 0xC0 PUSH1 0x80 DUP4 ADD MSTORE PUSH1 0x80 PUSH2 0x160 DUP4 ADD SWAP4 DUP1 MLOAD PUSH1 0xC0 DUP6 ADD MSTORE PUSH2 0xFFFF DUP4 DUP3 ADD MLOAD AND PUSH1 0xE0 DUP6 ADD MSTORE PUSH1 0x40 DUP2 ADD MLOAD ISZERO ISZERO PUSH2 0x100 DUP6 ADD MSTORE PUSH1 0x60 DUP2 ADD MLOAD ISZERO ISZERO PUSH2 0x120 DUP6 ADD MSTORE ADD MLOAD SWAP3 PUSH1 0xA0 PUSH2 0x140 DUP5 ADD MSTORE DUP4 MLOAD DUP1 SWAP2 MSTORE DUP2 PUSH2 0x180 DUP5 ADD SWAP5 ADD SWAP2 PUSH1 0x0 JUMPDEST DUP3 DUP2 LT PUSH2 0x86C JUMPI POP POP POP POP PUSH1 0xA0 PUSH2 0x799 SWAP4 SWAP5 ADD MLOAD SWAP1 PUSH1 0xA0 DUP2 DUP5 SUB SWAP2 ADD MSTORE PUSH2 0x6FE JUMP JUMPDEST DUP4 MLOAD PUSH4 0xFFFFFFFF AND DUP7 MSTORE SWAP5 DUP2 ADD SWAP5 SWAP3 DUP2 ADD SWAP3 PUSH1 0x1 ADD PUSH2 0x84A JUMP JUMPDEST PUSH1 0x20 DUP1 DUP3 ADD SWAP1 DUP1 DUP4 MSTORE DUP4 MLOAD DUP1 SWAP3 MSTORE PUSH1 0x40 SWAP3 DUP4 DUP2 ADD PUSH1 0x5 SWAP5 DUP4 DUP2 DUP7 DUP9 SHL DUP6 ADD ADD SWAP8 ADD SWAP6 PUSH1 0x0 DUP1 SWAP5 JUMPDEST DUP8 DUP7 LT PUSH2 0x8C0 JUMPI POP POP POP POP POP POP POP POP POP SWAP1 JUMP JUMPDEST SWAP1 SWAP2 SWAP3 SWAP4 SWAP5 SWAP6 SWAP7 SWAP8 SWAP9 PUSH1 0x3F NOT DUP3 DUP3 SUB ADD DUP7 MSTORE DUP8 DUP11 MLOAD DUP1 MLOAD SWAP1 DUP8 PUSH2 0x8EB PUSH1 0x60 SWAP4 DUP5 DUP8 MSTORE DUP5 DUP8 ADD SWAP1 PUSH2 0x79C JUMP JUMPDEST SWAP2 DUP5 DUP2 ADD MLOAD DUP6 DUP8 ADD MSTORE ADD MLOAD SWAP4 DUP9 DUP2 DUP4 SUB SWAP2 ADD MSTORE DUP4 MLOAD DUP1 DUP3 MSTORE DUP4 DUP3 ADD SWAP2 DUP5 DUP1 DUP4 DUP12 SHL DUP4 ADD ADD SWAP7 ADD SWAP4 DUP9 SWAP1 JUMPDEST DUP12 DUP5 DUP4 LT PUSH2 0x93B JUMPI POP POP POP POP POP POP POP DUP1 PUSH1 0x1 SWAP3 SWAP12 ADD SWAP7 ADD SWAP7 ADD SWAP5 SWAP8 SWAP7 SWAP6 SWAP4 SWAP3 SWAP2 SWAP1 PUSH2 0x8AD JUMP JUMPDEST SWAP7 PUSH2 0x986 PUSH1 0x1 SWAP4 SWAP6 SWAP8 SWAP10 DUP4 DUP4 SWAP5 SWAP7 SWAP9 SWAP11 PUSH1 0x1F NOT DUP11 DUP5 SUB ADD DUP13 MSTORE DUP13 MLOAD SWAP1 DUP8 DUP1 PUSH1 0xA0 SHL SUB DUP1 DUP4 MLOAD AND DUP6 MSTORE DUP7 DUP4 ADD MLOAD AND DUP7 DUP6 ADD MSTORE DUP1 DUP3 ADD MLOAD SWAP1 DUP5 ADD MSTORE ADD MLOAD SWAP1 PUSH1 0x80 SWAP1 DUP2 DUP9 DUP3 ADD MSTORE ADD SWAP1 PUSH2 0x615 JUMP JUMPDEST SWAP9 ADD SWAP7 ADD SWAP3 ADD DUP14 SWAP6 SWAP5 SWAP3 SWAP4 SWAP2 PUSH2 0x915 JUMP JUMPDEST POP CALLVALUE PUSH2 0x1ED JUMPI PUSH1 0x0 DUP1 PUSH1 0x3 NOT CALLDATASIZE ADD SLT PUSH2 0xAF1 JUMPI PUSH1 0xCB SLOAD SWAP1 PUSH2 0x9B7 DUP3 PUSH2 0x1782 JUMP JUMPDEST SWAP1 PUSH1 0x40 SWAP1 PUSH2 0x9C7 DUP3 MLOAD SWAP4 DUP5 PUSH2 0xD56 JUMP JUMPDEST DUP4 DUP4 MSTORE PUSH1 0x1F NOT PUSH2 0x9D6 DUP6 PUSH2 0x1782 JUMP JUMPDEST ADD DUP2 JUMPDEST DUP2 DUP2 LT PUSH2 0xA31 JUMPI POP POP JUMPDEST DUP4 DUP2 LT PUSH2 0x9FB JUMPI DUP2 MLOAD DUP1 PUSH2 0x9F7 DUP6 DUP3 PUSH2 0x886 JUMP JUMPDEST SUB SWAP1 RETURN JUMPDEST DUP1 PUSH2 0xA11 PUSH2 0xA0B PUSH2 0xA2C SWAP4 PUSH2 0x160D JUMP JUMPDEST POP PUSH2 0x3CF1 JUMP JUMPDEST PUSH2 0xA1B DUP3 DUP7 PUSH2 0x3CCF JUMP JUMPDEST MSTORE PUSH2 0xA26 DUP2 DUP6 PUSH2 0x3CCF JUMP JUMPDEST POP PUSH2 0x3A9A JUMP JUMPDEST PUSH2 0x9E3 JUMP JUMPDEST PUSH1 0x20 SWAP1 DUP5 MLOAD PUSH2 0xA3F DUP2 PUSH2 0xC98 JUMP JUMPDEST DUP6 MLOAD PUSH2 0xA4A DUP2 PUSH2 0xCB3 JUMP JUMPDEST PUSH1 0x60 DUP1 DUP3 MSTORE DUP8 MLOAD SWAP2 PUSH2 0xA5B DUP4 PUSH2 0xCCE JUMP JUMPDEST DUP8 DUP4 MSTORE DUP6 SWAP3 DUP9 DUP5 DUP3 ADD MSTORE DUP9 DUP11 DUP3 ADD MSTORE DUP9 DUP4 DUP3 ADD MSTORE DUP10 MLOAD PUSH2 0xA7A DUP2 PUSH2 0xCE9 JUMP JUMPDEST DUP10 DUP2 MSTORE DUP10 DUP6 DUP3 ADD MSTORE DUP10 DUP12 DUP3 ADD MSTORE DUP10 DUP5 DUP3 ADD MSTORE PUSH1 0x80 SWAP1 DUP5 DUP3 DUP3 ADD MSTORE DUP2 DUP4 ADD MSTORE DUP10 DUP12 MLOAD SWAP2 PUSH2 0xAA5 DUP4 PUSH2 0xD04 JUMP JUMPDEST DUP2 DUP4 MSTORE DUP2 DUP8 DUP5 ADD MSTORE DUP2 DUP14 DUP5 ADD MSTORE DUP2 DUP7 DUP5 ADD MSTORE DUP3 ADD MSTORE PUSH1 0xA0 DUP11 DUP2 DUP4 ADD MSTORE DUP5 PUSH1 0xC0 DUP4 ADD MSTORE DUP11 PUSH1 0xE0 DUP4 ADD MSTORE DUP5 PUSH2 0x100 DUP4 ADD MSTORE DUP3 ADD MSTORE DUP4 DUP3 ADD MSTORE DUP4 MSTORE DUP7 DUP3 DUP5 ADD MSTORE DUP8 DUP4 ADD MSTORE DUP3 DUP9 ADD ADD MSTORE ADD PUSH2 0x9D9 JUMP JUMPDEST DUP1 REVERT JUMPDEST POP CALLVALUE PUSH2 0x1ED JUMPI PUSH1 0x0 CALLDATASIZE PUSH1 0x3 NOT ADD SLT PUSH2 0x1ED JUMPI PUSH1 0x20 PUSH1 0xCB SLOAD PUSH1 0x40 MLOAD SWAP1 DUP2 MSTORE RETURN JUMPDEST POP CALLVALUE PUSH2 0x1ED JUMPI PUSH1 0x20 CALLDATASIZE PUSH1 0x3 NOT ADD SLT PUSH2 0x1ED JUMPI PUSH1 0x4 CALLDATALOAD PUSH2 0xB31 DUP2 PUSH2 0x1DC JUMP JUMPDEST PUSH1 0x1 PUSH1 0x1 PUSH1 0xA0 SHL SUB PUSH32 0x0 DUP2 AND SWAP2 SWAP1 PUSH2 0xB6A ADDRESS DUP5 EQ ISZERO PUSH2 0x1F80 JUMP JUMPDEST PUSH2 0xB87 PUSH1 0x0 DUP1 MLOAD PUSH1 0x20 PUSH2 0x3DA4 DUP4 CODECOPY DUP2 MLOAD SWAP2 MSTORE SWAP4 DUP3 DUP6 SLOAD AND EQ PUSH2 0x1FE1 JUMP JUMPDEST PUSH2 0xB8F PUSH2 0x1EDF JUMP JUMPDEST PUSH1 0x40 MLOAD SWAP1 PUSH2 0xB9C DUP3 PUSH2 0xD3B JUMP JUMPDEST PUSH1 0x0 DUP3 MSTORE PUSH32 0x4910FDFA16FED3260ED0E7147F7CC6DA11A60208B5B9406D12A635614FFD9143 SLOAD PUSH1 0xFF AND ISZERO PUSH2 0xBD6 JUMPI POP POP PUSH2 0x19 SWAP2 POP PUSH2 0x211E JUMP JUMPDEST PUSH1 0x20 PUSH1 0x4 SWAP2 PUSH1 0x40 SWAP5 SWAP4 SWAP5 MLOAD SWAP3 DUP4 DUP1 SWAP3 PUSH4 0x52D1902D PUSH1 0xE0 SHL DUP3 MSTORE DUP7 AND GAS STATICCALL PUSH1 0x0 SWAP2 DUP2 PUSH2 0xC31 JUMPI JUMPDEST POP PUSH2 0xC1E JUMPI PUSH1 0x40 MLOAD PUSH3 0x461BCD PUSH1 0xE5 SHL DUP2 MSTORE DUP1 PUSH2 0xC1A PUSH1 0x4 DUP3 ADD PUSH2 0x20CF JUMP JUMPDEST SUB SWAP1 REVERT JUMPDEST PUSH2 0x19 SWAP4 PUSH2 0xC2C SWAP2 EQ PUSH2 0x2071 JUMP JUMPDEST PUSH2 0x21AE JUMP JUMPDEST PUSH2 0xC53 SWAP2 SWAP3 POP PUSH1 0x20 RETURNDATASIZE DUP2 GT PUSH2 0xC5A JUMPI JUMPDEST PUSH2 0xC4B DUP2 DUP4 PUSH2 0xD56 JUMP JUMPDEST DUP2 ADD SWAP1 PUSH2 0x2055 JUMP JUMPDEST SWAP1 CODESIZE PUSH2 0xBFC JUMP JUMPDEST POP RETURNDATASIZE PUSH2 0xC41 JUMP JUMPDEST POP PUSH4 0x4E487B71 PUSH1 0xE0 SHL PUSH1 0x0 MSTORE PUSH1 0x41 PUSH1 0x4 MSTORE PUSH1 0x24 PUSH1 0x0 REVERT JUMPDEST PUSH1 0x1 PUSH1 0x1 PUSH1 0x40 SHL SUB DUP2 GT PUSH2 0xC8B JUMPI PUSH1 0x40 MSTORE JUMP JUMPDEST PUSH2 0xC93 PUSH2 0xC61 JUMP JUMPDEST PUSH1 0x40 MSTORE JUMP JUMPDEST PUSH1 0x60 DUP2 ADD SWAP1 DUP2 LT PUSH1 0x1 PUSH1 0x1 PUSH1 0x40 SHL SUB DUP3 GT OR PUSH2 0xC8B JUMPI PUSH1 0x40 MSTORE JUMP JUMPDEST PUSH1 0x40 DUP2 ADD SWAP1 DUP2 LT PUSH1 0x1 PUSH1 0x1 PUSH1 0x40 SHL SUB DUP3 GT OR PUSH2 0xC8B JUMPI PUSH1 0x40 MSTORE JUMP JUMPDEST PUSH1 0xC0 DUP2 ADD SWAP1 DUP2 LT PUSH1 0x1 PUSH1 0x1 PUSH1 0x40 SHL SUB DUP3 GT OR PUSH2 0xC8B JUMPI PUSH1 0x40 MSTORE JUMP JUMPDEST PUSH1 0xA0 DUP2 ADD SWAP1 DUP2 LT PUSH1 0x1 PUSH1 0x1 PUSH1 0x40 SHL SUB DUP3 GT OR PUSH2 0xC8B JUMPI PUSH1 0x40 MSTORE JUMP JUMPDEST PUSH2 0x120 DUP2 ADD SWAP1 DUP2 LT PUSH1 0x1 PUSH1 0x1 PUSH1 0x40 SHL SUB DUP3 GT OR PUSH2 0xC8B JUMPI PUSH1 0x40 MSTORE JUMP JUMPDEST PUSH1 0x80 DUP2 ADD SWAP1 DUP2 LT PUSH1 0x1 PUSH1 0x1 PUSH1 0x40 SHL SUB DUP3 GT OR PUSH2 0xC8B JUMPI PUSH1 0x40 MSTORE JUMP JUMPDEST PUSH1 0x20 DUP2 ADD SWAP1 DUP2 LT PUSH1 0x1 PUSH1 0x1 PUSH1 0x40 SHL SUB DUP3 GT OR PUSH2 0xC8B JUMPI PUSH1 0x40 MSTORE JUMP JUMPDEST SWAP1 PUSH1 0x1F DUP1 NOT SWAP2 ADD AND DUP2 ADD SWAP1 DUP2 LT PUSH1 0x1 PUSH1 0x1 PUSH1 0x40 SHL SUB DUP3 GT OR PUSH2 0xC8B JUMPI PUSH1 0x40 MSTORE JUMP JUMPDEST PUSH1 0x40 MLOAD SWAP1 PUSH2 0x1FD DUP3 PUSH2 0xD20 JUMP JUMPDEST PUSH1 0x40 MLOAD SWAP1 PUSH2 0x1FD DUP3 PUSH2 0xD04 JUMP JUMPDEST PUSH1 0x20 SWAP1 PUSH1 0x1 PUSH1 0x1 PUSH1 0x40 SHL SUB DUP2 GT PUSH2 0xDAE JUMPI JUMPDEST PUSH1 0x1F ADD PUSH1 0x1F NOT AND ADD SWAP1 JUMP JUMPDEST PUSH2 0xDB6 PUSH2 0xC61 JUMP JUMPDEST PUSH2 0xDA3 JUMP JUMPDEST SWAP3 SWAP2 SWAP3 PUSH2 0xDC7 DUP3 PUSH2 0xD91 JUMP JUMPDEST SWAP2 PUSH2 0xDD5 PUSH1 0x40 MLOAD SWAP4 DUP5 PUSH2 0xD56 JUMP JUMPDEST DUP3 SWAP5 DUP2 DUP5 MSTORE DUP2 DUP4 ADD GT PUSH2 0x1ED JUMPI DUP3 DUP2 PUSH1 0x20 SWAP4 DUP5 PUSH1 0x0 SWAP7 ADD CALLDATACOPY ADD ADD MSTORE JUMP JUMPDEST SWAP1 DUP1 PUSH1 0x1F DUP4 ADD SLT ISZERO PUSH2 0x1ED JUMPI DUP2 PUSH1 0x20 PUSH2 0x799 SWAP4 CALLDATALOAD SWAP2 ADD PUSH2 0xDBB JUMP JUMPDEST POP PUSH1 0x40 CALLDATASIZE PUSH1 0x3 NOT ADD SLT PUSH2 0x1ED JUMPI PUSH1 0x4 CALLDATALOAD PUSH2 0xE26 DUP2 PUSH2 0x1DC JUMP JUMPDEST PUSH1 0x24 CALLDATALOAD PUSH1 0x1 PUSH1 0x1 PUSH1 0x40 SHL SUB DUP2 GT PUSH2 0x1ED JUMPI PUSH2 0xE45 SWAP1 CALLDATASIZE SWAP1 PUSH1 0x4 ADD PUSH2 0xDF2 JUMP JUMPDEST PUSH1 0x1 PUSH1 0x1 PUSH1 0xA0 SHL SUB PUSH32 0x0 DUP2 AND SWAP3 SWAP2 SWAP1 PUSH2 0xE7F ADDRESS DUP6 EQ ISZERO PUSH2 0x1F80 JUMP JUMPDEST PUSH2 0xE9C PUSH1 0x0 DUP1 MLOAD PUSH1 0x20 PUSH2 0x3DA4 DUP4 CODECOPY DUP2 MLOAD SWAP2 MSTORE SWAP5 DUP3 DUP7 SLOAD AND EQ PUSH2 0x1FE1 JUMP JUMPDEST PUSH2 0xEA4 PUSH2 0x1EDF JUMP JUMPDEST PUSH32 0x4910FDFA16FED3260ED0E7147F7CC6DA11A60208B5B9406D12A635614FFD9143 SLOAD PUSH1 0xFF AND ISZERO PUSH2 0xEDA JUMPI POP POP PUSH2 0x19 SWAP2 POP PUSH2 0x211E JUMP JUMPDEST PUSH1 0x20 PUSH1 0x4 SWAP2 PUSH1 0x40 SWAP5 SWAP4 SWAP5 MLOAD SWAP3 DUP4 DUP1 SWAP3 PUSH4 0x52D1902D PUSH1 0xE0 SHL DUP3 MSTORE DUP7 AND GAS STATICCALL PUSH1 0x0 SWAP2 DUP2 PUSH2 0xF31 JUMPI JUMPDEST POP PUSH2 0xF1E JUMPI PUSH1 0x40 MLOAD PUSH3 0x461BCD PUSH1 0xE5 SHL DUP2 MSTORE DUP1 PUSH2 0xC1A PUSH1 0x4 DUP3 ADD PUSH2 0x20CF JUMP JUMPDEST PUSH2 0x19 SWAP4 PUSH2 0xF2C SWAP2 EQ PUSH2 0x2071 JUMP JUMPDEST PUSH2 0x226A JUMP JUMPDEST PUSH2 0xF4A SWAP2 SWAP3 POP PUSH1 0x20 RETURNDATASIZE DUP2 GT PUSH2 0xC5A JUMPI PUSH2 0xC4B DUP2 DUP4 PUSH2 0xD56 JUMP JUMPDEST SWAP1 CODESIZE PUSH2 0xF00 JUMP JUMPDEST POP CALLVALUE PUSH2 0x1ED JUMPI PUSH1 0x0 CALLDATASIZE PUSH1 0x3 NOT ADD SLT PUSH2 0x1ED JUMPI PUSH32 0x0 PUSH1 0x1 PUSH1 0x1 PUSH1 0xA0 SHL SUB AND ADDRESS SUB PUSH2 0xFAC JUMPI PUSH1 0x40 MLOAD PUSH1 0x0 DUP1 MLOAD PUSH1 0x20 PUSH2 0x3DA4 DUP4 CODECOPY DUP2 MLOAD SWAP2 MSTORE DUP2 MSTORE PUSH1 0x20 SWAP1 RETURN JUMPDEST PUSH1 0x40 MLOAD PUSH3 0x461BCD PUSH1 0xE5 SHL DUP2 MSTORE PUSH1 0x20 PUSH1 0x4 DUP3 ADD MSTORE PUSH1 0x38 PUSH1 0x24 DUP3 ADD MSTORE PUSH32 0x555550535570677261646561626C653A206D757374206E6F742062652063616C PUSH1 0x44 DUP3 ADD MSTORE PUSH32 0x6C6564207468726F7567682064656C656761746563616C6C0000000000000000 PUSH1 0x64 DUP3 ADD MSTORE PUSH1 0x84 SWAP1 REVERT JUMPDEST POP CALLVALUE PUSH2 0x1ED JUMPI PUSH1 0xC0 CALLDATASIZE PUSH1 0x3 NOT ADD SLT PUSH2 0x1ED JUMPI PUSH1 0x4 CALLDATALOAD PUSH2 0x1035 DUP2 PUSH2 0x1DC JUMP JUMPDEST PUSH1 0x24 CALLDATALOAD SWAP1 PUSH2 0x1042 DUP3 PUSH2 0x1DC JUMP JUMPDEST PUSH1 0x44 CALLDATALOAD PUSH2 0x104E DUP2 PUSH2 0x1DC JUMP JUMPDEST PUSH1 0x64 CALLDATALOAD SWAP1 PUSH2 0x105D PUSH1 0x84 CALLDATALOAD PUSH2 0x41D JUMP JUMPDEST PUSH1 0xA4 CALLDATALOAD PUSH1 0x1 PUSH1 0x1 PUSH1 0x40 SHL SUB DUP2 GT PUSH2 0x1ED JUMPI PUSH2 0x310 PUSH2 0x107F SWAP2 CALLDATASIZE SWAP1 PUSH1 0x4 ADD PUSH2 0x1FF JUMP JUMPDEST SWAP3 PUSH2 0x1089 DUP2 PUSH2 0x2885 JUMP JUMPDEST ISZERO PUSH2 0x110E JUMPI PUSH2 0x109B PUSH2 0x2AF DUP7 DUP4 PUSH2 0x29F0 JUMP JUMPDEST PUSH1 0x1 PUSH1 0x1 PUSH1 0xA0 SHL SUB DUP2 AND SWAP5 DUP6 EXTCODESIZE ISZERO PUSH2 0x1ED JUMPI PUSH1 0x40 MLOAD PUSH4 0x2770A7EB PUSH1 0xE2 SHL DUP2 MSTORE CALLER PUSH1 0x4 DUP3 ADD MSTORE PUSH1 0x24 DUP2 ADD DUP6 SWAP1 MSTORE PUSH2 0x19 SWAP7 PUSH1 0x0 SWAP1 DUP3 SWAP1 PUSH1 0x44 SWAP1 DUP3 SWAP1 DUP5 SWAP1 GAS CALL DUP1 ISZERO PUSH2 0x1101 JUMPI JUMPDEST PUSH2 0x10EE JUMPI JUMPDEST POP JUMPDEST CALLER SWAP2 PUSH2 0x2B38 JUMP JUMPDEST DUP1 PUSH2 0x32A PUSH2 0x10FB SWAP3 PUSH2 0xC78 JUMP JUMPDEST CODESIZE PUSH2 0x10E5 JUMP JUMPDEST PUSH2 0x1109 PUSH2 0x2064 JUMP JUMPDEST PUSH2 0x10E0 JUMP JUMPDEST PUSH2 0x19 SWAP5 PUSH2 0x1127 DUP5 ADDRESS CALLER PUSH1 0x1 PUSH1 0x1 PUSH1 0xA0 SHL SUB DUP7 AND PUSH2 0x2843 JUMP JUMPDEST PUSH2 0x1151 DUP5 PUSH2 0x114B DUP4 PUSH2 0x36F DUP7 PUSH1 0x1 DUP1 PUSH1 0xA0 SHL SUB AND PUSH1 0x0 MSTORE PUSH1 0xCE PUSH1 0x20 MSTORE PUSH1 0x40 PUSH1 0x0 KECCAK256 SWAP1 JUMP JUMPDEST SLOAD PUSH2 0x2836 JUMP JUMPDEST PUSH1 0x1 PUSH1 0x1 PUSH1 0xA0 SHL SUB DUP4 AND PUSH1 0x0 SWAP1 DUP2 MSTORE PUSH1 0xCE PUSH1 0x20 MSTORE PUSH1 0x40 SWAP1 KECCAK256 PUSH2 0x1174 SWAP1 DUP4 SWAP1 PUSH2 0x36F JUMP JUMPDEST SSTORE PUSH2 0x10E7 JUMP JUMPDEST POP CALLVALUE PUSH2 0x1ED JUMPI PUSH1 0x0 DUP1 PUSH1 0x3 NOT CALLDATASIZE ADD SLT PUSH2 0xAF1 JUMPI PUSH2 0x1195 PUSH2 0x1EDF JUMP JUMPDEST PUSH1 0x33 DUP1 SLOAD PUSH1 0x1 PUSH1 0x1 PUSH1 0xA0 SHL SUB NOT DUP2 AND SWAP1 SWAP2 SSTORE DUP2 SWAP1 PUSH1 0x1 PUSH1 0x1 PUSH1 0xA0 SHL SUB AND PUSH32 0x8BE0079C531659141344CD1FD0A4F28419497F9722A3DAAFE3B4186F6B6457E0 DUP3 DUP1 LOG3 DUP1 RETURN JUMPDEST POP CALLVALUE PUSH2 0x1ED JUMPI PUSH2 0x11E8 CALLDATASIZE PUSH2 0x3C9 JUMP JUMPDEST PUSH2 0x11F9 PUSH2 0x11F4 DUP3 PUSH2 0x2EC5 JUMP JUMPDEST PUSH2 0x309E JUMP JUMPDEST PUSH1 0xCB SLOAD SWAP1 PUSH2 0x1205 PUSH2 0x30EA JUMP JUMPDEST POP POP PUSH2 0x121A DUP2 PUSH2 0x1214 DUP5 PUSH2 0x160D JUMP JUMPDEST POP PUSH2 0x3903 JUMP JUMPDEST PUSH1 0x20 DUP1 DUP3 ADD SWAP3 PUSH2 0x122A DUP5 DUP5 PUSH2 0x3218 JUMP JUMPDEST PUSH1 0xF PUSH2 0x1264 PUSH2 0x123E PUSH1 0xA0 SWAP4 DUP5 DUP2 ADD SWAP1 PUSH2 0x33EC JUMP JUMPDEST SWAP4 PUSH2 0x124F PUSH2 0x100 SWAP6 DUP7 DUP2 ADD SWAP1 PUSH2 0x315D JUMP JUMPDEST SWAP1 POP PUSH1 0xE PUSH2 0x125C DUP4 PUSH2 0x160D JUMP JUMPDEST POP ADD SSTORE PUSH2 0x160D JUMP JUMPDEST POP ADD SWAP5 PUSH1 0x0 JUMPDEST PUSH2 0x128C PUSH2 0x1283 PUSH2 0x127A DUP5 DUP10 PUSH2 0x3218 JUMP JUMPDEST DUP6 DUP2 ADD SWAP1 PUSH2 0x33EC JUMP JUMPDEST DUP6 DUP2 ADD SWAP1 PUSH2 0x315D JUMP JUMPDEST SWAP1 POP DUP2 LT ISZERO PUSH2 0x1320 JUMPI DUP1 PUSH2 0x1316 PUSH2 0x1308 PUSH2 0x12CB PUSH2 0x131B SWAP5 PUSH2 0x12C5 PUSH2 0x12BC PUSH2 0x12B3 DUP10 DUP15 PUSH2 0x3218 JUMP JUMPDEST DUP11 DUP2 ADD SWAP1 PUSH2 0x33EC JUMP JUMPDEST DUP11 DUP2 ADD SWAP1 PUSH2 0x315D JUMP JUMPDEST SWAP1 PUSH2 0x3AB6 JUMP JUMPDEST PUSH2 0x12E5 PUSH2 0x12DD PUSH1 0x60 SWAP3 DUP4 DUP2 ADD SWAP1 PUSH2 0x340C JUMP JUMPDEST DUP2 ADD SWAP1 PUSH2 0x3ADC JUMP JUMPDEST SWAP4 SWAP3 PUSH2 0x12F3 SWAP6 SWAP2 SWAP3 SWAP6 PUSH2 0xD77 JUMP JUMPDEST PUSH1 0x1 PUSH1 0x1 PUSH1 0xA0 SHL SUB SWAP2 DUP3 AND DUP2 MSTORE SWAP6 AND DUP13 DUP7 ADD MSTORE JUMP JUMPDEST PUSH1 0x40 DUP5 ADD MSTORE DUP3 ADD MSTORE DUP10 PUSH2 0x3B72 JUMP JUMPDEST PUSH2 0x3A9A JUMP JUMPDEST PUSH2 0x126A JUMP JUMPDEST PUSH1 0xFE SLOAD DUP8 SWAP1 PUSH2 0x1337 SWAP1 PUSH1 0x1 PUSH1 0x1 PUSH1 0xA0 SHL SUB AND PUSH2 0x53E JUMP JUMPDEST SWAP1 PUSH1 0x2 PUSH2 0x1360 PUSH2 0x135A PUSH1 0x1 PUSH2 0x134B DUP6 PUSH2 0x3B25 JUMP JUMPDEST POP ADD SLOAD PUSH1 0x1 PUSH1 0x1 PUSH1 0xA0 SHL SUB AND SWAP1 JUMP JUMPDEST SWAP3 PUSH2 0x3B25 JUMP JUMPDEST POP ADD SLOAD DUP3 EXTCODESIZE ISZERO PUSH2 0x1ED JUMPI PUSH1 0x40 MLOAD PUSH4 0x40C10F19 PUSH1 0xE0 SHL DUP2 MSTORE PUSH1 0x1 PUSH1 0x1 PUSH1 0xA0 SHL SUB SWAP3 SWAP1 SWAP3 AND PUSH1 0x4 DUP4 ADD MSTORE PUSH1 0x24 DUP3 ADD MSTORE SWAP1 PUSH1 0x0 SWAP1 DUP3 SWAP1 PUSH1 0x44 SWAP1 DUP3 SWAP1 DUP5 SWAP1 GAS CALL DUP1 ISZERO PUSH2 0x13B6 JUMPI JUMPDEST PUSH2 0x13A9 JUMPI STOP JUMPDEST DUP1 PUSH2 0x32A PUSH2 0x19 SWAP3 PUSH2 0xC78 JUMP JUMPDEST PUSH2 0x13BE PUSH2 0x2064 JUMP JUMPDEST PUSH2 0x13A3 JUMP JUMPDEST POP CALLVALUE PUSH2 0x1ED JUMPI PUSH1 0x0 CALLDATASIZE PUSH1 0x3 NOT ADD SLT PUSH2 0x1ED JUMPI PUSH1 0xCA SLOAD PUSH1 0x40 MLOAD PUSH1 0x1 PUSH1 0x1 PUSH1 0xA0 SHL SUB SWAP1 SWAP2 AND DUP2 MSTORE PUSH1 0x20 SWAP1 RETURN JUMPDEST POP CALLVALUE PUSH2 0x1ED JUMPI PUSH1 0xA0 CALLDATASIZE PUSH1 0x3 NOT ADD SLT PUSH2 0x1ED JUMPI PUSH1 0x4 CALLDATALOAD PUSH2 0x140B DUP2 PUSH2 0x1DC JUMP JUMPDEST PUSH1 0x24 CALLDATALOAD PUSH2 0x1417 DUP2 PUSH2 0x1DC JUMP JUMPDEST PUSH1 0x44 CALLDATALOAD PUSH2 0x1425 PUSH1 0x64 CALLDATALOAD PUSH2 0x41D JUMP JUMPDEST PUSH1 0x84 CALLDATALOAD PUSH1 0x1 PUSH1 0x1 PUSH1 0x40 SHL SUB DUP2 GT PUSH2 0x1ED JUMPI PUSH2 0x465 PUSH2 0x1447 SWAP2 CALLDATASIZE SWAP1 PUSH1 0x4 ADD PUSH2 0x1FF JUMP JUMPDEST SWAP2 PUSH2 0x1451 DUP5 PUSH2 0x2885 JUMP JUMPDEST ISZERO PUSH2 0x14D8 JUMPI PUSH2 0x1463 PUSH2 0x2AF DUP3 DUP7 PUSH2 0x29F0 JUMP JUMPDEST PUSH1 0x1 PUSH1 0x1 PUSH1 0xA0 SHL SUB DUP5 AND SWAP4 DUP5 EXTCODESIZE ISZERO PUSH2 0x1ED JUMPI PUSH1 0x40 MLOAD PUSH4 0x2770A7EB PUSH1 0xE2 SHL DUP2 MSTORE CALLER PUSH1 0x4 DUP3 ADD MSTORE PUSH1 0x24 DUP2 ADD DUP5 SWAP1 MSTORE PUSH2 0x19 SWAP6 PUSH1 0x0 SWAP1 DUP3 SWAP1 PUSH1 0x44 SWAP1 DUP3 SWAP1 DUP5 SWAP1 GAS CALL DUP1 ISZERO PUSH2 0x14CB JUMPI JUMPDEST PUSH2 0x14B8 JUMPI JUMPDEST POP JUMPDEST CALLER SWAP2 CALLER SWAP2 PUSH2 0x2B38 JUMP JUMPDEST DUP1 PUSH2 0x32A PUSH2 0x14C5 SWAP3 PUSH2 0xC78 JUMP JUMPDEST CODESIZE PUSH2 0x14AD JUMP JUMPDEST PUSH2 0x14D3 PUSH2 0x2064 JUMP JUMPDEST PUSH2 0x14A8 JUMP JUMPDEST PUSH2 0x19 SWAP4 PUSH2 0x14F1 DUP4 ADDRESS CALLER PUSH1 0x1 PUSH1 0x1 PUSH1 0xA0 SHL SUB DUP6 AND PUSH2 0x2843 JUMP JUMPDEST PUSH2 0x1515 DUP4 PUSH2 0x114B DUP5 PUSH2 0x36F DUP6 PUSH1 0x1 DUP1 PUSH1 0xA0 SHL SUB AND PUSH1 0x0 MSTORE PUSH1 0xCE PUSH1 0x20 MSTORE PUSH1 0x40 PUSH1 0x0 KECCAK256 SWAP1 JUMP JUMPDEST PUSH1 0x1 PUSH1 0x1 PUSH1 0xA0 SHL SUB DUP3 AND PUSH1 0x0 SWAP1 DUP2 MSTORE PUSH1 0xCE PUSH1 0x20 MSTORE PUSH1 0x40 SWAP1 KECCAK256 PUSH2 0x1538 SWAP1 DUP5 SWAP1 PUSH2 0x36F JUMP JUMPDEST SSTORE PUSH2 0x14AF JUMP JUMPDEST POP CALLVALUE PUSH2 0x1ED JUMPI PUSH1 0x0 CALLDATASIZE PUSH1 0x3 NOT ADD SLT PUSH2 0x1ED JUMPI PUSH1 0x33 SLOAD PUSH1 0x40 MLOAD PUSH1 0x1 PUSH1 0x1 PUSH1 0xA0 SHL SUB SWAP1 SWAP2 AND DUP2 MSTORE PUSH1 0x20 SWAP1 RETURN JUMPDEST POP CALLVALUE PUSH2 0x1ED JUMPI PUSH1 0x40 CALLDATASIZE PUSH1 0x3 NOT ADD SLT PUSH2 0x1ED JUMPI PUSH1 0x20 PUSH2 0x15C3 PUSH1 0x4 CALLDATALOAD PUSH2 0x158B DUP2 PUSH2 0x1DC JUMP JUMPDEST PUSH1 0x24 CALLDATALOAD SWAP1 PUSH2 0x1598 DUP3 PUSH2 0x1DC JUMP JUMPDEST PUSH1 0x1 DUP1 PUSH1 0xA0 SHL SUB AND PUSH1 0x0 MSTORE PUSH1 0xCE DUP4 MSTORE PUSH1 0x40 PUSH1 0x0 KECCAK256 SWAP1 PUSH1 0x1 DUP1 PUSH1 0xA0 SHL SUB AND PUSH1 0x0 MSTORE PUSH1 0x20 MSTORE PUSH1 0x40 PUSH1 0x0 KECCAK256 SWAP1 JUMP JUMPDEST SLOAD PUSH1 0x40 MLOAD SWAP1 DUP2 MSTORE RETURN JUMPDEST POP CALLVALUE PUSH2 0x1ED JUMPI PUSH1 0x0 CALLDATASIZE PUSH1 0x3 NOT ADD SLT PUSH2 0x1ED JUMPI PUSH1 0xC9 SLOAD PUSH1 0x40 MLOAD PUSH1 0x1 PUSH1 0x1 PUSH1 0xA0 SHL SUB SWAP1 SWAP2 AND DUP2 MSTORE PUSH1 0x20 SWAP1 RETURN JUMPDEST POP PUSH4 0x4E487B71 PUSH1 0xE0 SHL PUSH1 0x0 MSTORE PUSH1 0x32 PUSH1 0x4 MSTORE PUSH1 0x24 PUSH1 0x0 REVERT JUMPDEST PUSH1 0xCB SLOAD DUP2 LT ISZERO PUSH2 0x1648 JUMPI JUMPDEST PUSH1 0xCB PUSH1 0x0 MSTORE PUSH1 0x4 SHL PUSH32 0xA7CE836D032B2BF62B7E2097A8E0A6D8AEB35405AD15271E96D3B0188A1D06FB ADD SWAP1 PUSH1 0x0 SWAP1 JUMP JUMPDEST PUSH2 0x1650 PUSH2 0x15F6 JUMP JUMPDEST PUSH2 0x1618 JUMP JUMPDEST SWAP1 PUSH1 0x40 MLOAD SWAP2 DUP3 DUP2 SLOAD SWAP2 DUP3 DUP3 MSTORE PUSH1 0x20 SWAP3 DUP4 DUP4 ADD SWAP2 PUSH1 0x0 MSTORE DUP4 PUSH1 0x0 KECCAK256 SWAP4 PUSH1 0x0 SWAP1 JUMPDEST DUP3 DUP3 LT PUSH2 0x168A JUMPI POP POP POP PUSH2 0x1FD SWAP3 POP SUB DUP4 PUSH2 0xD56 JUMP JUMPDEST DUP6 SLOAD DUP5 MSTORE PUSH1 0x1 SWAP6 DUP7 ADD SWAP6 DUP9 SWAP6 POP SWAP4 DUP2 ADD SWAP4 SWAP1 SWAP2 ADD SWAP1 PUSH2 0x1674 JUMP JUMPDEST SWAP1 PUSH1 0x1 DUP3 DUP2 SHR SWAP3 AND DUP1 ISZERO PUSH2 0x16D4 JUMPI JUMPDEST PUSH1 0x20 DUP4 LT EQ PUSH2 0x16BE JUMPI JUMP JUMPDEST PUSH4 0x4E487B71 PUSH1 0xE0 SHL PUSH1 0x0 MSTORE PUSH1 0x22 PUSH1 0x4 MSTORE PUSH1 0x24 PUSH1 0x0 REVERT JUMPDEST SWAP2 PUSH1 0x7F AND SWAP2 PUSH2 0x16B3 JUMP JUMPDEST SWAP1 PUSH1 0x40 MLOAD SWAP2 DUP3 PUSH1 0x0 DUP3 SLOAD SWAP3 PUSH2 0x16F2 DUP5 PUSH2 0x16A4 JUMP JUMPDEST SWAP1 DUP2 DUP5 MSTORE PUSH1 0x1 SWAP5 DUP6 DUP2 AND SWAP1 DUP2 PUSH1 0x0 EQ PUSH2 0x175F JUMPI POP PUSH1 0x1 EQ PUSH2 0x171C JUMPI JUMPDEST POP POP PUSH2 0x1FD SWAP3 POP SUB DUP4 PUSH2 0xD56 JUMP JUMPDEST SWAP1 SWAP4 SWAP2 POP PUSH1 0x0 MSTORE PUSH1 0x20 SWAP1 DUP2 PUSH1 0x0 KECCAK256 SWAP4 PUSH1 0x0 SWAP2 JUMPDEST DUP2 DUP4 LT PUSH2 0x1747 JUMPI POP POP PUSH2 0x1FD SWAP4 POP DUP3 ADD ADD CODESIZE DUP1 PUSH2 0x170E JUMP JUMPDEST DUP6 SLOAD DUP9 DUP5 ADD DUP6 ADD MSTORE SWAP5 DUP6 ADD SWAP5 DUP8 SWAP5 POP SWAP2 DUP4 ADD SWAP2 PUSH2 0x172F JUMP JUMPDEST SWAP2 POP POP PUSH2 0x1FD SWAP5 POP PUSH1 0x20 SWAP3 POP PUSH1 0xFF NOT AND DUP3 DUP5 ADD MSTORE ISZERO ISZERO PUSH1 0x5 SHL DUP3 ADD ADD CODESIZE DUP1 PUSH2 0x170E JUMP JUMPDEST PUSH1 0x20 SWAP1 PUSH1 0x1 PUSH1 0x1 PUSH1 0x40 SHL SUB DUP2 GT PUSH2 0x179B JUMPI JUMPDEST PUSH1 0x5 SHL ADD SWAP1 JUMP JUMPDEST PUSH2 0x17A3 PUSH2 0xC61 JUMP JUMPDEST PUSH2 0x1794 JUMP JUMPDEST SWAP1 DUP2 SLOAD PUSH2 0x17B4 DUP2 PUSH2 0x1782 JUMP JUMPDEST SWAP3 PUSH1 0x40 SWAP4 PUSH2 0x17C4 DUP6 MLOAD SWAP2 DUP3 PUSH2 0xD56 JUMP JUMPDEST DUP3 DUP2 MSTORE DUP1 SWAP5 PUSH1 0x20 DUP1 SWAP3 ADD SWAP3 PUSH1 0x0 MSTORE DUP2 PUSH1 0x0 KECCAK256 SWAP1 PUSH1 0x0 SWAP4 JUMPDEST DUP6 DUP6 LT PUSH2 0x17EA JUMPI POP POP POP POP POP POP JUMP JUMPDEST PUSH1 0x4 DUP5 PUSH1 0x1 SWAP3 DUP5 MLOAD PUSH2 0x17FB DUP2 PUSH2 0xCE9 JUMP JUMPDEST DUP7 SLOAD PUSH4 0xFFFFFFFF DUP2 AND DUP3 MSTORE DUP6 DUP1 PUSH1 0xA0 SHL SUB SWAP1 DUP5 SHR AND DUP4 DUP3 ADD MSTORE PUSH2 0x181F DUP6 DUP9 ADD PUSH2 0x1655 JUMP JUMPDEST DUP7 DUP3 ADD MSTORE PUSH2 0x182F PUSH1 0x2 DUP9 ADD PUSH2 0x16DE JUMP JUMPDEST PUSH1 0x60 DUP3 ADD MSTORE PUSH1 0xFF PUSH1 0x3 DUP9 ADD SLOAD AND ISZERO ISZERO PUSH1 0x80 DUP3 ADD MSTORE DUP2 MSTORE ADD SWAP4 ADD SWAP5 ADD SWAP4 SWAP2 PUSH2 0x17DB JUMP JUMPDEST SWAP1 PUSH2 0x18EB PUSH1 0x6 PUSH2 0x185F PUSH2 0xD84 JUMP JUMPDEST DUP5 SLOAD PUSH1 0x1 PUSH1 0x1 PUSH1 0x40 SHL SUB DUP1 DUP3 AND DUP4 MSTORE PUSH1 0x40 SWAP2 SWAP1 SWAP2 SHR AND PUSH1 0x20 DUP3 ADD MSTORE SWAP4 PUSH1 0x1 DUP2 ADD SLOAD PUSH1 0x1 PUSH1 0x1 PUSH1 0xA0 SHL SUB DUP2 AND PUSH1 0x40 DUP8 ADD MSTORE PUSH1 0xA0 SHR PUSH1 0xFF AND ISZERO ISZERO PUSH1 0x60 DUP7 ADD MSTORE PUSH1 0x2 DUP2 ADD SLOAD PUSH1 0x1 PUSH1 0x1 PUSH1 0xA0 SHL SUB AND PUSH1 0x80 DUP7 ADD MSTORE PUSH1 0x3 DUP2 ADD SLOAD PUSH1 0xA0 DUP7 ADD MSTORE PUSH2 0x18C5 PUSH1 0x4 DUP3 ADD PUSH2 0x16DE JUMP JUMPDEST PUSH1 0xC0 DUP7 ADD MSTORE PUSH2 0x18E5 PUSH2 0x18DB PUSH1 0x5 DUP4 ADD SLOAD PUSH1 0xFF AND SWAP1 JUMP JUMPDEST PUSH1 0xFF AND PUSH1 0xE0 DUP8 ADD MSTORE JUMP JUMPDEST ADD PUSH2 0x17A8 JUMP JUMPDEST PUSH2 0x100 DUP4 ADD MSTORE JUMP JUMPDEST SWAP1 PUSH1 0x40 SWAP2 DUP3 MLOAD SWAP3 PUSH2 0x1903 DUP5 PUSH2 0xCB3 JUMP JUMPDEST DUP4 PUSH2 0x190D DUP4 PUSH2 0x1655 JUMP JUMPDEST DUP2 MSTORE DUP2 MLOAD SWAP3 PUSH2 0x191B DUP5 PUSH2 0xCCE JUMP JUMPDEST PUSH1 0x1 SWAP3 DUP4 DUP3 ADD SLOAD DUP6 MSTORE PUSH1 0x2 DUP3 ADD SLOAD SWAP4 PUSH1 0x20 SWAP5 DUP6 DUP8 ADD MSTORE DUP5 PUSH1 0x3 DUP5 ADD SLOAD PUSH1 0x1 PUSH1 0x1 PUSH1 0x40 SHL SUB DUP1 DUP3 AND DUP6 DUP11 ADD MSTORE PUSH1 0x60 SWAP2 DUP6 SHR AND DUP2 DUP10 ADD MSTORE DUP4 MLOAD SWAP4 PUSH2 0x195C DUP6 PUSH2 0xCE9 JUMP JUMPDEST PUSH1 0x4 DUP7 ADD SLOAD DUP6 MSTORE PUSH1 0xFF PUSH1 0x5 DUP8 ADD SLOAD PUSH2 0xFFFF DUP2 AND DUP6 DUP9 ADD MSTORE DUP2 DUP2 PUSH1 0x10 SHR AND ISZERO ISZERO DUP4 DUP9 ADD MSTORE PUSH1 0x18 SHR AND ISZERO ISZERO DUP3 DUP7 ADD MSTORE PUSH1 0x6 DUP7 ADD SWAP2 DUP2 MLOAD SWAP1 DUP2 SWAP6 PUSH2 0x19B2 PUSH2 0x19A6 DUP7 SLOAD DUP1 SWAP6 PUSH1 0x20 SWAP2 DUP2 MSTORE ADD SWAP1 JUMP JUMPDEST SWAP6 PUSH1 0x0 MSTORE PUSH1 0x20 PUSH1 0x0 KECCAK256 SWAP1 JUMP JUMPDEST SWAP2 PUSH1 0x0 SWAP3 JUMPDEST DUP5 PUSH1 0x7 DUP6 ADD LT PUSH2 0x1B27 JUMPI SWAP4 DUP8 SWAP4 DUP10 SWAP8 SWAP4 PUSH1 0x7 SWAP12 SWAP10 PUSH2 0x1A24 SWAP9 SWAP5 PUSH2 0x1A34 SWAP15 SWAP13 SWAP9 SLOAD SWAP6 DUP6 DUP6 LT PUSH2 0x1B11 JUMPI JUMPDEST DUP6 DUP6 LT PUSH2 0x1AF9 JUMPI JUMPDEST DUP6 DUP6 LT PUSH2 0x1ADF JUMPI JUMPDEST POP DUP5 DUP5 LT PUSH2 0x1ABA JUMPI JUMPDEST POP DUP4 DUP4 LT PUSH2 0x1A95 JUMPI JUMPDEST DUP4 DUP4 LT PUSH2 0x1A70 JUMPI JUMPDEST DUP4 DUP4 LT PUSH2 0x1A4B JUMPI JUMPDEST POP POP LT PUSH2 0x1A3D JUMPI JUMPDEST POP SWAP1 POP SUB DUP3 PUSH2 0xD56 JUMP JUMPDEST PUSH1 0x80 DUP3 ADD MSTORE PUSH1 0x80 DUP8 ADD MSTORE ADD PUSH2 0x1851 JUMP JUMPDEST PUSH1 0xA0 DUP5 ADD MSTORE ADD MSTORE JUMP JUMPDEST PUSH1 0xE0 SHR DUP2 MSTORE ADD DUP10 SWAP1 CODESIZE PUSH2 0x1A1A JUMP JUMPDEST SWAP1 SWAP2 SWAP5 PUSH2 0x1A66 DUP2 PUSH4 0xFFFFFFFF DUP8 PUSH1 0xC0 SHR AND PUSH4 0xFFFFFFFF AND SWAP1 MSTORE JUMP JUMPDEST ADD SWAP4 ADD CODESIZE DUP6 PUSH2 0x1A12 JUMP JUMPDEST DUP6 PUSH2 0x1A8B DUP4 SWAP5 SWAP8 PUSH4 0xFFFFFFFF DUP9 PUSH1 0xA0 SHR AND PUSH4 0xFFFFFFFF AND SWAP1 MSTORE JUMP JUMPDEST ADD SWAP5 ADD SWAP1 DUP6 PUSH2 0x1A0A JUMP JUMPDEST DUP6 PUSH2 0x1AB0 DUP4 SWAP5 SWAP8 PUSH4 0xFFFFFFFF DUP9 PUSH1 0x80 SHR AND PUSH4 0xFFFFFFFF AND SWAP1 MSTORE JUMP JUMPDEST ADD SWAP5 ADD SWAP1 DUP6 PUSH2 0x1A02 JUMP JUMPDEST SWAP6 PUSH2 0x1AD4 DUP2 PUSH4 0xFFFFFFFF DUP9 DUP7 SWAP8 SWAP11 SHR AND PUSH4 0xFFFFFFFF AND SWAP1 MSTORE JUMP JUMPDEST ADD SWAP5 ADD SWAP1 DUP6 CODESIZE PUSH2 0x19F9 JUMP JUMPDEST DUP7 SWAP1 SHR PUSH4 0xFFFFFFFF AND DUP8 MSTORE SWAP3 SWAP6 DUP3 SWAP1 DUP3 ADD SWAP7 ADD SWAP3 CODESIZE PUSH2 0x19F0 JUMP JUMPDEST PUSH4 0xFFFFFFFF DUP8 DUP5 SHR AND DUP9 MSTORE SWAP7 DUP3 ADD SWAP7 SWAP4 DUP4 ADD SWAP4 PUSH2 0x19E8 JUMP JUMPDEST PUSH4 0xFFFFFFFF DUP8 AND DUP9 MSTORE SWAP7 DUP3 ADD SWAP7 SWAP4 DUP4 ADD SWAP4 PUSH2 0x19E0 JUMP JUMPDEST SWAP7 SWAP2 PUSH2 0x100 DUP2 SWAP5 SWAP6 SWAP7 SWAP8 PUSH2 0x1BD4 PUSH1 0x8 SWAP5 SWAP6 PUSH2 0x1BC9 DUP13 SLOAD SWAP2 PUSH2 0x1B69 PUSH4 0xFFFFFFFF SWAP2 PUSH2 0x1B58 DUP8 DUP5 DUP8 AND PUSH4 0xFFFFFFFF AND SWAP1 MSTORE JUMP JUMPDEST PUSH4 0xFFFFFFFF DUP6 DUP3 SHR DUP5 AND AND SWAP1 DUP8 ADD MSTORE JUMP JUMPDEST PUSH4 0xFFFFFFFF DUP4 DUP15 SHR DUP3 AND AND DUP6 DUP15 ADD MSTORE PUSH4 0xFFFFFFFF DUP4 DUP11 SHR DUP3 AND AND DUP6 DUP11 ADD MSTORE PUSH2 0x1B9E PUSH1 0x80 DUP3 DUP6 DUP3 DUP10 ADD SWAP3 SHR AND PUSH4 0xFFFFFFFF AND SWAP1 MSTORE JUMP JUMPDEST PUSH2 0x1BB5 PUSH1 0xA0 DUP3 DUP6 DUP3 DUP10 ADD SWAP3 SHR AND PUSH4 0xFFFFFFFF AND SWAP1 MSTORE JUMP JUMPDEST PUSH1 0xC0 SWAP1 DUP4 DUP3 DUP8 ADD SWAP3 SHR AND PUSH4 0xFFFFFFFF AND SWAP1 MSTORE JUMP JUMPDEST PUSH1 0xE0 SWAP1 DUP2 SHR SWAP1 DUP4 ADD MSTORE JUMP JUMPDEST ADD SWAP8 ADD SWAP4 ADD SWAP2 SWAP1 DUP12 SWAP7 SWAP6 SWAP5 SWAP4 PUSH2 0x19B7 JUMP JUMPDEST POP CALLVALUE PUSH2 0x1ED JUMPI PUSH1 0x20 CALLDATASIZE PUSH1 0x3 NOT ADD SLT PUSH2 0x1ED JUMPI PUSH1 0x4 CALLDATALOAD PUSH1 0xCB SLOAD DUP2 LT ISZERO PUSH2 0x1ED JUMPI PUSH2 0x1C73 SWAP1 PUSH1 0xCB PUSH1 0x0 MSTORE PUSH1 0x4 SHL PUSH32 0xA7CE836D032B2BF62B7E2097A8E0A6D8AEB35405AD15271E96D3B0188A1D0709 PUSH2 0x1C5C DUP3 PUSH32 0xA7CE836D032B2BF62B7E2097A8E0A6D8AEB35405AD15271E96D3B0188A1D06FB ADD PUSH2 0x18F3 JUMP JUMPDEST SWAP2 ADD SLOAD PUSH1 0x40 MLOAD SWAP3 DUP4 SWAP3 PUSH1 0x40 DUP5 MSTORE PUSH1 0x40 DUP5 ADD SWAP1 PUSH2 0x79C JUMP JUMPDEST SWAP1 PUSH1 0x20 DUP4 ADD MSTORE SUB SWAP1 RETURN JUMPDEST POP CALLVALUE PUSH2 0x1ED JUMPI PUSH1 0x60 CALLDATASIZE PUSH1 0x3 NOT ADD SLT PUSH2 0x1ED JUMPI PUSH1 0x4 CALLDATALOAD PUSH2 0x1C9B DUP2 PUSH2 0x1DC JUMP JUMPDEST PUSH2 0x1CF8 PUSH1 0x24 CALLDATALOAD PUSH2 0x1CAA DUP2 PUSH2 0x1DC JUMP JUMPDEST PUSH1 0x44 CALLDATALOAD SWAP1 PUSH2 0x1CB7 DUP3 PUSH2 0x1DC JUMP JUMPDEST PUSH1 0x0 SLOAD SWAP4 PUSH2 0x1CDC PUSH1 0xFF DUP7 PUSH1 0x8 SHR AND ISZERO DUP1 SWAP7 DUP2 SWAP8 PUSH2 0x1D76 JUMPI JUMPDEST DUP2 ISZERO PUSH2 0x1D56 JUMPI JUMPDEST POP PUSH2 0x2386 JUMP JUMPDEST DUP5 PUSH2 0x1CEF PUSH1 0x1 PUSH1 0xFF NOT PUSH1 0x0 SLOAD AND OR PUSH1 0x0 SSTORE JUMP JUMPDEST PUSH2 0x1D3D JUMPI PUSH2 0x23E9 JUMP JUMPDEST PUSH2 0x1CFE JUMPI STOP JUMPDEST PUSH2 0x1D0E PUSH2 0xFF00 NOT PUSH1 0x0 SLOAD AND PUSH1 0x0 SSTORE JUMP JUMPDEST PUSH1 0x40 MLOAD PUSH1 0x1 DUP2 MSTORE PUSH32 0x7F26B83FF96E1F2B6A682F133852F6798A09C465DA95921460CEFB3847402498 SWAP1 PUSH1 0x20 SWAP1 LOG1 STOP JUMPDEST PUSH2 0x1D51 PUSH2 0x100 PUSH2 0xFF00 NOT PUSH1 0x0 SLOAD AND OR PUSH1 0x0 SSTORE JUMP JUMPDEST PUSH2 0x23E9 JUMP JUMPDEST ADDRESS EXTCODESIZE ISZERO SWAP2 POP DUP2 PUSH2 0x1D68 JUMPI JUMPDEST POP CODESIZE PUSH2 0x1CD6 JUMP JUMPDEST PUSH1 0x1 SWAP2 POP PUSH1 0xFF AND EQ CODESIZE PUSH2 0x1D61 JUMP JUMPDEST PUSH1 0x1 PUSH1 0xFF DUP3 AND LT SWAP2 POP PUSH2 0x1CCF JUMP JUMPDEST POP PUSH1 0x60 CALLDATASIZE PUSH1 0x3 NOT ADD SLT PUSH2 0x1ED JUMPI PUSH1 0x4 CALLDATALOAD PUSH2 0x1D9D DUP2 PUSH2 0x1DC JUMP JUMPDEST PUSH2 0x1DA8 PUSH1 0x24 CALLDATALOAD PUSH2 0x41D JUMP JUMPDEST PUSH1 0x44 CALLDATALOAD PUSH1 0x1 PUSH1 0x1 PUSH1 0x40 SHL SUB DUP2 GT PUSH2 0x1ED JUMPI PUSH2 0x310 PUSH2 0x1DCA SWAP2 CALLDATASIZE SWAP1 PUSH1 0x4 ADD PUSH2 0x1FF JUMP JUMPDEST PUSH32 0x2849B43074093A05396B6F2A937DEE8565B15A48A7B3D4BFFB732A5017380AF5 PUSH1 0x40 MLOAD SWAP3 PUSH1 0x1 DUP1 PUSH1 0xA0 SHL SUB AND SWAP3 DUP1 PUSH2 0x4A4 CALLER SWAP5 CALLVALUE DUP4 PUSH2 0x2AB5 JUMP JUMPDEST POP CALLVALUE PUSH2 0x1ED JUMPI PUSH1 0x20 CALLDATASIZE PUSH1 0x3 NOT ADD SLT PUSH2 0x1ED JUMPI PUSH1 0x4 CALLDATALOAD PUSH2 0x1E23 DUP2 PUSH2 0x1DC JUMP JUMPDEST PUSH2 0x1E2B PUSH2 0x1EDF JUMP JUMPDEST PUSH1 0xFE DUP1 SLOAD PUSH1 0x1 PUSH1 0x1 PUSH1 0xA0 SHL SUB NOT AND PUSH1 0x1 PUSH1 0x1 PUSH1 0xA0 SHL SUB SWAP3 SWAP1 SWAP3 AND SWAP2 SWAP1 SWAP2 OR SWAP1 SSTORE STOP JUMPDEST POP CALLVALUE PUSH2 0x1ED JUMPI PUSH1 0x20 CALLDATASIZE PUSH1 0x3 NOT ADD SLT PUSH2 0x1ED JUMPI PUSH1 0x4 CALLDATALOAD PUSH2 0x1E6B DUP2 PUSH2 0x1DC JUMP JUMPDEST PUSH2 0x1E73 PUSH2 0x1EDF JUMP JUMPDEST PUSH1 0x1 PUSH1 0x1 PUSH1 0xA0 SHL SUB DUP2 AND ISZERO PUSH2 0x1E8B JUMPI PUSH2 0x19 SWAP1 PUSH2 0x1F37 JUMP JUMPDEST PUSH1 0x40 MLOAD PUSH3 0x461BCD PUSH1 0xE5 SHL DUP2 MSTORE PUSH1 0x20 PUSH1 0x4 DUP3 ADD MSTORE PUSH1 0x26 PUSH1 0x24 DUP3 ADD MSTORE PUSH32 0x4F776E61626C653A206E6577206F776E657220697320746865207A65726F2061 PUSH1 0x44 DUP3 ADD MSTORE PUSH6 0x646472657373 PUSH1 0xD0 SHL PUSH1 0x64 DUP3 ADD MSTORE PUSH1 0x84 SWAP1 REVERT JUMPDEST PUSH1 0x33 SLOAD PUSH1 0x1 PUSH1 0x1 PUSH1 0xA0 SHL SUB AND CALLER SUB PUSH2 0x1EF3 JUMPI JUMP JUMPDEST PUSH1 0x64 PUSH1 0x40 MLOAD PUSH3 0x461BCD PUSH1 0xE5 SHL DUP2 MSTORE PUSH1 0x20 PUSH1 0x4 DUP3 ADD MSTORE PUSH1 0x20 PUSH1 0x24 DUP3 ADD MSTORE PUSH32 0x4F776E61626C653A2063616C6C6572206973206E6F7420746865206F776E6572 PUSH1 0x44 DUP3 ADD MSTORE REVERT JUMPDEST PUSH1 0x33 DUP1 SLOAD PUSH1 0x1 PUSH1 0x1 PUSH1 0xA0 SHL SUB SWAP3 DUP4 AND PUSH1 0x1 PUSH1 0x1 PUSH1 0xA0 SHL SUB NOT DUP3 AND DUP2 OR SWAP1 SWAP3 SSTORE SWAP1 SWAP2 AND PUSH32 0x8BE0079C531659141344CD1FD0A4F28419497F9722A3DAAFE3B4186F6B6457E0 PUSH1 0x0 DUP1 LOG3 JUMP JUMPDEST ISZERO PUSH2 0x1F87 JUMPI JUMP JUMPDEST PUSH1 0x40 MLOAD PUSH3 0x461BCD PUSH1 0xE5 SHL DUP2 MSTORE PUSH1 0x20 PUSH1 0x4 DUP3 ADD MSTORE PUSH1 0x2C PUSH1 0x24 DUP3 ADD MSTORE PUSH32 0x46756E6374696F6E206D7573742062652063616C6C6564207468726F75676820 PUSH1 0x44 DUP3 ADD MSTORE PUSH12 0x19195B1959D85D1958D85B1B PUSH1 0xA2 SHL PUSH1 0x64 DUP3 ADD MSTORE PUSH1 0x84 SWAP1 REVERT JUMPDEST ISZERO PUSH2 0x1FE8 JUMPI JUMP JUMPDEST PUSH1 0x40 MLOAD PUSH3 0x461BCD PUSH1 0xE5 SHL DUP2 MSTORE PUSH1 0x20 PUSH1 0x4 DUP3 ADD MSTORE PUSH1 0x2C PUSH1 0x24 DUP3 ADD MSTORE PUSH32 0x46756E6374696F6E206D7573742062652063616C6C6564207468726F75676820 PUSH1 0x44 DUP3 ADD MSTORE PUSH12 0x6163746976652070726F7879 PUSH1 0xA0 SHL PUSH1 0x64 DUP3 ADD MSTORE PUSH1 0x84 SWAP1 REVERT JUMPDEST PUSH1 0x40 MLOAD SWAP1 PUSH2 0x204F DUP3 PUSH2 0xD3B JUMP JUMPDEST PUSH1 0x0 DUP3 MSTORE JUMP JUMPDEST SWAP1 DUP2 PUSH1 0x20 SWAP2 SUB SLT PUSH2 0x1ED JUMPI MLOAD SWAP1 JUMP JUMPDEST POP PUSH1 0x40 MLOAD RETURNDATASIZE PUSH1 0x0 DUP3 RETURNDATACOPY RETURNDATASIZE SWAP1 REVERT JUMPDEST ISZERO PUSH2 0x2078 JUMPI JUMP JUMPDEST PUSH1 0x40 MLOAD PUSH3 0x461BCD PUSH1 0xE5 SHL DUP2 MSTORE PUSH1 0x20 PUSH1 0x4 DUP3 ADD MSTORE PUSH1 0x29 PUSH1 0x24 DUP3 ADD MSTORE PUSH32 0x45524331393637557067726164653A20756E737570706F727465642070726F78 PUSH1 0x44 DUP3 ADD MSTORE PUSH9 0x1A58589B1955555251 PUSH1 0xBA SHL PUSH1 0x64 DUP3 ADD MSTORE PUSH1 0x84 SWAP1 REVERT JUMPDEST PUSH1 0x80 SWAP1 PUSH1 0x20 DUP2 MSTORE PUSH1 0x2E PUSH1 0x20 DUP3 ADD MSTORE PUSH32 0x45524331393637557067726164653A206E657720696D706C656D656E74617469 PUSH1 0x40 DUP3 ADD MSTORE PUSH14 0x6F6E206973206E6F742055555053 PUSH1 0x90 SHL PUSH1 0x60 DUP3 ADD MSTORE ADD SWAP1 JUMP JUMPDEST DUP1 EXTCODESIZE ISZERO PUSH2 0x2153 JUMPI PUSH1 0x0 DUP1 MLOAD PUSH1 0x20 PUSH2 0x3DA4 DUP4 CODECOPY DUP2 MLOAD SWAP2 MSTORE DUP1 SLOAD PUSH1 0x1 PUSH1 0x1 PUSH1 0xA0 SHL SUB NOT AND PUSH1 0x1 PUSH1 0x1 PUSH1 0xA0 SHL SUB SWAP1 SWAP3 AND SWAP2 SWAP1 SWAP2 OR SWAP1 SSTORE JUMP JUMPDEST PUSH1 0x40 MLOAD PUSH3 0x461BCD PUSH1 0xE5 SHL DUP2 MSTORE PUSH1 0x20 PUSH1 0x4 DUP3 ADD MSTORE PUSH1 0x2D PUSH1 0x24 DUP3 ADD MSTORE PUSH32 0x455243313936373A206E657720696D706C656D656E746174696F6E206973206E PUSH1 0x44 DUP3 ADD MSTORE PUSH13 0x1BDD08184818DBDB9D1C9858DD PUSH1 0x9A SHL PUSH1 0x64 DUP3 ADD MSTORE PUSH1 0x84 SWAP1 REVERT JUMPDEST SWAP1 PUSH2 0x21B8 DUP3 PUSH2 0x211E JUMP JUMPDEST PUSH1 0x1 PUSH1 0x1 PUSH1 0xA0 SHL SUB DUP3 AND PUSH32 0xBC7CD75A20EE27FD9ADEBAB32041F755214DBC6BFFA90CC0225B39DA2E5C2D3B PUSH1 0x0 DUP1 LOG2 DUP1 MLOAD ISZERO DUP1 ISZERO SWAP1 PUSH2 0x2262 JUMPI JUMPDEST PUSH2 0x21FA JUMPI POP POP JUMP JUMPDEST PUSH2 0x225F SWAP2 PUSH1 0x0 DUP1 PUSH1 0x40 MLOAD SWAP4 PUSH2 0x220E DUP6 PUSH2 0xC98 JUMP JUMPDEST PUSH1 0x27 DUP6 MSTORE PUSH32 0x416464726573733A206C6F772D6C6576656C2064656C65676174652063616C6C PUSH1 0x20 DUP7 ADD MSTORE PUSH7 0x819985A5B1959 PUSH1 0xCA SHL PUSH1 0x40 DUP7 ADD MSTORE PUSH1 0x20 DUP2 MLOAD SWAP2 ADD DUP5 GAS DELEGATECALL PUSH2 0x2259 PUSH2 0x22BD JUMP JUMPDEST SWAP2 PUSH2 0x22ED JUMP JUMPDEST POP JUMP JUMPDEST POP PUSH1 0x0 PUSH2 0x21F2 JUMP JUMPDEST SWAP1 PUSH2 0x2274 DUP3 PUSH2 0x211E JUMP JUMPDEST PUSH1 0x1 PUSH1 0x1 PUSH1 0xA0 SHL SUB DUP3 AND PUSH32 0xBC7CD75A20EE27FD9ADEBAB32041F755214DBC6BFFA90CC0225B39DA2E5C2D3B PUSH1 0x0 DUP1 LOG2 DUP1 MLOAD ISZERO DUP1 ISZERO SWAP1 PUSH2 0x22B5 JUMPI PUSH2 0x21FA JUMPI POP POP JUMP JUMPDEST POP PUSH1 0x1 PUSH2 0x21F2 JUMP JUMPDEST RETURNDATASIZE ISZERO PUSH2 0x22E8 JUMPI RETURNDATASIZE SWAP1 PUSH2 0x22CE DUP3 PUSH2 0xD91 JUMP JUMPDEST SWAP2 PUSH2 0x22DC PUSH1 0x40 MLOAD SWAP4 DUP5 PUSH2 0xD56 JUMP JUMPDEST DUP3 MSTORE RETURNDATASIZE PUSH1 0x0 PUSH1 0x20 DUP5 ADD RETURNDATACOPY JUMP JUMPDEST PUSH1 0x60 SWAP1 JUMP JUMPDEST SWAP2 SWAP3 SWAP1 ISZERO PUSH2 0x234F JUMPI POP DUP2 MLOAD ISZERO PUSH2 0x2301 JUMPI POP SWAP1 JUMP JUMPDEST EXTCODESIZE ISZERO PUSH2 0x230A JUMPI SWAP1 JUMP JUMPDEST PUSH1 0x40 MLOAD PUSH3 0x461BCD PUSH1 0xE5 SHL DUP2 MSTORE PUSH1 0x20 PUSH1 0x4 DUP3 ADD MSTORE PUSH1 0x1D PUSH1 0x24 DUP3 ADD MSTORE PUSH32 0x416464726573733A2063616C6C20746F206E6F6E2D636F6E7472616374000000 PUSH1 0x44 DUP3 ADD MSTORE PUSH1 0x64 SWAP1 REVERT JUMPDEST DUP3 MLOAD SWAP1 SWAP2 POP ISZERO PUSH2 0x2362 JUMPI POP DUP1 MLOAD SWAP1 PUSH1 0x20 ADD REVERT JUMPDEST PUSH1 0x40 MLOAD PUSH3 0x461BCD PUSH1 0xE5 SHL DUP2 MSTORE PUSH1 0x20 PUSH1 0x4 DUP3 ADD MSTORE SWAP1 DUP2 SWAP1 PUSH2 0xC1A SWAP1 PUSH1 0x24 DUP4 ADD SWAP1 PUSH2 0x615 JUMP JUMPDEST ISZERO PUSH2 0x238D JUMPI JUMP JUMPDEST PUSH1 0x40 MLOAD PUSH3 0x461BCD PUSH1 0xE5 SHL DUP2 MSTORE PUSH1 0x20 PUSH1 0x4 DUP3 ADD MSTORE PUSH1 0x2E PUSH1 0x24 DUP3 ADD MSTORE PUSH32 0x496E697469616C697A61626C653A20636F6E747261637420697320616C726561 PUSH1 0x44 DUP3 ADD MSTORE PUSH14 0x191E481A5B9A5D1A585B1A5E9959 PUSH1 0x92 SHL PUSH1 0x64 DUP3 ADD MSTORE PUSH1 0x84 SWAP1 REVERT JUMPDEST SWAP2 SWAP1 PUSH2 0x2405 PUSH1 0xFF PUSH1 0x0 SLOAD PUSH1 0x8 SHR AND PUSH2 0x2400 DUP2 PUSH2 0x2466 JUMP JUMPDEST PUSH2 0x2466 JUMP JUMPDEST PUSH2 0x240E CALLER PUSH2 0x1F37 JUMP JUMPDEST PUSH2 0x241F PUSH1 0xFF PUSH1 0x0 SLOAD PUSH1 0x8 SHR AND PUSH2 0x2466 JUMP JUMPDEST PUSH1 0x1 DUP1 PUSH1 0xA0 SHL SUB DUP1 SWAP3 DUP2 PUSH12 0xFFFFFFFFFFFFFFFFFFFFFFFF PUSH1 0xA0 SHL SWAP4 AND DUP4 PUSH1 0xC9 SLOAD AND OR PUSH1 0xC9 SSTORE AND SWAP1 PUSH1 0xCA SLOAD AND OR PUSH1 0xCA SSTORE PUSH2 0x2456 PUSH2 0x1EDF JUMP JUMPDEST DUP2 AND ISZERO PUSH2 0x1E8B JUMPI PUSH2 0x1FD SWAP1 PUSH2 0x1F37 JUMP JUMPDEST ISZERO PUSH2 0x246D JUMPI JUMP JUMPDEST PUSH1 0x40 MLOAD PUSH3 0x461BCD PUSH1 0xE5 SHL DUP2 MSTORE PUSH1 0x20 PUSH1 0x4 DUP3 ADD MSTORE PUSH1 0x2B PUSH1 0x24 DUP3 ADD MSTORE PUSH32 0x496E697469616C697A61626C653A20636F6E7472616374206973206E6F742069 PUSH1 0x44 DUP3 ADD MSTORE PUSH11 0x6E697469616C697A696E67 PUSH1 0xA8 SHL PUSH1 0x64 DUP3 ADD MSTORE PUSH1 0x84 SWAP1 REVERT JUMPDEST ISZERO PUSH2 0x24CD JUMPI JUMP JUMPDEST PUSH1 0x40 MLOAD PUSH3 0x461BCD PUSH1 0xE5 SHL DUP2 MSTORE PUSH1 0x20 PUSH1 0x4 DUP3 ADD MSTORE PUSH1 0x37 PUSH1 0x24 DUP3 ADD MSTORE PUSH32 0x466972656C696E6B4272696467653A2066756E6374696F6E2063616E206F6E6C PUSH1 0x44 DUP3 ADD MSTORE PUSH32 0x792062652063616C6C65642066726F6D20616E20454F41000000000000000000 PUSH1 0x64 DUP3 ADD MSTORE PUSH1 0x84 SWAP1 REVERT JUMPDEST ISZERO PUSH2 0x253F JUMPI JUMP JUMPDEST PUSH1 0x40 MLOAD PUSH3 0x461BCD PUSH1 0xE5 SHL DUP2 MSTORE PUSH1 0x20 PUSH1 0x4 DUP3 ADD MSTORE PUSH1 0x23 PUSH1 0x24 DUP3 ADD MSTORE PUSH32 0x466972656C696E6B4272696467653A2063616E6E6F742073656E6420746F2073 PUSH1 0x44 DUP3 ADD MSTORE PUSH3 0x32B633 PUSH1 0xE9 SHL PUSH1 0x64 DUP3 ADD MSTORE PUSH1 0x84 SWAP1 REVERT JUMPDEST ISZERO PUSH2 0x2597 JUMPI JUMP JUMPDEST PUSH1 0x40 MLOAD PUSH3 0x461BCD PUSH1 0xE5 SHL DUP2 MSTORE PUSH1 0x20 PUSH1 0x4 DUP3 ADD MSTORE PUSH1 0x28 PUSH1 0x24 DUP3 ADD MSTORE PUSH32 0x466972656C696E6B4272696467653A2063616E6E6F742073656E6420746F206D PUSH1 0x44 DUP3 ADD MSTORE PUSH8 0x32B9B9B2B733B2B9 PUSH1 0xC1 SHL PUSH1 0x64 DUP3 ADD MSTORE PUSH1 0x84 SWAP1 REVERT JUMPDEST ISZERO PUSH2 0x25F4 JUMPI JUMP JUMPDEST PUSH1 0x40 MLOAD PUSH3 0x461BCD PUSH1 0xE5 SHL DUP2 MSTORE PUSH1 0x20 PUSH1 0x4 DUP3 ADD MSTORE PUSH1 0x23 PUSH1 0x24 DUP3 ADD MSTORE PUSH32 0x466972656C696E6B4272696467653A20455448207472616E7366657220666169 PUSH1 0x44 DUP3 ADD MSTORE PUSH3 0x1B1959 PUSH1 0xEA SHL PUSH1 0x64 DUP3 ADD MSTORE PUSH1 0x84 SWAP1 REVERT JUMPDEST POP PUSH4 0x4E487B71 PUSH1 0xE0 SHL PUSH1 0x0 MSTORE PUSH1 0x11 PUSH1 0x4 MSTORE PUSH1 0x24 PUSH1 0x0 REVERT JUMPDEST SWAP2 SWAP1 DUP3 SUB SWAP2 DUP3 GT PUSH2 0x2669 JUMPI JUMP JUMPDEST PUSH2 0x1FD PUSH2 0x2645 JUMP JUMPDEST ISZERO PUSH2 0x2678 JUMPI JUMP JUMPDEST PUSH1 0x40 MLOAD PUSH3 0x461BCD PUSH1 0xE5 SHL DUP2 MSTORE PUSH1 0x20 PUSH1 0x4 DUP3 ADD MSTORE PUSH1 0x4A PUSH1 0x24 DUP3 ADD MSTORE PUSH32 0x466972656C696E6B4272696467653A2077726F6E672072656D6F746520746F6B PUSH1 0x44 DUP3 ADD MSTORE PUSH32 0x656E20666F7220466972656C696E6B204D696E7461626C65204552433230206C PUSH1 0x64 DUP3 ADD MSTORE PUSH10 0x37B1B0B6103A37B5B2B7 PUSH1 0xB1 SHL PUSH1 0x84 DUP3 ADD MSTORE PUSH1 0xA4 SWAP1 REVERT JUMPDEST PUSH1 0x40 MLOAD PUSH4 0xA9059CBB PUSH1 0xE0 SHL PUSH1 0x20 DUP3 ADD MSTORE PUSH1 0x1 PUSH1 0x1 PUSH1 0xA0 SHL SUB SWAP3 SWAP1 SWAP3 AND PUSH1 0x24 DUP4 ADD MSTORE PUSH1 0x44 DUP1 DUP4 ADD SWAP4 SWAP1 SWAP4 MSTORE SWAP2 DUP2 MSTORE PUSH2 0x1FD SWAP2 PUSH2 0x2732 PUSH1 0x64 DUP4 PUSH2 0xD56 JUMP JUMPDEST PUSH2 0x2756 JUMP JUMPDEST DUP1 ISZERO ISZERO SUB PUSH2 0x1ED JUMPI JUMP JUMPDEST SWAP1 DUP2 PUSH1 0x20 SWAP2 SUB SLT PUSH2 0x1ED JUMPI MLOAD PUSH2 0x799 DUP2 PUSH2 0x2737 JUMP JUMPDEST PUSH1 0x40 MLOAD PUSH2 0x27AE SWAP2 PUSH1 0x1 PUSH1 0x1 PUSH1 0xA0 SHL SUB AND PUSH2 0x276F DUP3 PUSH2 0xCB3 JUMP JUMPDEST PUSH1 0x0 DUP1 PUSH1 0x20 SWAP6 DUP7 DUP6 MSTORE PUSH32 0x5361666545524332303A206C6F772D6C6576656C2063616C6C206661696C6564 DUP8 DUP7 ADD MSTORE DUP7 DUP2 MLOAD SWAP2 ADD DUP3 DUP6 GAS CALL PUSH2 0x2259 PUSH2 0x22BD JUMP JUMPDEST DUP1 MLOAD SWAP1 DUP3 DUP3 ISZERO SWAP3 DUP4 ISZERO PUSH2 0x281E JUMPI JUMPDEST POP POP POP ISZERO PUSH2 0x27C7 JUMPI POP JUMP JUMPDEST PUSH1 0x84 SWAP1 PUSH1 0x40 MLOAD SWAP1 PUSH3 0x461BCD PUSH1 0xE5 SHL DUP3 MSTORE PUSH1 0x4 DUP3 ADD MSTORE PUSH1 0x2A PUSH1 0x24 DUP3 ADD MSTORE PUSH32 0x5361666545524332303A204552433230206F7065726174696F6E20646964206E PUSH1 0x44 DUP3 ADD MSTORE PUSH10 0x1BDD081CDD58D8D95959 PUSH1 0xB2 SHL PUSH1 0x64 DUP3 ADD MSTORE REVERT JUMPDEST PUSH2 0x282E SWAP4 POP DUP3 ADD DUP2 ADD SWAP2 ADD PUSH2 0x2741 JUMP JUMPDEST CODESIZE DUP3 DUP2 PUSH2 0x27BC JUMP JUMPDEST SWAP2 SWAP1 DUP3 ADD DUP1 SWAP3 GT PUSH2 0x2669 JUMPI JUMP JUMPDEST PUSH1 0x40 MLOAD PUSH4 0x23B872DD PUSH1 0xE0 SHL PUSH1 0x20 DUP3 ADD MSTORE PUSH1 0x1 PUSH1 0x1 PUSH1 0xA0 SHL SUB SWAP3 DUP4 AND PUSH1 0x24 DUP3 ADD MSTORE SWAP3 SWAP1 SWAP2 AND PUSH1 0x44 DUP4 ADD MSTORE PUSH1 0x64 DUP1 DUP4 ADD SWAP4 SWAP1 SWAP4 MSTORE SWAP2 DUP2 MSTORE PUSH2 0x1FD SWAP2 PUSH2 0x2732 DUP3 PUSH2 0xCE9 JUMP JUMPDEST PUSH2 0x288E DUP2 PUSH2 0x2925 JUMP JUMPDEST SWAP1 DUP2 ISZERO PUSH2 0x2899 JUMPI POP SWAP1 JUMP JUMPDEST SWAP1 POP PUSH2 0x28A4 DUP2 PUSH2 0x2982 JUMP JUMPDEST SWAP1 DUP2 PUSH2 0x2913 JUMPI JUMPDEST DUP2 PUSH2 0x28B4 JUMPI POP SWAP1 JUMP JUMPDEST PUSH1 0x20 SWAP2 POP PUSH1 0x0 SWAP1 PUSH1 0x40 MLOAD DUP4 DUP2 ADD SWAP1 PUSH4 0x1FFC9A7 PUSH1 0xE0 SHL DUP3 MSTORE PUSH4 0xEC4FC8E3 PUSH1 0xE0 SHL PUSH1 0x24 DUP3 ADD MSTORE PUSH1 0x24 DUP2 MSTORE PUSH2 0x28E6 DUP2 PUSH2 0xC98 JUMP JUMPDEST MLOAD SWAP2 PUSH2 0x7530 STATICCALL PUSH1 0x0 MLOAD RETURNDATASIZE DUP3 PUSH2 0x2907 JUMPI JUMPDEST POP DUP2 PUSH2 0x2900 JUMPI POP SWAP1 JUMP JUMPDEST SWAP1 POP ISZERO ISZERO SWAP1 JUMP JUMPDEST PUSH1 0x20 GT ISZERO SWAP2 POP CODESIZE PUSH2 0x28F6 JUMP JUMPDEST SWAP1 POP PUSH2 0x291E DUP2 PUSH2 0x29AB JUMP JUMPDEST ISZERO SWAP1 PUSH2 0x28AB JUMP JUMPDEST PUSH2 0x292E DUP2 PUSH2 0x2982 JUMP JUMPDEST SWAP1 DUP2 PUSH2 0x2970 JUMPI JUMPDEST DUP2 PUSH2 0x293E JUMPI POP SWAP1 JUMP JUMPDEST PUSH1 0x20 SWAP2 POP PUSH1 0x0 SWAP1 PUSH1 0x40 MLOAD DUP4 DUP2 ADD SWAP1 PUSH4 0x1FFC9A7 PUSH1 0xE0 SHL DUP3 MSTORE PUSH4 0x1D1D8B63 PUSH1 0xE0 SHL PUSH1 0x24 DUP3 ADD MSTORE PUSH1 0x24 DUP2 MSTORE PUSH2 0x28E6 DUP2 PUSH2 0xC98 JUMP JUMPDEST SWAP1 POP PUSH2 0x297B DUP2 PUSH2 0x29AB JUMP JUMPDEST ISZERO SWAP1 PUSH2 0x2935 JUMP JUMPDEST PUSH1 0x0 PUSH1 0x20 SWAP2 PUSH1 0x40 MLOAD DUP4 DUP2 ADD SWAP1 PUSH4 0x1FFC9A7 PUSH1 0xE0 SHL DUP1 DUP4 MSTORE PUSH1 0x24 DUP3 ADD MSTORE PUSH1 0x24 DUP2 MSTORE PUSH2 0x28E6 DUP2 PUSH2 0xC98 JUMP JUMPDEST PUSH1 0x0 PUSH1 0x20 SWAP2 PUSH1 0x40 MLOAD DUP4 DUP2 ADD SWAP1 PUSH4 0x1FFC9A7 PUSH1 0xE0 SHL DUP3 MSTORE PUSH4 0xFFFFFFFF PUSH1 0xE0 SHL PUSH1 0x24 DUP3 ADD MSTORE PUSH1 0x24 DUP2 MSTORE PUSH2 0x28E6 DUP2 PUSH2 0xC98 JUMP JUMPDEST SWAP1 DUP2 PUSH1 0x20 SWAP2 SUB SLT PUSH2 0x1ED JUMPI MLOAD PUSH2 0x799 DUP2 PUSH2 0x1DC JUMP JUMPDEST PUSH2 0x29F9 DUP2 PUSH2 0x2925 JUMP JUMPDEST ISZERO PUSH2 0x2A78 JUMPI PUSH1 0x40 MLOAD PUSH4 0x600F0DEB PUSH1 0xE1 SHL DUP2 MSTORE PUSH1 0x1 PUSH1 0x1 PUSH1 0xA0 SHL SUB SWAP2 DUP3 SWAP2 SWAP1 PUSH1 0x20 SWAP1 DUP3 SWAP1 PUSH1 0x4 SWAP1 DUP3 SWAP1 DUP7 AND GAS STATICCALL SWAP1 DUP2 ISZERO PUSH2 0x2A6B JUMPI JUMPDEST PUSH1 0x0 SWAP2 PUSH2 0x2A3D JUMPI JUMPDEST POP AND SWAP2 AND EQ SWAP1 JUMP JUMPDEST PUSH2 0x2A5E SWAP2 POP PUSH1 0x20 RETURNDATASIZE DUP2 GT PUSH2 0x2A64 JUMPI JUMPDEST PUSH2 0x2A56 DUP2 DUP4 PUSH2 0xD56 JUMP JUMPDEST DUP2 ADD SWAP1 PUSH2 0x29DB JUMP JUMPDEST CODESIZE PUSH2 0x2A35 JUMP JUMPDEST POP RETURNDATASIZE PUSH2 0x2A4C JUMP JUMPDEST PUSH2 0x2A73 PUSH2 0x2064 JUMP JUMPDEST PUSH2 0x2A2D JUMP JUMPDEST PUSH1 0x40 MLOAD PUSH4 0x35B02CB1 PUSH1 0xE2 SHL DUP2 MSTORE PUSH1 0x1 PUSH1 0x1 PUSH1 0xA0 SHL SUB SWAP2 DUP3 SWAP2 SWAP1 PUSH1 0x20 SWAP1 DUP3 SWAP1 PUSH1 0x4 SWAP1 DUP3 SWAP1 DUP7 AND GAS STATICCALL SWAP1 DUP2 ISZERO PUSH2 0x2A6B JUMPI PUSH1 0x0 SWAP2 PUSH2 0x2A3D JUMPI POP AND SWAP2 AND EQ SWAP1 JUMP JUMPDEST PUSH1 0x40 SWAP1 PUSH2 0x799 SWAP4 SWAP3 DUP2 MSTORE DUP2 PUSH1 0x20 DUP3 ADD MSTORE ADD SWAP1 PUSH2 0x615 JUMP JUMPDEST PUSH1 0x40 MLOAD PUSH1 0x1 PUSH1 0x1 PUSH1 0xA0 SHL SUB SWAP3 DUP4 AND SWAP5 SWAP3 SWAP1 SWAP2 AND SWAP3 PUSH32 0x31B2166FF604FC5672EA5DF08A78081D2BC6D746CADCE880747F3643D819E83D SWAP3 DUP3 SWAP2 PUSH2 0x2B0F SWAP2 SWAP1 DUP4 PUSH2 0x2AB5 JUMP JUMPDEST SUB SWAP1 LOG3 JUMP JUMPDEST PUSH2 0x799 SWAP4 SWAP3 PUSH1 0x60 SWAP3 PUSH1 0x1 DUP1 PUSH1 0xA0 SHL SUB AND DUP3 MSTORE PUSH1 0x20 DUP3 ADD MSTORE DUP2 PUSH1 0x40 DUP3 ADD MSTORE ADD SWAP1 PUSH2 0x615 JUMP JUMPDEST PUSH1 0x40 MLOAD PUSH1 0x1 PUSH1 0x1 PUSH1 0xA0 SHL SUB SWAP4 DUP5 AND SWAP7 SWAP3 DUP5 AND SWAP6 SWAP2 SWAP1 SWAP4 AND SWAP4 PUSH32 0x7FF126DB8024424BBFD9826E8AB82FF59136289EA440B04B39A0DF1B03B9CABF SWAP4 SWAP3 DUP4 SWAP3 PUSH2 0x2B7F SWAP3 DUP5 PUSH2 0x2B14 JUMP JUMPDEST SUB SWAP1 LOG4 JUMP JUMPDEST PUSH1 0x40 MLOAD PUSH1 0x1 PUSH1 0x1 PUSH1 0xA0 SHL SUB SWAP4 DUP5 AND SWAP7 SWAP3 DUP5 AND SWAP6 SWAP2 SWAP1 SWAP4 AND SWAP4 PUSH32 0xD59C65B35445225835C83F50B6EDE06A7BE047D22E357073E250D9AF537518CD SWAP4 SWAP3 DUP4 SWAP3 PUSH2 0x2B7F SWAP3 DUP5 PUSH2 0x2B14 JUMP JUMPDEST SWAP1 PUSH1 0x0 SWAP4 SWAP2 SWAP3 DUP5 SWAP4 PUSH1 0x20 DUP5 MLOAD SWAP5 ADD SWAP3 CALL SWAP1 JUMP JUMPDEST SWAP1 CALLDATALOAD PUSH1 0x1E NOT DUP3 CALLDATASIZE SUB ADD DUP2 SLT ISZERO PUSH2 0x1ED JUMPI ADD PUSH1 0x20 DUP2 CALLDATALOAD SWAP2 ADD SWAP2 PUSH1 0x1 PUSH1 0x1 PUSH1 0x40 SHL SUB DUP3 GT PUSH2 0x1ED JUMPI DUP2 PUSH1 0x5 SHL CALLDATASIZE SUB DUP4 SGT PUSH2 0x1ED JUMPI JUMP JUMPDEST DUP2 DUP4 MSTORE SWAP1 SWAP2 PUSH1 0x1 PUSH1 0x1 PUSH1 0xFB SHL SUB DUP4 GT PUSH2 0x1ED JUMPI PUSH1 0x20 SWAP3 PUSH1 0x5 SHL DUP1 SWAP3 DUP5 DUP4 ADD CALLDATACOPY ADD ADD SWAP1 JUMP JUMPDEST PUSH1 0x1 PUSH1 0x1 PUSH1 0x40 SHL SUB DUP2 AND SUB PUSH2 0x1ED JUMPI JUMP JUMPDEST CALLDATALOAD SWAP1 PUSH2 0x1FD DUP3 PUSH2 0x2C36 JUMP JUMPDEST SWAP1 CALLDATALOAD PUSH1 0x9E NOT DUP3 CALLDATASIZE SUB ADD DUP2 SLT ISZERO PUSH2 0x1ED JUMPI ADD SWAP1 JUMP JUMPDEST PUSH2 0xFFFF DUP2 AND SUB PUSH2 0x1ED JUMPI JUMP JUMPDEST CALLDATALOAD SWAP1 PUSH2 0x1FD DUP3 PUSH2 0x2737 JUMP JUMPDEST SWAP1 CALLDATALOAD PUSH2 0x11E NOT DUP3 CALLDATASIZE SUB ADD DUP2 SLT ISZERO PUSH2 0x1ED JUMPI ADD SWAP1 JUMP JUMPDEST SWAP1 CALLDATALOAD PUSH1 0x1E NOT DUP3 CALLDATASIZE SUB ADD DUP2 SLT ISZERO PUSH2 0x1ED JUMPI ADD PUSH1 0x20 DUP2 CALLDATALOAD SWAP2 ADD SWAP2 PUSH1 0x1 PUSH1 0x1 PUSH1 0x40 SHL SUB DUP3 GT PUSH2 0x1ED JUMPI DUP2 CALLDATASIZE SUB DUP4 SGT PUSH2 0x1ED JUMPI JUMP JUMPDEST SWAP1 DUP1 PUSH1 0x20 SWAP4 SWAP3 DUP2 DUP5 MSTORE DUP5 DUP5 ADD CALLDATACOPY PUSH1 0x0 DUP3 DUP3 ADD DUP5 ADD MSTORE PUSH1 0x1F ADD PUSH1 0x1F NOT AND ADD ADD SWAP1 JUMP JUMPDEST PUSH1 0xFF DUP2 AND SUB PUSH2 0x1ED JUMPI JUMP JUMPDEST CALLDATALOAD SWAP1 PUSH2 0x1FD DUP3 PUSH2 0x2CE4 JUMP JUMPDEST SWAP1 DUP1 DUP4 MSTORE PUSH1 0x20 DUP1 SWAP4 ADD SWAP3 DUP4 DUP3 PUSH1 0x5 SHL DUP2 ADD SWAP5 DUP5 PUSH1 0x0 SWAP3 JUMPDEST DUP6 DUP5 LT PUSH2 0x2D22 JUMPI POP POP POP POP POP POP POP SWAP1 JUMP JUMPDEST SWAP1 SWAP2 SWAP3 SWAP4 SWAP5 SWAP6 SWAP7 DUP6 DUP1 DUP3 DUP5 PUSH1 0x1 SWAP5 SUB DUP8 MSTORE PUSH2 0x2D3D DUP12 DUP8 PUSH2 0x2C52 JUMP JUMPDEST SWAP1 PUSH4 0xFFFFFFFF DUP3 CALLDATALOAD PUSH2 0x2D4E DUP2 PUSH2 0x41D JUMP JUMPDEST AND DUP2 MSTORE DUP3 DUP3 ADD CALLDATALOAD PUSH2 0x2D5E DUP2 PUSH2 0x1DC JUMP JUMPDEST DUP6 DUP1 PUSH1 0xA0 SHL SUB AND DUP4 DUP3 ADD MSTORE PUSH2 0x2DA9 PUSH2 0x2D8E PUSH1 0x40 PUSH2 0x2D7D DUP2 DUP7 ADD DUP7 PUSH2 0x2BDE JUMP JUMPDEST SWAP1 SWAP2 PUSH1 0xA0 DUP1 SWAP2 DUP8 ADD MSTORE DUP6 ADD SWAP2 PUSH2 0x2C12 JUMP JUMPDEST PUSH1 0x60 PUSH2 0x2D9C DUP2 DUP7 ADD DUP7 PUSH2 0x2C92 JUMP JUMPDEST SWAP2 DUP6 DUP5 SUB SWAP1 DUP7 ADD MSTORE PUSH2 0x2CC3 JUMP JUMPDEST SWAP2 PUSH1 0x80 DUP1 SWAP2 ADD CALLDATALOAD PUSH2 0x2DB9 DUP2 PUSH2 0x2737 JUMP JUMPDEST ISZERO ISZERO SWAP2 ADD MSTORE SWAP10 ADD SWAP5 ADD SWAP5 ADD SWAP3 SWAP6 SWAP5 SWAP4 SWAP2 SWAP1 PUSH2 0x2D11 JUMP JUMPDEST PUSH2 0x799 SWAP2 PUSH2 0x2DED DUP2 PUSH2 0x2DE0 DUP5 PUSH2 0x2C47 JUMP JUMPDEST PUSH1 0x1 PUSH1 0x1 PUSH1 0x40 SHL SUB AND SWAP1 MSTORE JUMP JUMPDEST PUSH2 0x2E0C PUSH2 0x2DFC PUSH1 0x20 DUP5 ADD PUSH2 0x2C47 JUMP JUMPDEST PUSH1 0x1 PUSH1 0x1 PUSH1 0x40 SHL SUB AND PUSH1 0x20 DUP4 ADD MSTORE JUMP JUMPDEST PUSH2 0x2E2B PUSH2 0x2E1B PUSH1 0x40 DUP5 ADD PUSH2 0x1F2 JUMP JUMPDEST PUSH1 0x1 PUSH1 0x1 PUSH1 0xA0 SHL SUB AND PUSH1 0x40 DUP4 ADD MSTORE JUMP JUMPDEST PUSH2 0x2E43 PUSH2 0x2E3A PUSH1 0x60 DUP5 ADD PUSH2 0x2C72 JUMP JUMPDEST ISZERO ISZERO PUSH1 0x60 DUP4 ADD MSTORE JUMP JUMPDEST PUSH2 0x2E62 PUSH2 0x2E52 PUSH1 0x80 DUP5 ADD PUSH2 0x1F2 JUMP JUMPDEST PUSH1 0x1 PUSH1 0x1 PUSH1 0xA0 SHL SUB AND PUSH1 0x80 DUP4 ADD MSTORE JUMP JUMPDEST PUSH1 0xA0 DUP3 ADD CALLDATALOAD PUSH1 0xA0 DUP3 ADD MSTORE PUSH2 0x2E8D PUSH2 0x2E7C PUSH1 0xC0 DUP5 ADD DUP5 PUSH2 0x2C92 JUMP JUMPDEST PUSH2 0x120 DUP1 PUSH1 0xC0 DUP7 ADD MSTORE DUP5 ADD SWAP2 PUSH2 0x2CC3 JUMP JUMPDEST SWAP2 PUSH2 0x2EA7 PUSH2 0x2E9D PUSH1 0xE0 DUP4 ADD PUSH2 0x2CEF JUMP JUMPDEST PUSH1 0xFF AND PUSH1 0xE0 DUP5 ADD MSTORE JUMP JUMPDEST PUSH2 0x2EB7 PUSH2 0x100 SWAP2 DUP3 DUP2 ADD SWAP1 PUSH2 0x2BDE JUMP JUMPDEST SWAP3 SWAP1 SWAP2 DUP2 DUP6 SUB SWAP2 ADD MSTORE PUSH2 0x2CFA JUMP JUMPDEST PUSH1 0x40 MLOAD PUSH4 0x58FBE9E1 PUSH1 0xE0 SHL DUP2 MSTORE PUSH1 0x20 PUSH1 0x4 DUP3 ADD DUP2 SWAP1 MSTORE SWAP2 PUSH2 0x2EFA PUSH2 0x2EE9 DUP3 DUP1 PUSH2 0x2BDE JUMP JUMPDEST PUSH1 0x40 PUSH1 0x24 DUP7 ADD MSTORE PUSH1 0x64 DUP6 ADD SWAP2 PUSH2 0x2C12 JUMP JUMPDEST SWAP1 DUP4 DUP2 ADD CALLDATALOAD PUSH1 0xBE NOT DUP3 CALLDATASIZE SUB ADD DUP2 SLT ISZERO PUSH2 0x1ED JUMPI DUP4 DUP4 SUB PUSH1 0x23 NOT ADD PUSH1 0x44 DUP6 ADD MSTORE ADD DUP1 CALLDATALOAD DUP3 MSTORE DUP1 DUP5 ADD CALLDATALOAD DUP3 DUP6 ADD MSTORE SWAP1 DUP4 SWAP1 DUP4 SWAP1 PUSH1 0x40 DUP5 ADD CALLDATALOAD PUSH2 0x2F39 DUP2 PUSH2 0x2C36 JUMP JUMPDEST PUSH1 0x1 PUSH1 0x1 PUSH1 0x40 SHL SUB DUP1 SWAP2 AND PUSH1 0x40 DUP4 ADD MSTORE PUSH1 0x60 DUP6 ADD CALLDATALOAD PUSH2 0x2F57 DUP2 PUSH2 0x2C36 JUMP JUMPDEST AND PUSH1 0x60 DUP3 ADD MSTORE PUSH2 0x2F6A PUSH1 0x80 DUP6 ADD DUP6 PUSH2 0x2C52 JUMP JUMPDEST SWAP4 PUSH1 0xC0 PUSH1 0x80 DUP4 ADD MSTORE PUSH2 0x2FCE PUSH2 0x160 DUP4 ADD SWAP6 DUP1 CALLDATALOAD PUSH1 0xC0 DUP6 ADD MSTORE PUSH2 0xFFFF DUP7 DUP3 ADD CALLDATALOAD PUSH2 0x2F92 DUP2 PUSH2 0x2C66 JUMP JUMPDEST AND PUSH1 0xE0 DUP6 ADD MSTORE PUSH1 0x40 DUP2 ADD CALLDATALOAD PUSH2 0x2FA6 DUP2 PUSH2 0x2737 JUMP JUMPDEST ISZERO ISZERO PUSH2 0x100 DUP6 ADD MSTORE PUSH1 0x60 DUP2 ADD CALLDATALOAD PUSH2 0x2FBC DUP2 PUSH2 0x2737 JUMP JUMPDEST ISZERO ISZERO PUSH2 0x120 DUP6 ADD MSTORE PUSH1 0x80 DUP2 ADD SWAP1 PUSH2 0x2BDE JUMP JUMPDEST PUSH1 0xA0 PUSH2 0x140 DUP6 ADD MSTORE SWAP6 DUP7 SWAP1 MSTORE PUSH2 0x180 DUP4 ADD SWAP6 PUSH1 0x0 JUMPDEST DUP2 DUP2 LT PUSH2 0x3070 JUMPI POP POP POP SWAP4 PUSH2 0x3010 SWAP2 PUSH2 0x3002 DUP7 PUSH1 0xA0 DUP7 SWAP8 SWAP9 ADD SWAP1 PUSH2 0x2C7D JUMP JUMPDEST SWAP1 PUSH1 0xA0 DUP2 DUP5 SUB SWAP2 ADD MSTORE PUSH2 0x2DCF JUMP JUMPDEST SUB DUP2 PUSH20 0xF37AD1278917C04FB291C75A42E61710964CB57C GAS STATICCALL SWAP2 DUP3 ISZERO PUSH2 0x3063 JUMPI JUMPDEST PUSH1 0x0 SWAP3 PUSH2 0x303D JUMPI POP POP SWAP1 JUMP JUMPDEST PUSH2 0x799 SWAP3 POP DUP1 RETURNDATASIZE LT PUSH2 0x305C JUMPI JUMPDEST PUSH2 0x3054 DUP2 DUP4 PUSH2 0xD56 JUMP JUMPDEST DUP2 ADD SWAP1 PUSH2 0x2741 JUMP JUMPDEST POP RETURNDATASIZE PUSH2 0x304A JUMP JUMPDEST PUSH2 0x306B PUSH2 0x2064 JUMP JUMPDEST PUSH2 0x3031 JUMP JUMPDEST SWAP3 SWAP5 POP SWAP3 SWAP5 DUP1 DUP3 SWAP8 PUSH4 0xFFFFFFFF PUSH1 0x1 SWAP5 CALLDATALOAD PUSH2 0x308A DUP2 PUSH2 0x41D JUMP JUMPDEST AND DUP2 MSTORE ADD SWAP7 ADD SWAP2 ADD SWAP1 DUP8 SWAP5 SWAP3 DUP8 SWAP5 SWAP3 PUSH2 0x2FE3 JUMP JUMPDEST ISZERO PUSH2 0x30A5 JUMPI JUMP JUMPDEST PUSH1 0x40 MLOAD PUSH3 0x461BCD PUSH1 0xE5 SHL DUP2 MSTORE PUSH1 0x20 PUSH1 0x4 DUP3 ADD MSTORE PUSH1 0x19 PUSH1 0x24 DUP3 ADD MSTORE PUSH32 0x496E76616C6964207472616E73616374696F6E2070726F6F6600000000000000 PUSH1 0x44 DUP3 ADD MSTORE PUSH1 0x64 SWAP1 REVERT JUMPDEST PUSH1 0xCB SLOAD PUSH1 0x1 PUSH1 0x40 SHL DUP2 LT ISZERO PUSH2 0x3139 JUMPI JUMPDEST PUSH1 0x1 DUP2 ADD DUP1 PUSH1 0xCB SSTORE DUP2 LT ISZERO PUSH2 0x1648 JUMPI PUSH1 0xCB PUSH1 0x0 MSTORE PUSH1 0x4 SHL PUSH32 0xA7CE836D032B2BF62B7E2097A8E0A6D8AEB35405AD15271E96D3B0188A1D06FB ADD SWAP1 PUSH1 0x0 SWAP1 JUMP JUMPDEST PUSH2 0x3141 PUSH2 0xC61 JUMP JUMPDEST PUSH2 0x30FA JUMP JUMPDEST POP PUSH4 0x4E487B71 PUSH1 0xE0 SHL PUSH1 0x0 MSTORE PUSH1 0x0 PUSH1 0x4 MSTORE PUSH1 0x24 PUSH1 0x0 REVERT JUMPDEST SWAP1 CALLDATALOAD SWAP1 PUSH1 0x1E NOT DUP2 CALLDATASIZE SUB ADD DUP3 SLT ISZERO PUSH2 0x1ED JUMPI ADD DUP1 CALLDATALOAD SWAP1 PUSH1 0x1 PUSH1 0x1 PUSH1 0x40 SHL SUB DUP3 GT PUSH2 0x1ED JUMPI PUSH1 0x20 ADD SWAP2 DUP2 PUSH1 0x5 SHL CALLDATASIZE SUB DUP4 SGT PUSH2 0x1ED JUMPI JUMP JUMPDEST DUP1 SLOAD SWAP1 PUSH1 0x0 SWAP1 DUP2 DUP2 SSTORE DUP3 PUSH2 0x31A5 JUMPI POP POP POP JUMP JUMPDEST DUP2 MSTORE PUSH1 0x20 DUP2 KECCAK256 SWAP2 DUP3 ADD SWAP2 JUMPDEST DUP3 DUP2 LT PUSH2 0x31BC JUMPI POP POP POP JUMP JUMPDEST DUP2 DUP2 SSTORE PUSH1 0x1 ADD PUSH2 0x31B0 JUMP JUMPDEST PUSH1 0x1 PUSH1 0x40 SHL DUP3 GT PUSH2 0x320B JUMPI JUMPDEST DUP1 SLOAD SWAP2 DUP1 DUP3 SSTORE DUP3 DUP2 LT PUSH2 0x31E5 JUMPI POP POP POP JUMP JUMPDEST PUSH1 0x0 SWAP2 DUP3 MSTORE PUSH1 0x20 DUP3 KECCAK256 SWAP3 DUP4 ADD SWAP3 ADD JUMPDEST DUP3 DUP2 LT PUSH2 0x3200 JUMPI POP POP POP JUMP JUMPDEST DUP2 DUP2 SSTORE PUSH1 0x1 ADD PUSH2 0x31F4 JUMP JUMPDEST PUSH2 0x3213 PUSH2 0xC61 JUMP JUMPDEST PUSH2 0x31D3 JUMP JUMPDEST SWAP1 CALLDATALOAD SWAP1 PUSH1 0xBE NOT DUP2 CALLDATASIZE SUB ADD DUP3 SLT ISZERO PUSH2 0x1ED JUMPI ADD SWAP1 JUMP JUMPDEST CALLDATALOAD PUSH2 0x799 DUP2 PUSH2 0x2C36 JUMP JUMPDEST SWAP1 CALLDATALOAD SWAP1 PUSH1 0x9E NOT DUP2 CALLDATASIZE SUB ADD DUP3 SLT ISZERO PUSH2 0x1ED JUMPI ADD SWAP1 JUMP JUMPDEST CALLDATALOAD PUSH2 0x799 DUP2 PUSH2 0x2737 JUMP JUMPDEST DUP2 DUP2 LT PUSH2 0x3261 JUMPI POP POP JUMP JUMPDEST PUSH1 0x0 DUP2 SSTORE PUSH1 0x1 ADD PUSH2 0x3256 JUMP JUMPDEST SWAP1 PUSH1 0x1 PUSH1 0x40 SHL DUP2 GT PUSH2 0x32D6 JUMPI JUMPDEST DUP2 SLOAD DUP2 DUP4 SSTORE DUP1 DUP3 LT PUSH2 0x328B JUMPI POP POP POP JUMP JUMPDEST PUSH2 0x1FD SWAP3 PUSH1 0x0 MSTORE PUSH1 0x7 PUSH1 0x20 PUSH1 0x0 KECCAK256 SWAP2 PUSH1 0x1C DUP3 DUP6 ADD PUSH1 0x3 SHR DUP5 ADD SWAP5 PUSH1 0x2 SHL AND DUP1 PUSH2 0x32BB JUMPI JUMPDEST POP ADD PUSH1 0x3 SHR ADD SWAP1 PUSH2 0x3256 JUMP JUMPDEST PUSH1 0x0 NOT SWAP1 DUP2 DUP7 ADD SWAP2 DUP3 SLOAD SWAP2 PUSH1 0x20 SUB PUSH1 0x3 SHL SHR AND SWAP1 SSTORE CODESIZE PUSH2 0x32AF JUMP JUMPDEST PUSH2 0x32DE PUSH2 0xC61 JUMP JUMPDEST PUSH2 0x327A JUMP JUMPDEST CALLDATALOAD PUSH2 0x799 DUP2 PUSH2 0x41D JUMP JUMPDEST SWAP2 SWAP1 PUSH2 0x3318 SWAP1 PUSH1 0x1 PUSH1 0x1 PUSH1 0x40 SHL SUB DUP4 GT PUSH2 0x33DF JUMPI JUMPDEST PUSH2 0x330C DUP4 DUP6 PUSH2 0x326D JUMP JUMPDEST SWAP3 PUSH1 0x0 MSTORE PUSH1 0x20 PUSH1 0x0 KECCAK256 SWAP1 JUMP JUMPDEST DUP2 PUSH1 0x3 SHR SWAP2 PUSH1 0x0 JUMPDEST DUP4 DUP2 LT PUSH2 0x338F JUMPI POP PUSH1 0x7 NOT DUP2 AND SWAP1 SUB DUP1 PUSH2 0x333B JUMPI JUMPDEST POP POP POP POP JUMP JUMPDEST SWAP3 PUSH1 0x0 SWAP4 DUP5 JUMPDEST DUP2 DUP2 LT PUSH2 0x3356 JUMPI POP POP POP ADD SSTORE CODESIZE DUP1 DUP1 DUP1 PUSH2 0x3335 JUMP JUMPDEST SWAP1 SWAP2 SWAP5 PUSH1 0x20 PUSH2 0x3385 PUSH1 0x1 SWAP3 PUSH2 0x336A DUP10 PUSH2 0x32E3 JUMP JUMPDEST SWAP1 DUP6 PUSH1 0x2 SHL PUSH1 0x3 SHL PUSH4 0xFFFFFFFF DUP2 SHL SWAP3 DUP4 SWAP2 SHL AND SWAP2 NOT AND OR SWAP1 JUMP JUMPDEST SWAP7 ADD SWAP3 SWAP2 ADD PUSH2 0x3341 JUMP JUMPDEST PUSH1 0x0 DUP1 JUMPDEST PUSH1 0x8 DUP2 LT PUSH2 0x33A8 JUMPI POP DUP4 DUP3 ADD SSTORE PUSH1 0x1 ADD PUSH2 0x3320 JUMP JUMPDEST SWAP6 SWAP1 PUSH1 0x20 PUSH2 0x33D6 PUSH1 0x1 SWAP3 PUSH2 0x33BB DUP6 PUSH2 0x32E3 JUMP JUMPDEST SWAP1 DUP11 PUSH1 0x2 SHL PUSH1 0x3 SHL PUSH4 0xFFFFFFFF DUP2 SHL SWAP3 DUP4 SWAP2 SHL AND SWAP2 NOT AND OR SWAP1 JUMP JUMPDEST SWAP3 ADD SWAP7 ADD PUSH2 0x3393 JUMP JUMPDEST PUSH2 0x33E7 PUSH2 0xC61 JUMP JUMPDEST PUSH2 0x3302 JUMP JUMPDEST SWAP1 CALLDATALOAD SWAP1 PUSH2 0x11E NOT DUP2 CALLDATASIZE SUB ADD DUP3 SLT ISZERO PUSH2 0x1ED JUMPI ADD SWAP1 JUMP JUMPDEST CALLDATALOAD PUSH2 0x799 DUP2 PUSH2 0x1DC JUMP JUMPDEST SWAP1 CALLDATALOAD SWAP1 PUSH1 0x1E NOT DUP2 CALLDATASIZE SUB ADD DUP3 SLT ISZERO PUSH2 0x1ED JUMPI ADD DUP1 CALLDATALOAD SWAP1 PUSH1 0x1 PUSH1 0x1 PUSH1 0x40 SHL SUB DUP3 GT PUSH2 0x1ED JUMPI PUSH1 0x20 ADD SWAP2 DUP2 CALLDATASIZE SUB DUP4 SGT PUSH2 0x1ED JUMPI JUMP JUMPDEST SWAP2 SWAP1 PUSH1 0x1F DUP2 GT PUSH2 0x344D JUMPI POP POP POP JUMP JUMPDEST PUSH2 0x1FD SWAP3 PUSH1 0x0 MSTORE PUSH1 0x20 PUSH1 0x0 KECCAK256 SWAP1 PUSH1 0x20 PUSH1 0x1F DUP5 ADD PUSH1 0x5 SHR DUP4 ADD SWAP4 LT PUSH2 0x3479 JUMPI JUMPDEST PUSH1 0x1F ADD PUSH1 0x5 SHR ADD SWAP1 PUSH2 0x3256 JUMP JUMPDEST SWAP1 SWAP2 POP DUP2 SWAP1 PUSH2 0x346C JUMP JUMPDEST SWAP1 SWAP3 SWAP2 PUSH1 0x1 PUSH1 0x1 PUSH1 0x40 SHL SUB DUP2 GT PUSH2 0x354B JUMPI JUMPDEST PUSH2 0x34A9 DUP2 PUSH2 0x34A3 DUP5 SLOAD PUSH2 0x16A4 JUMP JUMPDEST DUP5 PUSH2 0x343E JUMP JUMPDEST PUSH1 0x0 PUSH1 0x1F DUP3 GT PUSH1 0x1 EQ PUSH2 0x34E3 JUMPI DUP2 SWAP3 SWAP4 SWAP5 PUSH1 0x0 SWAP3 PUSH2 0x34D8 JUMPI JUMPDEST POP POP DUP2 PUSH1 0x1 SHL SWAP2 PUSH1 0x0 NOT SWAP1 PUSH1 0x3 SHL SHR NOT AND OR SWAP1 SSTORE JUMP JUMPDEST ADD CALLDATALOAD SWAP1 POP CODESIZE DUP1 PUSH2 0x34C2 JUMP JUMPDEST PUSH1 0x1F NOT DUP3 AND SWAP5 PUSH2 0x34F8 DUP5 PUSH1 0x0 MSTORE PUSH1 0x20 PUSH1 0x0 KECCAK256 SWAP1 JUMP JUMPDEST SWAP2 DUP1 JUMPDEST DUP8 DUP2 LT PUSH2 0x3533 JUMPI POP DUP4 PUSH1 0x1 SWAP6 SWAP7 SWAP8 LT PUSH2 0x3519 JUMPI JUMPDEST POP POP POP DUP2 SHL ADD SWAP1 SSTORE JUMP JUMPDEST ADD CALLDATALOAD PUSH1 0x0 NOT PUSH1 0x3 DUP5 SWAP1 SHL PUSH1 0xF8 AND SHR NOT AND SWAP1 SSTORE CODESIZE DUP1 DUP1 PUSH2 0x350F JUMP JUMPDEST SWAP1 SWAP3 PUSH1 0x20 PUSH1 0x1 DUP2 SWAP3 DUP7 DUP7 ADD CALLDATALOAD DUP2 SSTORE ADD SWAP5 ADD SWAP2 ADD PUSH2 0x34FB JUMP JUMPDEST PUSH2 0x3553 PUSH2 0xC61 JUMP JUMPDEST PUSH2 0x3495 JUMP JUMPDEST CALLDATALOAD PUSH2 0x799 DUP2 PUSH2 0x2CE4 JUMP JUMPDEST SWAP1 PUSH4 0xFFFFFFFF DUP2 CALLDATALOAD PUSH2 0x3573 DUP2 PUSH2 0x41D JUMP JUMPDEST AND DUP3 SLOAD DUP2 PUSH4 0xFFFFFFFF NOT DUP3 AND OR DUP5 SSTORE PUSH1 0x20 SWAP2 DUP3 DUP5 ADD CALLDATALOAD PUSH2 0x3592 DUP2 PUSH2 0x1DC JUMP JUMPDEST PUSH1 0x1 PUSH1 0x1 PUSH1 0xC0 SHL SUB NOT SWAP1 SWAP3 AND OR SWAP1 DUP3 SHL PUSH5 0x100000000 PUSH1 0x1 PUSH1 0xC0 SHL SUB AND OR DUP4 SSTORE PUSH1 0x1 SWAP1 DUP4 DUP3 ADD PUSH2 0x35C5 PUSH1 0x40 DUP6 ADD DUP6 PUSH2 0x315D JUMP JUMPDEST SWAP3 SWAP1 PUSH1 0x1 PUSH1 0x1 PUSH1 0x40 SHL SUB DUP5 GT PUSH2 0x3649 JUMPI JUMPDEST PUSH2 0x35E0 DUP5 DUP5 PUSH2 0x31C7 JUMP JUMPDEST SWAP2 PUSH1 0x0 MSTORE DUP1 PUSH1 0x0 KECCAK256 SWAP1 PUSH1 0x0 JUMPDEST DUP5 DUP2 LT PUSH2 0x3638 JUMPI POP POP POP POP POP POP SWAP1 PUSH1 0x3 PUSH2 0x3625 PUSH1 0x80 DUP5 PUSH2 0x361F PUSH2 0x3615 PUSH1 0x60 PUSH2 0x1FD SWAP9 ADD DUP4 PUSH2 0x340C JUMP JUMPDEST SWAP1 PUSH1 0x2 DUP9 ADD PUSH2 0x3483 JUMP JUMPDEST ADD PUSH2 0x324C JUMP JUMPDEST SWAP2 ADD SWAP1 PUSH1 0xFF DUP1 NOT DUP4 SLOAD AND SWAP2 ISZERO ISZERO AND OR SWAP1 SSTORE JUMP JUMPDEST DUP4 CALLDATALOAD DUP4 DUP3 ADD SSTORE SWAP3 DUP2 ADD SWAP3 DUP6 ADD PUSH2 0x35EC JUMP JUMPDEST PUSH2 0x3651 PUSH2 0xC61 JUMP JUMPDEST PUSH2 0x35D6 JUMP JUMPDEST PUSH1 0x1 PUSH1 0x40 SHL DUP4 GT PUSH2 0x37A3 JUMPI JUMPDEST DUP1 SLOAD DUP4 DUP3 SSTORE DUP1 DUP5 LT PUSH2 0x36BA JUMPI JUMPDEST POP SWAP1 PUSH2 0x3681 DUP2 SWAP3 PUSH1 0x0 MSTORE PUSH1 0x20 PUSH1 0x0 KECCAK256 SWAP1 JUMP JUMPDEST SWAP1 PUSH1 0x0 SWAP3 JUMPDEST DUP5 DUP5 LT PUSH2 0x3694 JUMPI POP POP POP POP POP JUMP JUMPDEST PUSH1 0x4 PUSH1 0x20 DUP3 PUSH2 0x36AE PUSH2 0x36A8 PUSH1 0x1 SWAP6 DUP8 PUSH2 0x3237 JUMP JUMPDEST DUP8 PUSH2 0x3562 JUMP JUMPDEST ADD SWAP4 ADD SWAP4 ADD SWAP3 SWAP2 PUSH2 0x3686 JUMP JUMPDEST PUSH1 0x1 PUSH1 0x1 PUSH1 0xFE SHL SUB DUP2 DUP2 AND DUP3 SUB PUSH2 0x3796 JUMPI JUMPDEST DUP5 AND DUP5 SUB PUSH2 0x3789 JUMPI JUMPDEST PUSH1 0x0 DUP3 DUP2 MSTORE PUSH1 0x20 DUP2 KECCAK256 SWAP2 PUSH1 0x2 SWAP1 DUP2 SHL DUP4 ADD SWAP3 DUP7 DUP3 SHL ADD JUMPDEST DUP4 DUP2 LT PUSH2 0x36FB JUMPI POP POP POP PUSH2 0x366F JUMP JUMPDEST DUP1 DUP4 PUSH1 0x4 SWAP3 SSTORE DUP4 PUSH1 0x1 PUSH2 0x370F DUP2 DUP5 ADD PUSH2 0x3192 JUMP JUMPDEST DUP5 DUP4 ADD SWAP1 PUSH2 0x371D DUP3 SLOAD PUSH2 0x16A4 JUMP JUMPDEST SWAP1 DUP2 PUSH2 0x3732 JUMPI JUMPDEST POP POP POP PUSH1 0x3 DUP3 ADD SSTORE ADD PUSH2 0x36EC JUMP JUMPDEST PUSH1 0x1F DUP1 DUP4 GT PUSH1 0x1 EQ PUSH2 0x374C JUMPI POP POP POP SSTORE JUMPDEST DUP4 CODESIZE DUP1 DUP1 PUSH2 0x3724 JUMP JUMPDEST PUSH2 0x3784 SWAP5 POP SWAP1 PUSH2 0x3774 SWAP3 SWAP2 PUSH2 0x3766 DUP6 PUSH1 0x0 MSTORE PUSH1 0x20 PUSH1 0x0 KECCAK256 SWAP1 JUMP JUMPDEST SWAP3 ADD PUSH1 0x5 SHR DUP3 ADD SWAP2 ADD PUSH2 0x3256 JUMP JUMPDEST PUSH1 0x0 SWAP1 DUP1 DUP3 MSTORE DUP2 PUSH1 0x20 DUP2 KECCAK256 SWAP2 SSTORE SSTORE JUMP JUMPDEST PUSH2 0x3743 JUMP JUMPDEST PUSH2 0x3791 PUSH2 0x2645 JUMP JUMPDEST PUSH2 0x36D5 JUMP JUMPDEST PUSH2 0x379E PUSH2 0x2645 JUMP JUMPDEST PUSH2 0x36CC JUMP JUMPDEST PUSH2 0x37AB PUSH2 0xC61 JUMP JUMPDEST PUSH2 0x3662 JUMP JUMPDEST PUSH1 0x6 SWAP1 PUSH2 0x38FA PUSH2 0x1FD SWAP4 PUSH2 0x37E3 PUSH2 0x37C6 DUP3 PUSH2 0x322D JUMP JUMPDEST DUP5 SLOAD PUSH8 0xFFFFFFFFFFFFFFFF NOT AND PUSH1 0x1 PUSH1 0x1 PUSH1 0x40 SHL SUB SWAP1 SWAP2 AND OR DUP5 SSTORE JUMP JUMPDEST PUSH2 0x381F PUSH2 0x37F2 PUSH1 0x20 DUP4 ADD PUSH2 0x322D JUMP JUMPDEST DUP5 SLOAD PUSH16 0xFFFFFFFFFFFFFFFF0000000000000000 NOT AND PUSH1 0x40 SWAP2 SWAP1 SWAP2 SHL PUSH8 0xFFFFFFFFFFFFFFFF PUSH1 0x40 SHL AND OR DUP5 SSTORE JUMP JUMPDEST PUSH2 0x3877 PUSH1 0x1 DUP5 ADD PUSH2 0x3851 PUSH2 0x3835 PUSH1 0x40 DUP6 ADD PUSH2 0x3402 JUMP JUMPDEST DUP3 SLOAD PUSH1 0x1 PUSH1 0x1 PUSH1 0xA0 SHL SUB NOT AND PUSH1 0x1 PUSH1 0x1 PUSH1 0xA0 SHL SUB SWAP1 SWAP2 AND OR DUP3 SSTORE JUMP JUMPDEST PUSH2 0x385D PUSH1 0x60 DUP5 ADD PUSH2 0x324C JUMP JUMPDEST DUP2 SLOAD PUSH1 0xFF PUSH1 0xA0 SHL NOT AND SWAP1 ISZERO ISZERO PUSH1 0xA0 SHL PUSH1 0xFF PUSH1 0xA0 SHL AND OR SWAP1 SSTORE JUMP JUMPDEST PUSH2 0x38A9 PUSH2 0x3886 PUSH1 0x80 DUP4 ADD PUSH2 0x3402 JUMP JUMPDEST PUSH1 0x2 DUP6 ADD DUP1 SLOAD PUSH1 0x1 PUSH1 0x1 PUSH1 0xA0 SHL SUB NOT AND PUSH1 0x1 PUSH1 0x1 PUSH1 0xA0 SHL SUB SWAP1 SWAP3 AND SWAP2 SWAP1 SWAP2 OR SWAP1 SSTORE JUMP JUMPDEST PUSH1 0xA0 DUP2 ADD CALLDATALOAD PUSH1 0x3 DUP5 ADD SSTORE PUSH2 0x38CD PUSH2 0x38C3 PUSH1 0xC0 DUP4 ADD DUP4 PUSH2 0x340C JUMP JUMPDEST SWAP1 PUSH1 0x4 DUP7 ADD PUSH2 0x3483 JUMP JUMPDEST PUSH2 0x38EF PUSH2 0x38DC PUSH1 0xE0 DUP4 ADD PUSH2 0x3558 JUMP JUMPDEST PUSH1 0x5 DUP6 ADD SWAP1 PUSH1 0xFF AND PUSH1 0xFF NOT DUP3 SLOAD AND OR SWAP1 SSTORE JUMP JUMPDEST PUSH2 0x100 DUP2 ADD SWAP1 PUSH2 0x315D JUMP JUMPDEST SWAP3 SWAP1 SWAP2 ADD PUSH2 0x3656 JUMP JUMPDEST SWAP1 PUSH2 0x390E DUP2 DUP1 PUSH2 0x315D JUMP JUMPDEST SWAP2 SWAP1 PUSH1 0x1 PUSH1 0x1 PUSH1 0x40 SHL SUB DUP4 GT PUSH2 0x3A8D JUMPI JUMPDEST PUSH2 0x3929 DUP4 DUP6 PUSH2 0x31C7 JUMP JUMPDEST SWAP2 DUP4 PUSH1 0x0 MSTORE PUSH1 0x20 SWAP3 DUP4 PUSH1 0x0 KECCAK256 PUSH1 0x0 JUMPDEST DUP4 DUP2 LT PUSH2 0x3A7B JUMPI POP POP POP POP PUSH2 0x3A74 DUP3 PUSH2 0x3A6A PUSH2 0x3A60 PUSH2 0x3960 DUP6 PUSH2 0x1FD SWAP9 SWAP8 PUSH1 0x7 SWAP8 ADD SWAP1 PUSH2 0x3218 JUMP JUMPDEST SWAP3 DUP4 CALLDATALOAD PUSH1 0x1 DUP9 ADD SSTORE DUP1 DUP5 ADD CALLDATALOAD PUSH1 0x2 DUP9 ADD SSTORE PUSH2 0x39DD PUSH1 0x3 DUP9 ADD PUSH2 0x39A6 PUSH1 0x40 DUP8 ADD CALLDATALOAD PUSH2 0x3989 DUP2 PUSH2 0x2C36 JUMP JUMPDEST DUP3 SLOAD PUSH8 0xFFFFFFFFFFFFFFFF NOT AND PUSH1 0x1 PUSH1 0x1 PUSH1 0x40 SHL SUB SWAP1 SWAP2 AND OR DUP3 SSTORE JUMP JUMPDEST PUSH1 0x60 DUP7 ADD CALLDATALOAD SWAP1 PUSH2 0x39B5 DUP3 PUSH2 0x2C36 JUMP JUMPDEST SWAP1 PUSH8 0xFFFFFFFFFFFFFFFF PUSH1 0x40 SHL DUP3 SLOAD SWAP2 PUSH1 0x40 SHL AND SWAP1 PUSH8 0xFFFFFFFFFFFFFFFF PUSH1 0x40 SHL NOT AND OR SWAP1 SSTORE JUMP JUMPDEST PUSH2 0x3A56 PUSH2 0x39ED PUSH1 0x80 DUP7 ADD DUP7 PUSH2 0x3237 JUMP JUMPDEST SWAP2 DUP3 CALLDATALOAD PUSH1 0x4 DUP11 ADD SSTORE PUSH1 0x5 DUP10 ADD SWAP1 DUP4 ADD CALLDATALOAD PUSH2 0x3A06 DUP2 PUSH2 0x2C66 JUMP JUMPDEST DUP2 SLOAD PUSH2 0xFFFF PUSH3 0xFF0000 PUSH1 0x40 DUP8 ADD CALLDATALOAD PUSH2 0x3A1D DUP2 PUSH2 0x2737 JUMP JUMPDEST ISZERO ISZERO PUSH1 0x10 SHL AND SWAP3 AND SWAP1 PUSH3 0xFFFFFF NOT AND OR OR DUP2 SSTORE PUSH2 0x3A3C PUSH1 0x60 DUP5 ADD PUSH2 0x324C JUMP JUMPDEST DUP2 SLOAD PUSH4 0xFF000000 NOT AND SWAP1 ISZERO ISZERO PUSH1 0x18 SHL PUSH4 0xFF000000 AND OR SWAP1 SSTORE JUMP JUMPDEST PUSH1 0x80 DUP2 ADD SWAP1 PUSH2 0x315D JUMP JUMPDEST SWAP1 PUSH1 0x6 DUP8 ADD PUSH2 0x32ED JUMP JUMPDEST PUSH1 0xA0 DUP2 ADD SWAP1 PUSH2 0x33EC JUMP JUMPDEST SWAP2 ADD PUSH2 0x37B0 JUMP JUMPDEST DUP3 CALLDATALOAD DUP3 DUP3 ADD SSTORE SWAP2 DUP6 ADD SWAP2 PUSH1 0x1 ADD PUSH2 0x3938 JUMP JUMPDEST PUSH2 0x3A95 PUSH2 0xC61 JUMP JUMPDEST PUSH2 0x391F JUMP JUMPDEST PUSH1 0x1 SWAP1 PUSH1 0x0 NOT DUP2 EQ PUSH2 0x3AAA JUMPI ADD SWAP1 JUMP JUMPDEST PUSH2 0x3AB2 PUSH2 0x2645 JUMP JUMPDEST ADD SWAP1 JUMP JUMPDEST SWAP1 SWAP2 PUSH2 0x799 SWAP3 DUP2 LT ISZERO PUSH2 0x3ACF JUMPI JUMPDEST PUSH1 0x5 SHL DUP2 ADD SWAP1 PUSH2 0x3237 JUMP JUMPDEST PUSH2 0x3AD7 PUSH2 0x15F6 JUMP JUMPDEST PUSH2 0x3AC4 JUMP JUMPDEST SWAP1 PUSH1 0x80 DUP3 DUP3 SUB SLT PUSH2 0x1ED JUMPI DUP2 CALLDATALOAD PUSH2 0x3AF2 DUP2 PUSH2 0x1DC JUMP JUMPDEST SWAP3 PUSH1 0x20 DUP4 ADD CALLDATALOAD PUSH2 0x3B01 DUP2 PUSH2 0x1DC JUMP JUMPDEST SWAP3 PUSH1 0x40 DUP2 ADD CALLDATALOAD SWAP3 PUSH1 0x60 DUP3 ADD CALLDATALOAD PUSH1 0x1 PUSH1 0x1 PUSH1 0x40 SHL SUB DUP2 GT PUSH2 0x1ED JUMPI PUSH2 0x799 SWAP3 ADD PUSH2 0xDF2 JUMP JUMPDEST DUP1 SLOAD ISZERO PUSH2 0x3B3B JUMPI JUMPDEST PUSH1 0x0 MSTORE PUSH1 0x20 PUSH1 0x0 KECCAK256 SWAP1 PUSH1 0x0 SWAP1 JUMP JUMPDEST PUSH2 0x3B43 PUSH2 0x15F6 JUMP JUMPDEST PUSH2 0x3B2D JUMP JUMPDEST DUP1 SLOAD DUP3 LT ISZERO PUSH2 0x3B65 JUMPI JUMPDEST PUSH1 0x0 MSTORE PUSH1 0x20 PUSH1 0x0 KECCAK256 SWAP1 PUSH1 0x2 SHL ADD SWAP1 PUSH1 0x0 SWAP1 JUMP JUMPDEST PUSH2 0x3B6D PUSH2 0x15F6 JUMP JUMPDEST PUSH2 0x3B52 JUMP JUMPDEST PUSH2 0x3B91 DUP2 SLOAD PUSH1 0x1 PUSH1 0x40 SHL DUP2 LT ISZERO PUSH2 0x3CC2 JUMPI JUMPDEST PUSH1 0x1 SWAP3 DUP4 DUP3 ADD DUP2 SSTORE PUSH2 0x3B48 JUMP JUMPDEST PUSH2 0x3CB5 JUMPI JUMPDEST DUP3 MLOAD DUP2 SLOAD PUSH1 0x1 PUSH1 0x1 PUSH1 0xA0 SHL SUB SWAP2 DUP3 AND PUSH1 0x1 PUSH1 0x1 PUSH1 0xA0 SHL SUB NOT SWAP2 DUP3 AND OR DUP4 SSTORE PUSH1 0x20 DUP1 DUP7 ADD MLOAD DUP6 DUP6 ADD DUP1 SLOAD SWAP1 SWAP4 AND SWAP4 AND SWAP3 SWAP1 SWAP3 OR SWAP1 SSTORE SWAP1 PUSH1 0x60 SWAP1 PUSH1 0x3 SWAP1 PUSH1 0x40 DUP7 ADD MLOAD PUSH1 0x2 DUP3 ADD SSTORE ADD SWAP4 ADD MLOAD SWAP1 DUP2 MLOAD SWAP2 PUSH1 0x1 PUSH1 0x1 PUSH1 0x40 SHL SUB DUP4 GT PUSH2 0x3CA8 JUMPI JUMPDEST PUSH2 0x3C06 DUP4 PUSH2 0x3C00 DUP8 SLOAD PUSH2 0x16A4 JUMP JUMPDEST DUP8 PUSH2 0x343E JUMP JUMPDEST DUP2 PUSH1 0x1F DUP5 GT PUSH1 0x1 EQ PUSH2 0x3C3F JUMPI POP SWAP3 DUP3 SWAP4 SWAP2 DUP4 SWAP3 PUSH1 0x0 SWAP5 PUSH2 0x3C34 JUMPI JUMPDEST POP POP SHL SWAP2 PUSH1 0x0 NOT SWAP1 PUSH1 0x3 SHL SHR NOT AND OR SWAP1 SSTORE JUMP JUMPDEST ADD MLOAD SWAP3 POP CODESIZE DUP1 PUSH2 0x3C21 JUMP JUMPDEST SWAP2 SWAP1 DUP4 PUSH1 0x1F NOT DUP2 AND PUSH2 0x3C56 DUP9 PUSH1 0x0 MSTORE PUSH1 0x20 PUSH1 0x0 KECCAK256 SWAP1 JUMP JUMPDEST SWAP5 PUSH1 0x0 SWAP1 JUMPDEST DUP9 DUP4 DUP4 LT PUSH2 0x3C8E JUMPI POP POP POP LT PUSH2 0x3C75 JUMPI POP POP POP DUP2 SHL ADD SWAP1 SSTORE JUMP JUMPDEST ADD MLOAD PUSH1 0x0 NOT PUSH1 0xF8 DUP5 PUSH1 0x3 SHL AND SHR NOT AND SWAP1 SSTORE CODESIZE DUP1 DUP1 PUSH2 0x350F JUMP JUMPDEST DUP6 DUP8 ADD MLOAD DUP9 SSTORE SWAP1 SWAP7 ADD SWAP6 SWAP5 DUP6 ADD SWAP5 DUP8 SWAP4 POP SWAP1 DUP2 ADD SWAP1 PUSH2 0x3C5B JUMP JUMPDEST PUSH2 0x3CB0 PUSH2 0xC61 JUMP JUMPDEST PUSH2 0x3BF2 JUMP JUMPDEST PUSH2 0x3CBD PUSH2 0x3146 JUMP JUMPDEST PUSH2 0x3B96 JUMP JUMPDEST PUSH2 0x3CCA PUSH2 0xC61 JUMP JUMPDEST PUSH2 0x3B84 JUMP JUMPDEST PUSH1 0x20 SWAP2 DUP2 MLOAD DUP2 LT ISZERO PUSH2 0x3CE4 JUMPI JUMPDEST PUSH1 0x5 SHL ADD ADD SWAP1 JUMP JUMPDEST PUSH2 0x3CEC PUSH2 0x15F6 JUMP JUMPDEST PUSH2 0x3CDC JUMP JUMPDEST SWAP1 PUSH1 0x40 SWAP2 DUP3 MLOAD SWAP3 PUSH2 0x3D01 DUP5 PUSH2 0xC98 JUMP JUMPDEST DUP4 PUSH2 0x3D0B DUP4 PUSH2 0x18F3 JUMP JUMPDEST DUP2 MSTORE PUSH1 0xF PUSH1 0xE DUP5 ADD SLOAD SWAP4 PUSH1 0x20 SWAP5 DUP6 DUP5 ADD MSTORE ADD DUP1 SLOAD SWAP1 PUSH2 0x3D29 DUP3 PUSH2 0x1782 JUMP JUMPDEST SWAP5 PUSH2 0x3D36 DUP6 MLOAD SWAP7 DUP8 PUSH2 0xD56 JUMP JUMPDEST DUP3 DUP7 MSTORE PUSH1 0x0 SWAP2 DUP3 MSTORE DUP1 DUP3 KECCAK256 DUP2 DUP8 ADD JUMPDEST DUP5 DUP5 LT PUSH2 0x3D55 JUMPI POP POP POP POP POP ADD MSTORE JUMP JUMPDEST PUSH1 0x4 DUP4 PUSH1 0x1 SWAP3 DUP10 MLOAD PUSH2 0x3D66 DUP2 PUSH2 0xD20 JUMP JUMPDEST DUP5 DUP1 PUSH1 0xA0 SHL SUB DUP1 DUP8 SLOAD AND DUP3 MSTORE DUP6 DUP8 ADD SLOAD AND DUP4 DUP3 ADD MSTORE PUSH1 0x2 DUP7 ADD SLOAD DUP12 DUP3 ADD MSTORE PUSH2 0x3D90 PUSH1 0x3 DUP8 ADD PUSH2 0x16DE JUMP JUMPDEST PUSH1 0x60 DUP3 ADD MSTORE DUP2 MSTORE ADD SWAP3 ADD SWAP4 ADD SWAP3 SWAP1 PUSH2 0x3D45 JUMP INVALID CALLDATASIZE ADDMOD SWAP5 LOG1 EXTCODESIZE LOG1 LOG3 0x21 MOD PUSH8 0xC828492DB98DCA3E KECCAK256 PUSH23 0xCC3735A920A3CA505D382BBCA2646970667358221220F0 REVERT PUSH2 0xF6D1 0xC6 DUP13 0x5E DUP11 GAS 0xD0 SWAP6 RETURN DUP16 PUSH2 0x965C PUSH32 0xE15A03B48781BD49F9A13B6ED4E664736F6C6343000811003300000000000000 "},"gasEstimates":{"creation":{"codeDepositCost":"3173000","executionCost":"infinite","totalCost":"infinite"},"external":{"FinalizeBridgeAndReleaseEth((bytes32[],(bytes32,bytes32,uint64,uint64,(bytes32,uint16,bool,bool,uint32[]),(uint64,uint64,address,bool,address,uint256,bytes,uint8,(uint32,address,bytes32[],bytes,bool)[]))))":"infinite","MESSENGER()":"2645","OTHER_BRIDGE()":"2557","bridgeERC20(address,address,uint256,uint32,bytes)":"infinite","bridgeERC20To(address,address,address,uint256,uint32,bytes)":"infinite","bridgeETH(uint32,bytes)":"infinite","bridgeETHTo(address,uint32,bytes)":"infinite","deposits(address,address)":"infinite","finalizeBridgeERC20(address,address,address,address,uint256,bytes)":"infinite","finalizeBridgeETH(address,address,uint256,bytes)":"infinite","getAllTransactions()":"infinite","getTransactionCount()":"2379","initialize(address,address,address)":"infinite","isEVMTransactionProofValid((bytes32[],(bytes32,bytes32,uint64,uint64,(bytes32,uint16,bool,bool,uint32[]),(uint64,uint64,address,bool,address,uint256,bytes,uint8,(uint32,address,bytes32[],bytes,bool)[]))))":"infinite","owner()":"2601","proxiableUUID()":"infinite","renounceOwnership()":"28300","setEthERC20ContractAddress(address)":"27084","transactions(uint256)":"infinite","transferOwnership(address)":"28679","upgradeTo(address)":"infinite","upgradeToAndCall(address,bytes)":"infinite"},"internal":{"_authorizeUpgrade(address)":"infinite","_emitERC20BridgeFinalized(address,address,address,address,uint256,bytes memory)":"infinite","_emitERC20BridgeInitiated(address,address,address,address,uint256,bytes memory)":"infinite","_emitETHBridgeFinalized(address,address,uint256,bytes memory)":"infinite","_emitETHBridgeInitiated(address,address,uint256,bytes memory)":"infinite","_initiateBridgeERC20(address,address,address,address,uint256,uint32,bytes memory)":"infinite","_initiateBridgeETH(address,address,uint256,uint32,bytes memory)":"infinite","_isCorrectTokenPair(address,address)":"infinite","_isFirelinkMintableERC20(address)":"infinite","call(address,uint256,uint256,bytes memory)":"infinite"}},"methodIdentifiers":{"FinalizeBridgeAndReleaseEth((bytes32[],(bytes32,bytes32,uint64,uint64,(bytes32,uint16,bool,bool,uint32[]),(uint64,uint64,address,bool,address,uint256,bytes,uint8,(uint32,address,bytes32[],bytes,bool)[]))))":"7eccb307","MESSENGER()":"927ede2d","OTHER_BRIDGE()":"7f46ddb2","bridgeERC20(address,address,uint256,uint32,bytes)":"87087623","bridgeERC20To(address,address,address,uint256,uint32,bytes)":"540abf73","bridgeETH(uint32,bytes)":"09fc8843","bridgeETHTo(address,uint32,bytes)":"e11013dd","deposits(address,address)":"8f601f66","finalizeBridgeERC20(address,address,address,address,uint256,bytes)":"0166a07a","finalizeBridgeETH(address,address,uint256,bytes)":"1635f5fd","getAllTransactions()":"27506f53","getTransactionCount()":"2e7700f0","initialize(address,address,address)":"c0c53b8b","isEVMTransactionProofValid((bytes32[],(bytes32,bytes32,uint64,uint64,(bytes32,uint16,bool,bool,uint32[]),(uint64,uint64,address,bool,address,uint256,bytes,uint8,(uint32,address,bytes32[],bytes,bool)[]))))":"09f5dc91","owner()":"8da5cb5b","proxiableUUID()":"52d1902d","renounceOwnership()":"715018a6","setEthERC20ContractAddress(address)":"ecc6da0c","transactions(uint256)":"9ace38c2","transferOwnership(address)":"f2fde38b","upgradeTo(address)":"3659cfe6","upgradeToAndCall(address,bytes)":"4f1ef286"}},"storageLayout":{"storage":[{"astId":3209,"contract":"contracts/FirelinkBridge.sol:FirelinkBridge","label":"_initialized","offset":0,"slot":"0","type":"t_uint8"},{"astId":3212,"contract":"contracts/FirelinkBridge.sol:FirelinkBridge","label":"_initializing","offset":1,"slot":"0","type":"t_bool"},{"astId":3878,"contract":"contracts/FirelinkBridge.sol:FirelinkBridge","label":"__gap","offset":0,"slot":"1","type":"t_array(t_uint256)50_storage"},{"astId":2716,"contract":"contracts/FirelinkBridge.sol:FirelinkBridge","label":"_owner","offset":0,"slot":"51","type":"t_address"},{"astId":2836,"contract":"contracts/FirelinkBridge.sol:FirelinkBridge","label":"__gap","offset":0,"slot":"52","type":"t_array(t_uint256)49_storage"},{"astId":3191,"contract":"contracts/FirelinkBridge.sol:FirelinkBridge","label":"__gap","offset":0,"slot":"101","type":"t_array(t_uint256)50_storage"},{"astId":3506,"contract":"contracts/FirelinkBridge.sol:FirelinkBridge","label":"__gap","offset":0,"slot":"151","type":"t_array(t_uint256)50_storage"},{"astId":5699,"contract":"contracts/FirelinkBridge.sol:FirelinkBridge","label":"MESSENGER","offset":0,"slot":"201","type":"t_contract(IFlareRelayer)6864"},{"astId":5702,"contract":"contracts/FirelinkBridge.sol:FirelinkBridge","label":"OTHER_BRIDGE","offset":0,"slot":"202","type":"t_contract(FirelinkBridge)6567"},{"astId":5706,"contract":"contracts/FirelinkBridge.sol:FirelinkBridge","label":"transactions","offset":0,"slot":"203","type":"t_array(t_struct(TransactionInfo)6377_storage)dyn_storage"},{"astId":5708,"contract":"contracts/FirelinkBridge.sol:FirelinkBridge","label":"spacer_0_2_20","offset":0,"slot":"204","type":"t_address"},{"astId":5710,"contract":"contracts/FirelinkBridge.sol:FirelinkBridge","label":"spacer_1_0_20","offset":0,"slot":"205","type":"t_address"},{"astId":5716,"contract":"contracts/FirelinkBridge.sol:FirelinkBridge","label":"deposits","offset":0,"slot":"206","type":"t_mapping(t_address,t_mapping(t_address,t_uint256))"},{"astId":5720,"contract":"contracts/FirelinkBridge.sol:FirelinkBridge","label":"__gap","offset":0,"slot":"207","type":"t_array(t_uint256)47_storage"},{"astId":5723,"contract":"contracts/FirelinkBridge.sol:FirelinkBridge","label":"ethContract","offset":0,"slot":"254","type":"t_contract(IFirelinkMintableERC20)6827"}],"types":{"t_address":{"encoding":"inplace","label":"address","numberOfBytes":"20"},"t_array(t_bytes32)dyn_storage":{"base":"t_bytes32","encoding":"dynamic_array","label":"bytes32[]","numberOfBytes":"32"},"t_array(t_struct(Event)1500_storage)dyn_storage":{"base":"t_struct(Event)1500_storage","encoding":"dynamic_array","label":"struct EVMTransaction.Event[]","numberOfBytes":"32"},"t_array(t_struct(EventInfo)6367_storage)dyn_storage":{"base":"t_struct(EventInfo)6367_storage","encoding":"dynamic_array","label":"struct FirelinkBridge.EventInfo[]","numberOfBytes":"32"},"t_array(t_struct(TransactionInfo)6377_storage)dyn_storage":{"base":"t_struct(TransactionInfo)6377_storage","encoding":"dynamic_array","label":"struct FirelinkBridge.TransactionInfo[]","numberOfBytes":"32"},"t_array(t_uint256)47_storage":{"base":"t_uint256","encoding":"inplace","label":"uint256[47]","numberOfBytes":"1504"},"t_array(t_uint256)49_storage":{"base":"t_uint256","encoding":"inplace","label":"uint256[49]","numberOfBytes":"1568"},"t_array(t_uint256)50_storage":{"base":"t_uint256","encoding":"inplace","label":"uint256[50]","numberOfBytes":"1600"},"t_array(t_uint32)dyn_storage":{"base":"t_uint32","encoding":"dynamic_array","label":"uint32[]","numberOfBytes":"32"},"t_bool":{"encoding":"inplace","label":"bool","numberOfBytes":"1"},"t_bytes32":{"encoding":"inplace","label":"bytes32","numberOfBytes":"32"},"t_bytes_storage":{"encoding":"bytes","label":"bytes","numberOfBytes":"32"},"t_contract(FirelinkBridge)6567":{"encoding":"inplace","label":"contract FirelinkBridge","numberOfBytes":"20"},"t_contract(IFirelinkMintableERC20)6827":{"encoding":"inplace","label":"contract IFirelinkMintableERC20","numberOfBytes":"20"},"t_contract(IFlareRelayer)6864":{"encoding":"inplace","label":"contract IFlareRelayer","numberOfBytes":"20"},"t_mapping(t_address,t_mapping(t_address,t_uint256))":{"encoding":"mapping","key":"t_address","label":"mapping(address => mapping(address => uint256))","numberOfBytes":"32","value":"t_mapping(t_address,t_uint256)"},"t_mapping(t_address,t_uint256)":{"encoding":"mapping","key":"t_address","label":"mapping(address => uint256)","numberOfBytes":"32","value":"t_uint256"},"t_struct(Event)1500_storage":{"encoding":"inplace","label":"struct EVMTransaction.Event","members":[{"astId":1490,"contract":"contracts/FirelinkBridge.sol:FirelinkBridge","label":"logIndex","offset":0,"slot":"0","type":"t_uint32"},{"astId":1492,"contract":"contracts/FirelinkBridge.sol:FirelinkBridge","label":"emitterAddress","offset":4,"slot":"0","type":"t_address"},{"astId":1495,"contract":"contracts/FirelinkBridge.sol:FirelinkBridge","label":"topics","offset":0,"slot":"1","type":"t_array(t_bytes32)dyn_storage"},{"astId":1497,"contract":"contracts/FirelinkBridge.sol:FirelinkBridge","label":"data","offset":0,"slot":"2","type":"t_bytes_storage"},{"astId":1499,"contract":"contracts/FirelinkBridge.sol:FirelinkBridge","label":"removed","offset":0,"slot":"3","type":"t_bool"}],"numberOfBytes":"128"},"t_struct(EventInfo)6367_storage":{"encoding":"inplace","label":"struct FirelinkBridge.EventInfo","members":[{"astId":6360,"contract":"contracts/FirelinkBridge.sol:FirelinkBridge","label":"sender","offset":0,"slot":"0","type":"t_address"},{"astId":6362,"contract":"contracts/FirelinkBridge.sol:FirelinkBridge","label":"receiver","offset":0,"slot":"1","type":"t_address"},{"astId":6364,"contract":"contracts/FirelinkBridge.sol:FirelinkBridge","label":"value","offset":0,"slot":"2","type":"t_uint256"},{"astId":6366,"contract":"contracts/FirelinkBridge.sol:FirelinkBridge","label":"data","offset":0,"slot":"3","type":"t_bytes_storage"}],"numberOfBytes":"128"},"t_struct(Proof)1455_storage":{"encoding":"inplace","label":"struct EVMTransaction.Proof","members":[{"astId":1451,"contract":"contracts/FirelinkBridge.sol:FirelinkBridge","label":"merkleProof","offset":0,"slot":"0","type":"t_array(t_bytes32)dyn_storage"},{"astId":1454,"contract":"contracts/FirelinkBridge.sol:FirelinkBridge","label":"data","offset":0,"slot":"1","type":"t_struct(Response)1448_storage"}],"numberOfBytes":"448"},"t_struct(RequestBody)1467_storage":{"encoding":"inplace","label":"struct EVMTransaction.RequestBody","members":[{"astId":1457,"contract":"contracts/FirelinkBridge.sol:FirelinkBridge","label":"transactionHash","offset":0,"slot":"0","type":"t_bytes32"},{"astId":1459,"contract":"contracts/FirelinkBridge.sol:FirelinkBridge","label":"requiredConfirmations","offset":0,"slot":"1","type":"t_uint16"},{"astId":1461,"contract":"contracts/FirelinkBridge.sol:FirelinkBridge","label":"provideInput","offset":2,"slot":"1","type":"t_bool"},{"astId":1463,"contract":"contracts/FirelinkBridge.sol:FirelinkBridge","label":"listEvents","offset":3,"slot":"1","type":"t_bool"},{"astId":1466,"contract":"contracts/FirelinkBridge.sol:FirelinkBridge","label":"logIndices","offset":0,"slot":"2","type":"t_array(t_uint32)dyn_storage"}],"numberOfBytes":"96"},"t_struct(Response)1448_storage":{"encoding":"inplace","label":"struct EVMTransaction.Response","members":[{"astId":1435,"contract":"contracts/FirelinkBridge.sol:FirelinkBridge","label":"attestationType","offset":0,"slot":"0","type":"t_bytes32"},{"astId":1437,"contract":"contracts/FirelinkBridge.sol:FirelinkBridge","label":"sourceId","offset":0,"slot":"1","type":"t_bytes32"},{"astId":1439,"contract":"contracts/FirelinkBridge.sol:FirelinkBridge","label":"votingRound","offset":0,"slot":"2","type":"t_uint64"},{"astId":1441,"contract":"contracts/FirelinkBridge.sol:FirelinkBridge","label":"lowestUsedTimestamp","offset":8,"slot":"2","type":"t_uint64"},{"astId":1444,"contract":"contracts/FirelinkBridge.sol:FirelinkBridge","label":"requestBody","offset":0,"slot":"3","type":"t_struct(RequestBody)1467_storage"},{"astId":1447,"contract":"contracts/FirelinkBridge.sol:FirelinkBridge","label":"responseBody","offset":0,"slot":"6","type":"t_struct(ResponseBody)1488_storage"}],"numberOfBytes":"416"},"t_struct(ResponseBody)1488_storage":{"encoding":"inplace","label":"struct EVMTransaction.ResponseBody","members":[{"astId":1469,"contract":"contracts/FirelinkBridge.sol:FirelinkBridge","label":"blockNumber","offset":0,"slot":"0","type":"t_uint64"},{"astId":1471,"contract":"contracts/FirelinkBridge.sol:FirelinkBridge","label":"timestamp","offset":8,"slot":"0","type":"t_uint64"},{"astId":1473,"contract":"contracts/FirelinkBridge.sol:FirelinkBridge","label":"sourceAddress","offset":0,"slot":"1","type":"t_address"},{"astId":1475,"contract":"contracts/FirelinkBridge.sol:FirelinkBridge","label":"isDeployment","offset":20,"slot":"1","type":"t_bool"},{"astId":1477,"contract":"contracts/FirelinkBridge.sol:FirelinkBridge","label":"receivingAddress","offset":0,"slot":"2","type":"t_address"},{"astId":1479,"contract":"contracts/FirelinkBridge.sol:FirelinkBridge","label":"value","offset":0,"slot":"3","type":"t_uint256"},{"astId":1481,"contract":"contracts/FirelinkBridge.sol:FirelinkBridge","label":"input","offset":0,"slot":"4","type":"t_bytes_storage"},{"astId":1483,"contract":"contracts/FirelinkBridge.sol:FirelinkBridge","label":"status","offset":0,"slot":"5","type":"t_uint8"},{"astId":1487,"contract":"contracts/FirelinkBridge.sol:FirelinkBridge","label":"events","offset":0,"slot":"6","type":"t_array(t_struct(Event)1500_storage)dyn_storage"}],"numberOfBytes":"224"},"t_struct(TransactionInfo)6377_storage":{"encoding":"inplace","label":"struct FirelinkBridge.TransactionInfo","members":[{"astId":6370,"contract":"contracts/FirelinkBridge.sol:FirelinkBridge","label":"originalTransaction","offset":0,"slot":"0","type":"t_struct(Proof)1455_storage"},{"astId":6372,"contract":"contracts/FirelinkBridge.sol:FirelinkBridge","label":"eventNumber","offset":0,"slot":"14","type":"t_uint256"},{"astId":6376,"contract":"contracts/FirelinkBridge.sol:FirelinkBridge","label":"eventInfo","offset":0,"slot":"15","type":"t_array(t_struct(EventInfo)6367_storage)dyn_storage"}],"numberOfBytes":"512"},"t_uint16":{"encoding":"inplace","label":"uint16","numberOfBytes":"2"},"t_uint256":{"encoding":"inplace","label":"uint256","numberOfBytes":"32"},"t_uint32":{"encoding":"inplace","label":"uint32","numberOfBytes":"4"},"t_uint64":{"encoding":"inplace","label":"uint64","numberOfBytes":"8"},"t_uint8":{"encoding":"inplace","label":"uint8","numberOfBytes":"1"}}},"userdoc":{"kind":"user","methods":{},"version":1}}}}