{"contracts/FirelinkMintableERC20.sol":{"FirelinkMintableERC20":{"abi":[{"inputs":[{"internalType":"address","name":"_bridge","type":"address"},{"internalType":"address","name":"_remoteToken","type":"address"},{"internalType":"string","name":"_name","type":"string"},{"internalType":"string","name":"_symbol","type":"string"},{"internalType":"uint8","name":"_decimals","type":"uint8"}],"stateMutability":"nonpayable","type":"constructor"},{"anonymous":false,"inputs":[{"indexed":true,"internalType":"address","name":"owner","type":"address"},{"indexed":true,"internalType":"address","name":"spender","type":"address"},{"indexed":false,"internalType":"uint256","name":"value","type":"uint256"}],"name":"Approval","type":"event"},{"anonymous":false,"inputs":[{"indexed":true,"internalType":"address","name":"account","type":"address"},{"indexed":false,"internalType":"uint256","name":"amount","type":"uint256"}],"name":"Burn","type":"event"},{"anonymous":false,"inputs":[{"indexed":true,"internalType":"address","name":"account","type":"address"},{"indexed":false,"internalType":"uint256","name":"amount","type":"uint256"}],"name":"Mint","type":"event"},{"anonymous":false,"inputs":[{"indexed":true,"internalType":"address","name":"from","type":"address"},{"indexed":true,"internalType":"address","name":"to","type":"address"},{"indexed":false,"internalType":"uint256","name":"value","type":"uint256"}],"name":"Transfer","type":"event"},{"inputs":[],"name":"BRIDGE","outputs":[{"internalType":"address","name":"","type":"address"}],"stateMutability":"view","type":"function"},{"inputs":[],"name":"REMOTE_TOKEN","outputs":[{"internalType":"address","name":"","type":"address"}],"stateMutability":"view","type":"function"},{"inputs":[{"internalType":"address","name":"owner","type":"address"},{"internalType":"address","name":"spender","type":"address"}],"name":"allowance","outputs":[{"internalType":"uint256","name":"","type":"uint256"}],"stateMutability":"view","type":"function"},{"inputs":[{"internalType":"address","name":"spender","type":"address"},{"internalType":"uint256","name":"amount","type":"uint256"}],"name":"approve","outputs":[{"internalType":"bool","name":"","type":"bool"}],"stateMutability":"nonpayable","type":"function"},{"inputs":[{"internalType":"address","name":"account","type":"address"}],"name":"balanceOf","outputs":[{"internalType":"uint256","name":"","type":"uint256"}],"stateMutability":"view","type":"function"},{"inputs":[],"name":"bridge","outputs":[{"internalType":"address","name":"","type":"address"}],"stateMutability":"view","type":"function"},{"inputs":[{"internalType":"address","name":"_from","type":"address"},{"internalType":"uint256","name":"_amount","type":"uint256"}],"name":"burn","outputs":[],"stateMutability":"nonpayable","type":"function"},{"inputs":[],"name":"decimals","outputs":[{"internalType":"uint8","name":"","type":"uint8"}],"stateMutability":"view","type":"function"},{"inputs":[{"internalType":"address","name":"spender","type":"address"},{"internalType":"uint256","name":"subtractedValue","type":"uint256"}],"name":"decreaseAllowance","outputs":[{"internalType":"bool","name":"","type":"bool"}],"stateMutability":"nonpayable","type":"function"},{"inputs":[{"internalType":"address","name":"spender","type":"address"},{"internalType":"uint256","name":"addedValue","type":"uint256"}],"name":"increaseAllowance","outputs":[{"internalType":"bool","name":"","type":"bool"}],"stateMutability":"nonpayable","type":"function"},{"inputs":[],"name":"l1Token","outputs":[{"internalType":"address","name":"","type":"address"}],"stateMutability":"view","type":"function"},{"inputs":[],"name":"l2Bridge","outputs":[{"internalType":"address","name":"","type":"address"}],"stateMutability":"view","type":"function"},{"inputs":[{"internalType":"address","name":"_to","type":"address"},{"internalType":"uint256","name":"_amount","type":"uint256"}],"name":"mint","outputs":[],"stateMutability":"nonpayable","type":"function"},{"inputs":[],"name":"name","outputs":[{"internalType":"string","name":"","type":"string"}],"stateMutability":"view","type":"function"},{"inputs":[],"name":"remoteToken","outputs":[{"internalType":"address","name":"","type":"address"}],"stateMutability":"view","type":"function"},{"inputs":[{"internalType":"bytes4","name":"_interfaceId","type":"bytes4"}],"name":"supportsInterface","outputs":[{"internalType":"bool","name":"","type":"bool"}],"stateMutability":"pure","type":"function"},{"inputs":[],"name":"symbol","outputs":[{"internalType":"string","name":"","type":"string"}],"stateMutability":"view","type":"function"},{"inputs":[],"name":"totalSupply","outputs":[{"internalType":"uint256","name":"","type":"uint256"}],"stateMutability":"view","type":"function"},{"inputs":[{"internalType":"address","name":"to","type":"address"},{"internalType":"uint256","name":"amount","type":"uint256"}],"name":"transfer","outputs":[{"internalType":"bool","name":"","type":"bool"}],"stateMutability":"nonpayable","type":"function"},{"inputs":[{"internalType":"address","name":"from","type":"address"},{"internalType":"address","name":"to","type":"address"},{"internalType":"uint256","name":"amount","type":"uint256"}],"name":"transferFrom","outputs":[{"internalType":"bool","name":"","type":"bool"}],"stateMutability":"nonpayable","type":"function"},{"inputs":[],"name":"version","outputs":[{"internalType":"string","name":"","type":"string"}],"stateMutability":"view","type":"function"}],"devdoc":{"events":{"Burn(address,uint256)":{"params":{"account":"Address of the account tokens are being burned from.","amount":"Amount of tokens burned."}},"Mint(address,uint256)":{"params":{"account":"Address of the account tokens are being minted for.","amount":"Amount of tokens minted."}}},"kind":"dev","methods":{"allowance(address,address)":{"details":"See {IERC20-allowance}."},"approve(address,uint256)":{"details":"See {IERC20-approve}. NOTE: If `amount` is the maximum `uint256`, the allowance is not updated on `transferFrom`. This is semantically equivalent to an infinite approval. Requirements: - `spender` cannot be the zero address."},"balanceOf(address)":{"details":"See {IERC20-balanceOf}."},"bridge()":{"custom:legacy":"@notice Legacy getter for BRIDGE."},"burn(address,uint256)":{"params":{"_amount":"Amount of tokens to burn.","_from":"Address to burn tokens from."}},"constructor":{"params":{"_bridge":"Address of the L2 standard bridge.","_name":"ERC20 name.","_remoteToken":"Address of the corresponding L1 token.","_symbol":"ERC20 symbol."}},"decimals()":{"details":"Returns the number of decimals used to get its user representation. For example, if `decimals` equals `2`, a balance of `505` tokens should be displayed to a user as `5.05` (`505 / 10 ** 2`). NOTE: This information is only used for _display_ purposes: it in no way affects any of the arithmetic of the contract, including {IERC20-balanceOf} and {IERC20-transfer}."},"decreaseAllowance(address,uint256)":{"details":"Atomically decreases the allowance granted to `spender` by the caller. This is an alternative to {approve} that can be used as a mitigation for problems described in {IERC20-approve}. Emits an {Approval} event indicating the updated allowance. Requirements: - `spender` cannot be the zero address. - `spender` must have allowance for the caller of at least `subtractedValue`."},"increaseAllowance(address,uint256)":{"details":"Atomically increases the allowance granted to `spender` by the caller. This is an alternative to {approve} that can be used as a mitigation for problems described in {IERC20-approve}. Emits an {Approval} event indicating the updated allowance. Requirements: - `spender` cannot be the zero address."},"l1Token()":{"custom:legacy":"@notice Legacy getter for the remote token. Use REMOTE_TOKEN going forward."},"l2Bridge()":{"custom:legacy":"@notice Legacy getter for the bridge. Use BRIDGE going forward."},"mint(address,uint256)":{"params":{"_amount":"Amount of tokens to mint.","_to":"Address to mint tokens to."}},"name()":{"details":"Returns the name of the token."},"remoteToken()":{"custom:legacy":"@notice Legacy getter for REMOTE_TOKEN."},"supportsInterface(bytes4)":{"params":{"_interfaceId":"Interface ID to check."},"returns":{"_0":"Whether or not the interface is supported by this contract."}},"symbol()":{"details":"Returns the symbol of the token, usually a shorter version of the name."},"totalSupply()":{"details":"See {IERC20-totalSupply}."},"transfer(address,uint256)":{"details":"See {IERC20-transfer}. Requirements: - `to` cannot be the zero address. - the caller must have a balance of at least `amount`."},"transferFrom(address,address,uint256)":{"details":"See {IERC20-transferFrom}. Emits an {Approval} event indicating the updated allowance. This is not required by the EIP. See the note at the beginning of {ERC20}. NOTE: Does not update the allowance if the current allowance is the maximum `uint256`. Requirements: - `from` and `to` cannot be the zero address. - `from` must have a balance of at least `amount`. - the caller must have allowance for ``from``'s tokens of at least `amount`."}},"stateVariables":{"version":{"custom:semver":"1.3.0"}},"title":"FirelinkMintableERC20","version":1},"evm":{"bytecode":{"linkReferences":{},"object":"60e060405234620003805762001224803803806200001d8162000385565b928339810160a08282031262000380576200003882620003ab565b90602062000048818501620003ab565b60408501519092906001600160401b03908181116200038057826200006f918801620003c0565b91606087015182811162000380576080916200008d918901620003c0565b9601519560ff871687036200038057825182811162000280576003918254916001958684811c9416801562000375575b888510146200035f578190601f9485811162000309575b508890858311600114620002a25760009262000296575b505060001982861b1c191690861b1783555b8051938411620002805760049586548681811c9116801562000275575b82821014620002605783811162000215575b5080928511600114620001a757509383949184926000956200019b575b50501b92600019911b1c19161790555b60805260a05260c052604051610df190816200043382396080518161099d015260a051818181610283015281816105990152610a90015260c051816106e80152f35b01519350388062000149565b92919084601f1981168860005285600020956000905b89838310620001fa5750505010620001df575b50505050811b01905562000159565b01519060f884600019921b161c1916905538808080620001d0565b858701518955909701969485019488935090810190620001bd565b87600052816000208480880160051c82019284891062000256575b0160051c019087905b828110620002495750506200012c565b6000815501879062000239565b9250819262000230565b602288634e487b7160e01b6000525260246000fd5b90607f16906200011a565b634e487b7160e01b600052604160045260246000fd5b015190503880620000eb565b90889350601f19831691876000528a6000209260005b8c828210620002f25750508411620002d9575b505050811b018355620000fd565b015160001983881b60f8161c19169055388080620002cb565b8385015186558c97909501949384019301620002b8565b90915085600052886000208580850160051c8201928b861062000355575b918a91869594930160051c01915b82811062000345575050620000d4565b600081558594508a910162000335565b9250819262000327565b634e487b7160e01b600052602260045260246000fd5b93607f1693620000bd565b600080fd5b6040519190601f01601f191682016001600160401b038111838210176200028057604052565b51906001600160a01b03821682036200038057565b919080601f84011215620003805782516001600160401b0381116200028057602090620003f6601f8201601f1916830162000385565b92818452828287010111620003805760005b8181106200041e57508260009394955001015290565b85810183015184820184015282016200040856fe608060408181526004908136101561001657600080fd5b600091823560e01c93846301ffc9a71461091b57508363033964be1461090f57836306fdde031461081c578363095ea7b3146107f357836318160ddd146107d557836323b872dd1461070c578363313ce567146106cf578363395093511461068057836340c10f191461056c57836354fd4d501461050957836370a08231146104d357836395d89b41146103d05783639dc29fac14610256578363a457c2d7146101b057508263a9059cbb14610181578263ae1f6aaf14610176578263c01e1bd61461016b578263d6c0b2c41461016b578263dd62ed3e146101205750508063e78cea92146101175763ee9a31a21461010f575b600080fd5b61010a610a79565b5061010a610a79565b346101675780600319360112610167578060209261013c610a15565b610144610a2b565b6001600160a01b0391821683526001865283832091168252845220549051908152f35b5080fd5b50505061010a610986565b50505061010a610a79565b346101675780600319360112610167576020906101a961019f610a15565b6024359033610ae2565b5160018152f35b82346102535782600319360112610253576101c9610a15565b918360243592338152600160205281812060018060a01b0386168252602052205490828210610202576020856101a98585038733610c50565b608490602086519162461bcd60e51b8352820152602560248201527f45524332303a2064656372656173656420616c6c6f77616e63652062656c6f77604482015264207a65726f60d81b6064820152fd5b80fd5b90346103cc57806003193601126103cc5761026f610a15565b60243591906001600160a01b03906102aa337f0000000000000000000000000000000000000000000000000000000000000000841614610d52565b1692831561038057838552846020528185205490838210610332575091602091817fcc16f5dbb4873280815c1ee09dbd06736cffcc184412cf7a71a0fdb75d397ca5948688528785520381872055816002540360025585857fddf252ad1be2c89b69c2b068fc378daa952ba7f163c4a11628f55a4df523b3ef858451868152a351908152a280f35b608490602084519162461bcd60e51b8352820152602260248201527f45524332303a206275726e20616d6f756e7420657863656564732062616c616e604482015261636560f01b6064820152fd5b6020608492519162461bcd60e51b8352820152602160248201527f45524332303a206275726e2066726f6d20746865207a65726f206164647265736044820152607360f81b6064820152fd5b8280fd5b925034610167578160031936011261016757805191809380549160019083821c928285169485156104c9575b60209586861081146104b657858952908115610492575060011461043a575b610436878761042c828c0383610a41565b51918291826109cc565b0390f35b81529295507f8a35acfbc15ff81a39ae7d344fd709f28e8600b4aa8c65c6b64bfe7fe36bd19b5b82841061047f57505050826104369461042c9282010194388061041b565b8054868501880152928601928101610461565b60ff19168887015250505050151560051b830101925061042c82610436388061041b565b634e487b7160e01b845260228352602484fd5b93607f16936103fc565b50346101675760203660031901126101675760209181906001600160a01b036104fa610a15565b16815280845220549051908152f35b9250346101675781600319360112610167578051918183019083821067ffffffffffffffff83111761055957506104369350815260058252640312e332e360dc1b602083015251918291826109cc565b634e487b7160e01b815260418552602490fd5b90346103cc57806003193601126103cc57610585610a15565b60243591906001600160a01b03906105c0337f0000000000000000000000000000000000000000000000000000000000000000841614610d52565b1692831561063e5750816020916105fa7f0f6798a560793a54c3bcfe86a93cde1e73087d944c0ea20544137d412139688594600254610abf565b60025584865285835280862082815401905584867fddf252ad1be2c89b69c2b068fc378daa952ba7f163c4a11628f55a4df523b3ef858451868152a351908152a280f35b6020606492519162461bcd60e51b8352820152601f60248201527f45524332303a206d696e7420746f20746865207a65726f2061646472657373006044820152fd5b50346101675780600319360112610167576101a96020926106c86106a2610a15565b338352600186528483206001600160a01b03821684528652918490205460243590610abf565b9033610c50565b50346101675781600319360112610167576020905160ff7f0000000000000000000000000000000000000000000000000000000000000000168152f35b82903461016757606036600319011261016757610727610a15565b61072f610a2b565b91846044359460018060a01b038416815260016020528181203382526020522054906000198203610769575b6020866101a9878787610ae2565b8482106107925750918391610787602096956101a995033383610c50565b91939481935061075b565b606490602087519162461bcd60e51b8352820152601d60248201527f45524332303a20696e73756666696369656e7420616c6c6f77616e63650000006044820152fd5b50346101675781600319360112610167576020906002549051908152f35b50346101675780600319360112610167576020906101a9610812610a15565b6024359033610c50565b90346103cc57826003193601126103cc57805191836003549060019082821c928281168015610905575b60209586861082146108f257508488529081156108d05750600114610877575b610436868661042c828b0383610a41565b929550600383527fc2575a0e9e593c00f959f8c92f12db2869c3395a3b0502d05e2516446f71f85b5b8284106108bd57505050826104369461042c928201019486610866565b80548685018801529286019281016108a0565b60ff191687860152505050151560051b830101925061042c8261043686610866565b634e487b7160e01b845260229052602483fd5b93607f1693610846565b5050505061010a610986565b9150346103cc5760203660031901126103cc573563ffffffff60e01b81168091036103cc57602092506301ffc9a760e01b8114908115610975575b8115610964575b5015158152f35b63ec4fc8e360e01b1490508361095d565b631d1d8b6360e01b81149150610956565b503461010a57600036600319011261010a576040517f00000000000000000000000000000000000000000000000000000000000000006001600160a01b03168152602090f35b6020808252825181830181905290939260005b828110610a0157505060409293506000838284010152601f8019910116010190565b8181018601518482016040015285016109df565b600435906001600160a01b038216820361010a57565b602435906001600160a01b038216820361010a57565b90601f8019910116810190811067ffffffffffffffff821117610a6357604052565b634e487b7160e01b600052604160045260246000fd5b503461010a57600036600319011261010a576040517f00000000000000000000000000000000000000000000000000000000000000006001600160a01b03168152602090f35b91908201809211610acc57565b634e487b7160e01b600052601160045260246000fd5b6001600160a01b03908116918215610bfd5716918215610bac57600082815280602052604081205491808310610b5857604082827fddf252ad1be2c89b69c2b068fc378daa952ba7f163c4a11628f55a4df523b3ef958760209652828652038282205586815220818154019055604051908152a3565b60405162461bcd60e51b815260206004820152602660248201527f45524332303a207472616e7366657220616d6f756e7420657863656564732062604482015265616c616e636560d01b6064820152608490fd5b60405162461bcd60e51b815260206004820152602360248201527f45524332303a207472616e7366657220746f20746865207a65726f206164647260448201526265737360e81b6064820152608490fd5b60405162461bcd60e51b815260206004820152602560248201527f45524332303a207472616e736665722066726f6d20746865207a65726f206164604482015264647265737360d81b6064820152608490fd5b6001600160a01b03908116918215610d015716918215610cb15760207f8c5be1e5ebec7d5bd14f71427d1e84f3dd0314c0f7b2291e5b200ac8c7c3b925918360005260018252604060002085600052825280604060002055604051908152a3565b60405162461bcd60e51b815260206004820152602260248201527f45524332303a20617070726f766520746f20746865207a65726f206164647265604482015261737360f01b6064820152608490fd5b60405162461bcd60e51b8152602060048201526024808201527f45524332303a20617070726f76652066726f6d20746865207a65726f206164646044820152637265737360e01b6064820152608490fd5b15610d5957565b60405162461bcd60e51b815260206004820152603460248201527f466972656c696e6b4d696e7461626c6545524332303a206f6e6c79206272696460448201527333b29031b0b71036b4b73a1030b73210313ab93760611b6064820152608490fdfea26469706673582212203d74d42d44ec403efbfe643878bec61619046547900a26cf34809b356ac3eb3f64736f6c63430008110033","opcodes":"PUSH1 0xE0 PUSH1 0x40 MSTORE CALLVALUE PUSH3 0x380 JUMPI PUSH3 0x1224 DUP1 CODESIZE SUB DUP1 PUSH3 0x1D DUP2 PUSH3 0x385 JUMP JUMPDEST SWAP3 DUP4 CODECOPY DUP2 ADD PUSH1 0xA0 DUP3 DUP3 SUB SLT PUSH3 0x380 JUMPI PUSH3 0x38 DUP3 PUSH3 0x3AB JUMP JUMPDEST SWAP1 PUSH1 0x20 PUSH3 0x48 DUP2 DUP6 ADD PUSH3 0x3AB JUMP JUMPDEST PUSH1 0x40 DUP6 ADD MLOAD SWAP1 SWAP3 SWAP1 PUSH1 0x1 PUSH1 0x1 PUSH1 0x40 SHL SUB SWAP1 DUP2 DUP2 GT PUSH3 0x380 JUMPI DUP3 PUSH3 0x6F SWAP2 DUP9 ADD PUSH3 0x3C0 JUMP JUMPDEST SWAP2 PUSH1 0x60 DUP8 ADD MLOAD DUP3 DUP2 GT PUSH3 0x380 JUMPI PUSH1 0x80 SWAP2 PUSH3 0x8D SWAP2 DUP10 ADD PUSH3 0x3C0 JUMP JUMPDEST SWAP7 ADD MLOAD SWAP6 PUSH1 0xFF DUP8 AND DUP8 SUB PUSH3 0x380 JUMPI DUP3 MLOAD DUP3 DUP2 GT PUSH3 0x280 JUMPI PUSH1 0x3 SWAP2 DUP3 SLOAD SWAP2 PUSH1 0x1 SWAP6 DUP7 DUP5 DUP2 SHR SWAP5 AND DUP1 ISZERO PUSH3 0x375 JUMPI JUMPDEST DUP9 DUP6 LT EQ PUSH3 0x35F JUMPI DUP2 SWAP1 PUSH1 0x1F SWAP5 DUP6 DUP2 GT PUSH3 0x309 JUMPI JUMPDEST POP DUP9 SWAP1 DUP6 DUP4 GT PUSH1 0x1 EQ PUSH3 0x2A2 JUMPI PUSH1 0x0 SWAP3 PUSH3 0x296 JUMPI JUMPDEST POP POP PUSH1 0x0 NOT DUP3 DUP7 SHL SHR NOT AND SWAP1 DUP7 SHL OR DUP4 SSTORE JUMPDEST DUP1 MLOAD SWAP4 DUP5 GT PUSH3 0x280 JUMPI PUSH1 0x4 SWAP6 DUP7 SLOAD DUP7 DUP2 DUP2 SHR SWAP2 AND DUP1 ISZERO PUSH3 0x275 JUMPI JUMPDEST DUP3 DUP3 LT EQ PUSH3 0x260 JUMPI DUP4 DUP2 GT PUSH3 0x215 JUMPI JUMPDEST POP DUP1 SWAP3 DUP6 GT PUSH1 0x1 EQ PUSH3 0x1A7 JUMPI POP SWAP4 DUP4 SWAP5 SWAP2 DUP5 SWAP3 PUSH1 0x0 SWAP6 PUSH3 0x19B JUMPI JUMPDEST POP POP SHL SWAP3 PUSH1 0x0 NOT SWAP2 SHL SHR NOT AND OR SWAP1 SSTORE JUMPDEST PUSH1 0x80 MSTORE PUSH1 0xA0 MSTORE PUSH1 0xC0 MSTORE PUSH1 0x40 MLOAD PUSH2 0xDF1 SWAP1 DUP2 PUSH3 0x433 DUP3 CODECOPY PUSH1 0x80 MLOAD DUP2 PUSH2 0x99D ADD MSTORE PUSH1 0xA0 MLOAD DUP2 DUP2 DUP2 PUSH2 0x283 ADD MSTORE DUP2 DUP2 PUSH2 0x599 ADD MSTORE PUSH2 0xA90 ADD MSTORE PUSH1 0xC0 MLOAD DUP2 PUSH2 0x6E8 ADD MSTORE RETURN JUMPDEST ADD MLOAD SWAP4 POP CODESIZE DUP1 PUSH3 0x149 JUMP JUMPDEST SWAP3 SWAP2 SWAP1 DUP5 PUSH1 0x1F NOT DUP2 AND DUP9 PUSH1 0x0 MSTORE DUP6 PUSH1 0x0 KECCAK256 SWAP6 PUSH1 0x0 SWAP1 JUMPDEST DUP10 DUP4 DUP4 LT PUSH3 0x1FA JUMPI POP POP POP LT PUSH3 0x1DF JUMPI JUMPDEST POP POP POP POP DUP2 SHL ADD SWAP1 SSTORE PUSH3 0x159 JUMP JUMPDEST ADD MLOAD SWAP1 PUSH1 0xF8 DUP5 PUSH1 0x0 NOT SWAP3 SHL AND SHR NOT AND SWAP1 SSTORE CODESIZE DUP1 DUP1 DUP1 PUSH3 0x1D0 JUMP JUMPDEST DUP6 DUP8 ADD MLOAD DUP10 SSTORE SWAP1 SWAP8 ADD SWAP7 SWAP5 DUP6 ADD SWAP5 DUP9 SWAP4 POP SWAP1 DUP2 ADD SWAP1 PUSH3 0x1BD JUMP JUMPDEST DUP8 PUSH1 0x0 MSTORE DUP2 PUSH1 0x0 KECCAK256 DUP5 DUP1 DUP9 ADD PUSH1 0x5 SHR DUP3 ADD SWAP3 DUP5 DUP10 LT PUSH3 0x256 JUMPI JUMPDEST ADD PUSH1 0x5 SHR ADD SWAP1 DUP8 SWAP1 JUMPDEST DUP3 DUP2 LT PUSH3 0x249 JUMPI POP POP PUSH3 0x12C JUMP JUMPDEST PUSH1 0x0 DUP2 SSTORE ADD DUP8 SWAP1 PUSH3 0x239 JUMP JUMPDEST SWAP3 POP DUP2 SWAP3 PUSH3 0x230 JUMP JUMPDEST PUSH1 0x22 DUP9 PUSH4 0x4E487B71 PUSH1 0xE0 SHL PUSH1 0x0 MSTORE MSTORE PUSH1 0x24 PUSH1 0x0 REVERT JUMPDEST SWAP1 PUSH1 0x7F AND SWAP1 PUSH3 0x11A JUMP JUMPDEST PUSH4 0x4E487B71 PUSH1 0xE0 SHL PUSH1 0x0 MSTORE PUSH1 0x41 PUSH1 0x4 MSTORE PUSH1 0x24 PUSH1 0x0 REVERT JUMPDEST ADD MLOAD SWAP1 POP CODESIZE DUP1 PUSH3 0xEB JUMP JUMPDEST SWAP1 DUP9 SWAP4 POP PUSH1 0x1F NOT DUP4 AND SWAP2 DUP8 PUSH1 0x0 MSTORE DUP11 PUSH1 0x0 KECCAK256 SWAP3 PUSH1 0x0 JUMPDEST DUP13 DUP3 DUP3 LT PUSH3 0x2F2 JUMPI POP POP DUP5 GT PUSH3 0x2D9 JUMPI JUMPDEST POP POP POP DUP2 SHL ADD DUP4 SSTORE PUSH3 0xFD JUMP JUMPDEST ADD MLOAD PUSH1 0x0 NOT DUP4 DUP9 SHL PUSH1 0xF8 AND SHR NOT AND SWAP1 SSTORE CODESIZE DUP1 DUP1 PUSH3 0x2CB JUMP JUMPDEST DUP4 DUP6 ADD MLOAD DUP7 SSTORE DUP13 SWAP8 SWAP1 SWAP6 ADD SWAP5 SWAP4 DUP5 ADD SWAP4 ADD PUSH3 0x2B8 JUMP JUMPDEST SWAP1 SWAP2 POP DUP6 PUSH1 0x0 MSTORE DUP9 PUSH1 0x0 KECCAK256 DUP6 DUP1 DUP6 ADD PUSH1 0x5 SHR DUP3 ADD SWAP3 DUP12 DUP7 LT PUSH3 0x355 JUMPI JUMPDEST SWAP2 DUP11 SWAP2 DUP7 SWAP6 SWAP5 SWAP4 ADD PUSH1 0x5 SHR ADD SWAP2 JUMPDEST DUP3 DUP2 LT PUSH3 0x345 JUMPI POP POP PUSH3 0xD4 JUMP JUMPDEST PUSH1 0x0 DUP2 SSTORE DUP6 SWAP5 POP DUP11 SWAP2 ADD PUSH3 0x335 JUMP JUMPDEST SWAP3 POP DUP2 SWAP3 PUSH3 0x327 JUMP JUMPDEST PUSH4 0x4E487B71 PUSH1 0xE0 SHL PUSH1 0x0 MSTORE PUSH1 0x22 PUSH1 0x4 MSTORE PUSH1 0x24 PUSH1 0x0 REVERT JUMPDEST SWAP4 PUSH1 0x7F AND SWAP4 PUSH3 0xBD JUMP JUMPDEST PUSH1 0x0 DUP1 REVERT JUMPDEST PUSH1 0x40 MLOAD SWAP2 SWAP1 PUSH1 0x1F ADD PUSH1 0x1F NOT AND DUP3 ADD PUSH1 0x1 PUSH1 0x1 PUSH1 0x40 SHL SUB DUP2 GT DUP4 DUP3 LT OR PUSH3 0x280 JUMPI PUSH1 0x40 MSTORE JUMP JUMPDEST MLOAD SWAP1 PUSH1 0x1 PUSH1 0x1 PUSH1 0xA0 SHL SUB DUP3 AND DUP3 SUB PUSH3 0x380 JUMPI JUMP JUMPDEST SWAP2 SWAP1 DUP1 PUSH1 0x1F DUP5 ADD SLT ISZERO PUSH3 0x380 JUMPI DUP3 MLOAD PUSH1 0x1 PUSH1 0x1 PUSH1 0x40 SHL SUB DUP2 GT PUSH3 0x280 JUMPI PUSH1 0x20 SWAP1 PUSH3 0x3F6 PUSH1 0x1F DUP3 ADD PUSH1 0x1F NOT AND DUP4 ADD PUSH3 0x385 JUMP JUMPDEST SWAP3 DUP2 DUP5 MSTORE DUP3 DUP3 DUP8 ADD ADD GT PUSH3 0x380 JUMPI PUSH1 0x0 JUMPDEST DUP2 DUP2 LT PUSH3 0x41E JUMPI POP DUP3 PUSH1 0x0 SWAP4 SWAP5 SWAP6 POP ADD ADD MSTORE SWAP1 JUMP JUMPDEST DUP6 DUP2 ADD DUP4 ADD MLOAD DUP5 DUP3 ADD DUP5 ADD MSTORE DUP3 ADD PUSH3 0x408 JUMP INVALID PUSH1 0x80 PUSH1 0x40 DUP2 DUP2 MSTORE PUSH1 0x4 SWAP1 DUP2 CALLDATASIZE LT ISZERO PUSH2 0x16 JUMPI PUSH1 0x0 DUP1 REVERT JUMPDEST PUSH1 0x0 SWAP2 DUP3 CALLDATALOAD PUSH1 0xE0 SHR SWAP4 DUP5 PUSH4 0x1FFC9A7 EQ PUSH2 0x91B JUMPI POP DUP4 PUSH4 0x33964BE EQ PUSH2 0x90F JUMPI DUP4 PUSH4 0x6FDDE03 EQ PUSH2 0x81C JUMPI DUP4 PUSH4 0x95EA7B3 EQ PUSH2 0x7F3 JUMPI DUP4 PUSH4 0x18160DDD EQ PUSH2 0x7D5 JUMPI DUP4 PUSH4 0x23B872DD EQ PUSH2 0x70C JUMPI DUP4 PUSH4 0x313CE567 EQ PUSH2 0x6CF JUMPI DUP4 PUSH4 0x39509351 EQ PUSH2 0x680 JUMPI DUP4 PUSH4 0x40C10F19 EQ PUSH2 0x56C JUMPI DUP4 PUSH4 0x54FD4D50 EQ PUSH2 0x509 JUMPI DUP4 PUSH4 0x70A08231 EQ PUSH2 0x4D3 JUMPI DUP4 PUSH4 0x95D89B41 EQ PUSH2 0x3D0 JUMPI DUP4 PUSH4 0x9DC29FAC EQ PUSH2 0x256 JUMPI DUP4 PUSH4 0xA457C2D7 EQ PUSH2 0x1B0 JUMPI POP DUP3 PUSH4 0xA9059CBB EQ PUSH2 0x181 JUMPI DUP3 PUSH4 0xAE1F6AAF EQ PUSH2 0x176 JUMPI DUP3 PUSH4 0xC01E1BD6 EQ PUSH2 0x16B JUMPI DUP3 PUSH4 0xD6C0B2C4 EQ PUSH2 0x16B JUMPI DUP3 PUSH4 0xDD62ED3E EQ PUSH2 0x120 JUMPI POP POP DUP1 PUSH4 0xE78CEA92 EQ PUSH2 0x117 JUMPI PUSH4 0xEE9A31A2 EQ PUSH2 0x10F JUMPI JUMPDEST PUSH1 0x0 DUP1 REVERT JUMPDEST PUSH2 0x10A PUSH2 0xA79 JUMP JUMPDEST POP PUSH2 0x10A PUSH2 0xA79 JUMP JUMPDEST CALLVALUE PUSH2 0x167 JUMPI DUP1 PUSH1 0x3 NOT CALLDATASIZE ADD SLT PUSH2 0x167 JUMPI DUP1 PUSH1 0x20 SWAP3 PUSH2 0x13C PUSH2 0xA15 JUMP JUMPDEST PUSH2 0x144 PUSH2 0xA2B JUMP JUMPDEST PUSH1 0x1 PUSH1 0x1 PUSH1 0xA0 SHL SUB SWAP2 DUP3 AND DUP4 MSTORE PUSH1 0x1 DUP7 MSTORE DUP4 DUP4 KECCAK256 SWAP2 AND DUP3 MSTORE DUP5 MSTORE KECCAK256 SLOAD SWAP1 MLOAD SWAP1 DUP2 MSTORE RETURN JUMPDEST POP DUP1 REVERT JUMPDEST POP POP POP PUSH2 0x10A PUSH2 0x986 JUMP JUMPDEST POP POP POP PUSH2 0x10A PUSH2 0xA79 JUMP JUMPDEST CALLVALUE PUSH2 0x167 JUMPI DUP1 PUSH1 0x3 NOT CALLDATASIZE ADD SLT PUSH2 0x167 JUMPI PUSH1 0x20 SWAP1 PUSH2 0x1A9 PUSH2 0x19F PUSH2 0xA15 JUMP JUMPDEST PUSH1 0x24 CALLDATALOAD SWAP1 CALLER PUSH2 0xAE2 JUMP JUMPDEST MLOAD PUSH1 0x1 DUP2 MSTORE RETURN JUMPDEST DUP3 CALLVALUE PUSH2 0x253 JUMPI DUP3 PUSH1 0x3 NOT CALLDATASIZE ADD SLT PUSH2 0x253 JUMPI PUSH2 0x1C9 PUSH2 0xA15 JUMP JUMPDEST SWAP2 DUP4 PUSH1 0x24 CALLDATALOAD SWAP3 CALLER DUP2 MSTORE PUSH1 0x1 PUSH1 0x20 MSTORE DUP2 DUP2 KECCAK256 PUSH1 0x1 DUP1 PUSH1 0xA0 SHL SUB DUP7 AND DUP3 MSTORE PUSH1 0x20 MSTORE KECCAK256 SLOAD SWAP1 DUP3 DUP3 LT PUSH2 0x202 JUMPI PUSH1 0x20 DUP6 PUSH2 0x1A9 DUP6 DUP6 SUB DUP8 CALLER PUSH2 0xC50 JUMP JUMPDEST PUSH1 0x84 SWAP1 PUSH1 0x20 DUP7 MLOAD SWAP2 PUSH3 0x461BCD PUSH1 0xE5 SHL DUP4 MSTORE DUP3 ADD MSTORE PUSH1 0x25 PUSH1 0x24 DUP3 ADD MSTORE PUSH32 0x45524332303A2064656372656173656420616C6C6F77616E63652062656C6F77 PUSH1 0x44 DUP3 ADD MSTORE PUSH5 0x207A65726F PUSH1 0xD8 SHL PUSH1 0x64 DUP3 ADD MSTORE REVERT JUMPDEST DUP1 REVERT JUMPDEST SWAP1 CALLVALUE PUSH2 0x3CC JUMPI DUP1 PUSH1 0x3 NOT CALLDATASIZE ADD SLT PUSH2 0x3CC JUMPI PUSH2 0x26F PUSH2 0xA15 JUMP JUMPDEST PUSH1 0x24 CALLDATALOAD SWAP2 SWAP1 PUSH1 0x1 PUSH1 0x1 PUSH1 0xA0 SHL SUB SWAP1 PUSH2 0x2AA CALLER PUSH32 0x0 DUP5 AND EQ PUSH2 0xD52 JUMP JUMPDEST AND SWAP3 DUP4 ISZERO PUSH2 0x380 JUMPI DUP4 DUP6 MSTORE DUP5 PUSH1 0x20 MSTORE DUP2 DUP6 KECCAK256 SLOAD SWAP1 DUP4 DUP3 LT PUSH2 0x332 JUMPI POP SWAP2 PUSH1 0x20 SWAP2 DUP2 PUSH32 0xCC16F5DBB4873280815C1EE09DBD06736CFFCC184412CF7A71A0FDB75D397CA5 SWAP5 DUP7 DUP9 MSTORE DUP8 DUP6 MSTORE SUB DUP2 DUP8 KECCAK256 SSTORE DUP2 PUSH1 0x2 SLOAD SUB PUSH1 0x2 SSTORE DUP6 DUP6 PUSH32 0xDDF252AD1BE2C89B69C2B068FC378DAA952BA7F163C4A11628F55A4DF523B3EF DUP6 DUP5 MLOAD DUP7 DUP2 MSTORE LOG3 MLOAD SWAP1 DUP2 MSTORE LOG2 DUP1 RETURN JUMPDEST PUSH1 0x84 SWAP1 PUSH1 0x20 DUP5 MLOAD SWAP2 PUSH3 0x461BCD PUSH1 0xE5 SHL DUP4 MSTORE DUP3 ADD MSTORE PUSH1 0x22 PUSH1 0x24 DUP3 ADD MSTORE PUSH32 0x45524332303A206275726E20616D6F756E7420657863656564732062616C616E PUSH1 0x44 DUP3 ADD MSTORE PUSH2 0x6365 PUSH1 0xF0 SHL PUSH1 0x64 DUP3 ADD MSTORE REVERT JUMPDEST PUSH1 0x20 PUSH1 0x84 SWAP3 MLOAD SWAP2 PUSH3 0x461BCD PUSH1 0xE5 SHL DUP4 MSTORE DUP3 ADD MSTORE PUSH1 0x21 PUSH1 0x24 DUP3 ADD MSTORE PUSH32 0x45524332303A206275726E2066726F6D20746865207A65726F20616464726573 PUSH1 0x44 DUP3 ADD MSTORE PUSH1 0x73 PUSH1 0xF8 SHL PUSH1 0x64 DUP3 ADD MSTORE REVERT JUMPDEST DUP3 DUP1 REVERT JUMPDEST SWAP3 POP CALLVALUE PUSH2 0x167 JUMPI DUP2 PUSH1 0x3 NOT CALLDATASIZE ADD SLT PUSH2 0x167 JUMPI DUP1 MLOAD SWAP2 DUP1 SWAP4 DUP1 SLOAD SWAP2 PUSH1 0x1 SWAP1 DUP4 DUP3 SHR SWAP3 DUP3 DUP6 AND SWAP5 DUP6 ISZERO PUSH2 0x4C9 JUMPI JUMPDEST PUSH1 0x20 SWAP6 DUP7 DUP7 LT DUP2 EQ PUSH2 0x4B6 JUMPI DUP6 DUP10 MSTORE SWAP1 DUP2 ISZERO PUSH2 0x492 JUMPI POP PUSH1 0x1 EQ PUSH2 0x43A JUMPI JUMPDEST PUSH2 0x436 DUP8 DUP8 PUSH2 0x42C DUP3 DUP13 SUB DUP4 PUSH2 0xA41 JUMP JUMPDEST MLOAD SWAP2 DUP3 SWAP2 DUP3 PUSH2 0x9CC JUMP JUMPDEST SUB SWAP1 RETURN JUMPDEST DUP2 MSTORE SWAP3 SWAP6 POP PUSH32 0x8A35ACFBC15FF81A39AE7D344FD709F28E8600B4AA8C65C6B64BFE7FE36BD19B JUMPDEST DUP3 DUP5 LT PUSH2 0x47F JUMPI POP POP POP DUP3 PUSH2 0x436 SWAP5 PUSH2 0x42C SWAP3 DUP3 ADD ADD SWAP5 CODESIZE DUP1 PUSH2 0x41B JUMP JUMPDEST DUP1 SLOAD DUP7 DUP6 ADD DUP9 ADD MSTORE SWAP3 DUP7 ADD SWAP3 DUP2 ADD PUSH2 0x461 JUMP JUMPDEST PUSH1 0xFF NOT AND DUP9 DUP8 ADD MSTORE POP POP POP POP ISZERO ISZERO PUSH1 0x5 SHL DUP4 ADD ADD SWAP3 POP PUSH2 0x42C DUP3 PUSH2 0x436 CODESIZE DUP1 PUSH2 0x41B JUMP JUMPDEST PUSH4 0x4E487B71 PUSH1 0xE0 SHL DUP5 MSTORE PUSH1 0x22 DUP4 MSTORE PUSH1 0x24 DUP5 REVERT JUMPDEST SWAP4 PUSH1 0x7F AND SWAP4 PUSH2 0x3FC JUMP JUMPDEST POP CALLVALUE PUSH2 0x167 JUMPI PUSH1 0x20 CALLDATASIZE PUSH1 0x3 NOT ADD SLT PUSH2 0x167 JUMPI PUSH1 0x20 SWAP2 DUP2 SWAP1 PUSH1 0x1 PUSH1 0x1 PUSH1 0xA0 SHL SUB PUSH2 0x4FA PUSH2 0xA15 JUMP JUMPDEST AND DUP2 MSTORE DUP1 DUP5 MSTORE KECCAK256 SLOAD SWAP1 MLOAD SWAP1 DUP2 MSTORE RETURN JUMPDEST SWAP3 POP CALLVALUE PUSH2 0x167 JUMPI DUP2 PUSH1 0x3 NOT CALLDATASIZE ADD SLT PUSH2 0x167 JUMPI DUP1 MLOAD SWAP2 DUP2 DUP4 ADD SWAP1 DUP4 DUP3 LT PUSH8 0xFFFFFFFFFFFFFFFF DUP4 GT OR PUSH2 0x559 JUMPI POP PUSH2 0x436 SWAP4 POP DUP2 MSTORE PUSH1 0x5 DUP3 MSTORE PUSH5 0x312E332E3 PUSH1 0xDC SHL PUSH1 0x20 DUP4 ADD MSTORE MLOAD SWAP2 DUP3 SWAP2 DUP3 PUSH2 0x9CC JUMP JUMPDEST PUSH4 0x4E487B71 PUSH1 0xE0 SHL DUP2 MSTORE PUSH1 0x41 DUP6 MSTORE PUSH1 0x24 SWAP1 REVERT JUMPDEST SWAP1 CALLVALUE PUSH2 0x3CC JUMPI DUP1 PUSH1 0x3 NOT CALLDATASIZE ADD SLT PUSH2 0x3CC JUMPI PUSH2 0x585 PUSH2 0xA15 JUMP JUMPDEST PUSH1 0x24 CALLDATALOAD SWAP2 SWAP1 PUSH1 0x1 PUSH1 0x1 PUSH1 0xA0 SHL SUB SWAP1 PUSH2 0x5C0 CALLER PUSH32 0x0 DUP5 AND EQ PUSH2 0xD52 JUMP JUMPDEST AND SWAP3 DUP4 ISZERO PUSH2 0x63E JUMPI POP DUP2 PUSH1 0x20 SWAP2 PUSH2 0x5FA PUSH32 0xF6798A560793A54C3BCFE86A93CDE1E73087D944C0EA20544137D4121396885 SWAP5 PUSH1 0x2 SLOAD PUSH2 0xABF JUMP JUMPDEST PUSH1 0x2 SSTORE DUP5 DUP7 MSTORE DUP6 DUP4 MSTORE DUP1 DUP7 KECCAK256 DUP3 DUP2 SLOAD ADD SWAP1 SSTORE DUP5 DUP7 PUSH32 0xDDF252AD1BE2C89B69C2B068FC378DAA952BA7F163C4A11628F55A4DF523B3EF DUP6 DUP5 MLOAD DUP7 DUP2 MSTORE LOG3 MLOAD SWAP1 DUP2 MSTORE LOG2 DUP1 RETURN JUMPDEST PUSH1 0x20 PUSH1 0x64 SWAP3 MLOAD SWAP2 PUSH3 0x461BCD PUSH1 0xE5 SHL DUP4 MSTORE DUP3 ADD MSTORE PUSH1 0x1F PUSH1 0x24 DUP3 ADD MSTORE PUSH32 0x45524332303A206D696E7420746F20746865207A65726F206164647265737300 PUSH1 0x44 DUP3 ADD MSTORE REVERT JUMPDEST POP CALLVALUE PUSH2 0x167 JUMPI DUP1 PUSH1 0x3 NOT CALLDATASIZE ADD SLT PUSH2 0x167 JUMPI PUSH2 0x1A9 PUSH1 0x20 SWAP3 PUSH2 0x6C8 PUSH2 0x6A2 PUSH2 0xA15 JUMP JUMPDEST CALLER DUP4 MSTORE PUSH1 0x1 DUP7 MSTORE DUP5 DUP4 KECCAK256 PUSH1 0x1 PUSH1 0x1 PUSH1 0xA0 SHL SUB DUP3 AND DUP5 MSTORE DUP7 MSTORE SWAP2 DUP5 SWAP1 KECCAK256 SLOAD PUSH1 0x24 CALLDATALOAD SWAP1 PUSH2 0xABF JUMP JUMPDEST SWAP1 CALLER PUSH2 0xC50 JUMP JUMPDEST POP CALLVALUE PUSH2 0x167 JUMPI DUP2 PUSH1 0x3 NOT CALLDATASIZE ADD SLT PUSH2 0x167 JUMPI PUSH1 0x20 SWAP1 MLOAD PUSH1 0xFF PUSH32 0x0 AND DUP2 MSTORE RETURN JUMPDEST DUP3 SWAP1 CALLVALUE PUSH2 0x167 JUMPI PUSH1 0x60 CALLDATASIZE PUSH1 0x3 NOT ADD SLT PUSH2 0x167 JUMPI PUSH2 0x727 PUSH2 0xA15 JUMP JUMPDEST PUSH2 0x72F PUSH2 0xA2B JUMP JUMPDEST SWAP2 DUP5 PUSH1 0x44 CALLDATALOAD SWAP5 PUSH1 0x1 DUP1 PUSH1 0xA0 SHL SUB DUP5 AND DUP2 MSTORE PUSH1 0x1 PUSH1 0x20 MSTORE DUP2 DUP2 KECCAK256 CALLER DUP3 MSTORE PUSH1 0x20 MSTORE KECCAK256 SLOAD SWAP1 PUSH1 0x0 NOT DUP3 SUB PUSH2 0x769 JUMPI JUMPDEST PUSH1 0x20 DUP7 PUSH2 0x1A9 DUP8 DUP8 DUP8 PUSH2 0xAE2 JUMP JUMPDEST DUP5 DUP3 LT PUSH2 0x792 JUMPI POP SWAP2 DUP4 SWAP2 PUSH2 0x787 PUSH1 0x20 SWAP7 SWAP6 PUSH2 0x1A9 SWAP6 SUB CALLER DUP4 PUSH2 0xC50 JUMP JUMPDEST SWAP2 SWAP4 SWAP5 DUP2 SWAP4 POP PUSH2 0x75B JUMP JUMPDEST PUSH1 0x64 SWAP1 PUSH1 0x20 DUP8 MLOAD SWAP2 PUSH3 0x461BCD PUSH1 0xE5 SHL DUP4 MSTORE DUP3 ADD MSTORE PUSH1 0x1D PUSH1 0x24 DUP3 ADD MSTORE PUSH32 0x45524332303A20696E73756666696369656E7420616C6C6F77616E6365000000 PUSH1 0x44 DUP3 ADD MSTORE REVERT JUMPDEST POP CALLVALUE PUSH2 0x167 JUMPI DUP2 PUSH1 0x3 NOT CALLDATASIZE ADD SLT PUSH2 0x167 JUMPI PUSH1 0x20 SWAP1 PUSH1 0x2 SLOAD SWAP1 MLOAD SWAP1 DUP2 MSTORE RETURN JUMPDEST POP CALLVALUE PUSH2 0x167 JUMPI DUP1 PUSH1 0x3 NOT CALLDATASIZE ADD SLT PUSH2 0x167 JUMPI PUSH1 0x20 SWAP1 PUSH2 0x1A9 PUSH2 0x812 PUSH2 0xA15 JUMP JUMPDEST PUSH1 0x24 CALLDATALOAD SWAP1 CALLER PUSH2 0xC50 JUMP JUMPDEST SWAP1 CALLVALUE PUSH2 0x3CC JUMPI DUP3 PUSH1 0x3 NOT CALLDATASIZE ADD SLT PUSH2 0x3CC JUMPI DUP1 MLOAD SWAP2 DUP4 PUSH1 0x3 SLOAD SWAP1 PUSH1 0x1 SWAP1 DUP3 DUP3 SHR SWAP3 DUP3 DUP2 AND DUP1 ISZERO PUSH2 0x905 JUMPI JUMPDEST PUSH1 0x20 SWAP6 DUP7 DUP7 LT DUP3 EQ PUSH2 0x8F2 JUMPI POP DUP5 DUP9 MSTORE SWAP1 DUP2 ISZERO PUSH2 0x8D0 JUMPI POP PUSH1 0x1 EQ PUSH2 0x877 JUMPI JUMPDEST PUSH2 0x436 DUP7 DUP7 PUSH2 0x42C DUP3 DUP12 SUB DUP4 PUSH2 0xA41 JUMP JUMPDEST SWAP3 SWAP6 POP PUSH1 0x3 DUP4 MSTORE PUSH32 0xC2575A0E9E593C00F959F8C92F12DB2869C3395A3B0502D05E2516446F71F85B JUMPDEST DUP3 DUP5 LT PUSH2 0x8BD JUMPI POP POP POP DUP3 PUSH2 0x436 SWAP5 PUSH2 0x42C SWAP3 DUP3 ADD ADD SWAP5 DUP7 PUSH2 0x866 JUMP JUMPDEST DUP1 SLOAD DUP7 DUP6 ADD DUP9 ADD MSTORE SWAP3 DUP7 ADD SWAP3 DUP2 ADD PUSH2 0x8A0 JUMP JUMPDEST PUSH1 0xFF NOT AND DUP8 DUP7 ADD MSTORE POP POP POP ISZERO ISZERO PUSH1 0x5 SHL DUP4 ADD ADD SWAP3 POP PUSH2 0x42C DUP3 PUSH2 0x436 DUP7 PUSH2 0x866 JUMP JUMPDEST PUSH4 0x4E487B71 PUSH1 0xE0 SHL DUP5 MSTORE PUSH1 0x22 SWAP1 MSTORE PUSH1 0x24 DUP4 REVERT JUMPDEST SWAP4 PUSH1 0x7F AND SWAP4 PUSH2 0x846 JUMP JUMPDEST POP POP POP POP PUSH2 0x10A PUSH2 0x986 JUMP JUMPDEST SWAP2 POP CALLVALUE PUSH2 0x3CC JUMPI PUSH1 0x20 CALLDATASIZE PUSH1 0x3 NOT ADD SLT PUSH2 0x3CC JUMPI CALLDATALOAD PUSH4 0xFFFFFFFF PUSH1 0xE0 SHL DUP2 AND DUP1 SWAP2 SUB PUSH2 0x3CC JUMPI PUSH1 0x20 SWAP3 POP PUSH4 0x1FFC9A7 PUSH1 0xE0 SHL DUP2 EQ SWAP1 DUP2 ISZERO PUSH2 0x975 JUMPI JUMPDEST DUP2 ISZERO PUSH2 0x964 JUMPI JUMPDEST POP ISZERO ISZERO DUP2 MSTORE RETURN JUMPDEST PUSH4 0xEC4FC8E3 PUSH1 0xE0 SHL EQ SWAP1 POP DUP4 PUSH2 0x95D JUMP JUMPDEST PUSH4 0x1D1D8B63 PUSH1 0xE0 SHL DUP2 EQ SWAP2 POP PUSH2 0x956 JUMP JUMPDEST POP CALLVALUE PUSH2 0x10A JUMPI PUSH1 0x0 CALLDATASIZE PUSH1 0x3 NOT ADD SLT PUSH2 0x10A JUMPI PUSH1 0x40 MLOAD PUSH32 0x0 PUSH1 0x1 PUSH1 0x1 PUSH1 0xA0 SHL SUB AND DUP2 MSTORE PUSH1 0x20 SWAP1 RETURN JUMPDEST PUSH1 0x20 DUP1 DUP3 MSTORE DUP3 MLOAD DUP2 DUP4 ADD DUP2 SWAP1 MSTORE SWAP1 SWAP4 SWAP3 PUSH1 0x0 JUMPDEST DUP3 DUP2 LT PUSH2 0xA01 JUMPI POP POP PUSH1 0x40 SWAP3 SWAP4 POP PUSH1 0x0 DUP4 DUP3 DUP5 ADD ADD MSTORE PUSH1 0x1F DUP1 NOT SWAP2 ADD AND ADD ADD SWAP1 JUMP JUMPDEST DUP2 DUP2 ADD DUP7 ADD MLOAD DUP5 DUP3 ADD PUSH1 0x40 ADD MSTORE DUP6 ADD PUSH2 0x9DF JUMP JUMPDEST PUSH1 0x4 CALLDATALOAD SWAP1 PUSH1 0x1 PUSH1 0x1 PUSH1 0xA0 SHL SUB DUP3 AND DUP3 SUB PUSH2 0x10A JUMPI JUMP JUMPDEST PUSH1 0x24 CALLDATALOAD SWAP1 PUSH1 0x1 PUSH1 0x1 PUSH1 0xA0 SHL SUB DUP3 AND DUP3 SUB PUSH2 0x10A JUMPI JUMP JUMPDEST SWAP1 PUSH1 0x1F DUP1 NOT SWAP2 ADD AND DUP2 ADD SWAP1 DUP2 LT PUSH8 0xFFFFFFFFFFFFFFFF DUP3 GT OR PUSH2 0xA63 JUMPI PUSH1 0x40 MSTORE JUMP JUMPDEST PUSH4 0x4E487B71 PUSH1 0xE0 SHL PUSH1 0x0 MSTORE PUSH1 0x41 PUSH1 0x4 MSTORE PUSH1 0x24 PUSH1 0x0 REVERT JUMPDEST POP CALLVALUE PUSH2 0x10A JUMPI PUSH1 0x0 CALLDATASIZE PUSH1 0x3 NOT ADD SLT PUSH2 0x10A JUMPI PUSH1 0x40 MLOAD PUSH32 0x0 PUSH1 0x1 PUSH1 0x1 PUSH1 0xA0 SHL SUB AND DUP2 MSTORE PUSH1 0x20 SWAP1 RETURN JUMPDEST SWAP2 SWAP1 DUP3 ADD DUP1 SWAP3 GT PUSH2 0xACC JUMPI JUMP JUMPDEST PUSH4 0x4E487B71 PUSH1 0xE0 SHL PUSH1 0x0 MSTORE PUSH1 0x11 PUSH1 0x4 MSTORE PUSH1 0x24 PUSH1 0x0 REVERT JUMPDEST PUSH1 0x1 PUSH1 0x1 PUSH1 0xA0 SHL SUB SWAP1 DUP2 AND SWAP2 DUP3 ISZERO PUSH2 0xBFD JUMPI AND SWAP2 DUP3 ISZERO PUSH2 0xBAC JUMPI PUSH1 0x0 DUP3 DUP2 MSTORE DUP1 PUSH1 0x20 MSTORE PUSH1 0x40 DUP2 KECCAK256 SLOAD SWAP2 DUP1 DUP4 LT PUSH2 0xB58 JUMPI PUSH1 0x40 DUP3 DUP3 PUSH32 0xDDF252AD1BE2C89B69C2B068FC378DAA952BA7F163C4A11628F55A4DF523B3EF SWAP6 DUP8 PUSH1 0x20 SWAP7 MSTORE DUP3 DUP7 MSTORE SUB DUP3 DUP3 KECCAK256 SSTORE DUP7 DUP2 MSTORE KECCAK256 DUP2 DUP2 SLOAD ADD SWAP1 SSTORE PUSH1 0x40 MLOAD SWAP1 DUP2 MSTORE LOG3 JUMP JUMPDEST PUSH1 0x40 MLOAD PUSH3 0x461BCD PUSH1 0xE5 SHL DUP2 MSTORE PUSH1 0x20 PUSH1 0x4 DUP3 ADD MSTORE PUSH1 0x26 PUSH1 0x24 DUP3 ADD MSTORE PUSH32 0x45524332303A207472616E7366657220616D6F756E7420657863656564732062 PUSH1 0x44 DUP3 ADD MSTORE PUSH6 0x616C616E6365 PUSH1 0xD0 SHL PUSH1 0x64 DUP3 ADD MSTORE PUSH1 0x84 SWAP1 REVERT JUMPDEST PUSH1 0x40 MLOAD PUSH3 0x461BCD PUSH1 0xE5 SHL DUP2 MSTORE PUSH1 0x20 PUSH1 0x4 DUP3 ADD MSTORE PUSH1 0x23 PUSH1 0x24 DUP3 ADD MSTORE PUSH32 0x45524332303A207472616E7366657220746F20746865207A65726F2061646472 PUSH1 0x44 DUP3 ADD MSTORE PUSH3 0x657373 PUSH1 0xE8 SHL PUSH1 0x64 DUP3 ADD MSTORE PUSH1 0x84 SWAP1 REVERT JUMPDEST PUSH1 0x40 MLOAD PUSH3 0x461BCD PUSH1 0xE5 SHL DUP2 MSTORE PUSH1 0x20 PUSH1 0x4 DUP3 ADD MSTORE PUSH1 0x25 PUSH1 0x24 DUP3 ADD MSTORE PUSH32 0x45524332303A207472616E736665722066726F6D20746865207A65726F206164 PUSH1 0x44 DUP3 ADD MSTORE PUSH5 0x6472657373 PUSH1 0xD8 SHL PUSH1 0x64 DUP3 ADD MSTORE PUSH1 0x84 SWAP1 REVERT JUMPDEST PUSH1 0x1 PUSH1 0x1 PUSH1 0xA0 SHL SUB SWAP1 DUP2 AND SWAP2 DUP3 ISZERO PUSH2 0xD01 JUMPI AND SWAP2 DUP3 ISZERO PUSH2 0xCB1 JUMPI PUSH1 0x20 PUSH32 0x8C5BE1E5EBEC7D5BD14F71427D1E84F3DD0314C0F7B2291E5B200AC8C7C3B925 SWAP2 DUP4 PUSH1 0x0 MSTORE PUSH1 0x1 DUP3 MSTORE PUSH1 0x40 PUSH1 0x0 KECCAK256 DUP6 PUSH1 0x0 MSTORE DUP3 MSTORE DUP1 PUSH1 0x40 PUSH1 0x0 KECCAK256 SSTORE PUSH1 0x40 MLOAD SWAP1 DUP2 MSTORE LOG3 JUMP JUMPDEST PUSH1 0x40 MLOAD PUSH3 0x461BCD PUSH1 0xE5 SHL DUP2 MSTORE PUSH1 0x20 PUSH1 0x4 DUP3 ADD MSTORE PUSH1 0x22 PUSH1 0x24 DUP3 ADD MSTORE PUSH32 0x45524332303A20617070726F766520746F20746865207A65726F206164647265 PUSH1 0x44 DUP3 ADD MSTORE PUSH2 0x7373 PUSH1 0xF0 SHL PUSH1 0x64 DUP3 ADD MSTORE PUSH1 0x84 SWAP1 REVERT JUMPDEST PUSH1 0x40 MLOAD PUSH3 0x461BCD PUSH1 0xE5 SHL DUP2 MSTORE PUSH1 0x20 PUSH1 0x4 DUP3 ADD MSTORE PUSH1 0x24 DUP1 DUP3 ADD MSTORE PUSH32 0x45524332303A20617070726F76652066726F6D20746865207A65726F20616464 PUSH1 0x44 DUP3 ADD MSTORE PUSH4 0x72657373 PUSH1 0xE0 SHL PUSH1 0x64 DUP3 ADD MSTORE PUSH1 0x84 SWAP1 REVERT JUMPDEST ISZERO PUSH2 0xD59 JUMPI JUMP JUMPDEST PUSH1 0x40 MLOAD PUSH3 0x461BCD PUSH1 0xE5 SHL DUP2 MSTORE PUSH1 0x20 PUSH1 0x4 DUP3 ADD MSTORE PUSH1 0x34 PUSH1 0x24 DUP3 ADD MSTORE PUSH32 0x466972656C696E6B4D696E7461626C6545524332303A206F6E6C792062726964 PUSH1 0x44 DUP3 ADD MSTORE PUSH20 0x33B29031B0B71036B4B73A1030B73210313AB937 PUSH1 0x61 SHL PUSH1 0x64 DUP3 ADD MSTORE PUSH1 0x84 SWAP1 REVERT INVALID LOG2 PUSH5 0x6970667358 0x22 SLT KECCAK256 RETURNDATASIZE PUSH21 0xD42D44EC403EFBFE643878BEC61619046547900A26 0xCF CALLVALUE DUP1 SWAP12 CALLDATALOAD PUSH11 0xC3EB3F64736F6C63430008 GT STOP CALLER "},"gasEstimates":{"creation":{"codeDepositCost":"713800","executionCost":"infinite","totalCost":"infinite"},"external":{"BRIDGE()":"infinite","REMOTE_TOKEN()":"infinite","allowance(address,address)":"2967","approve(address,uint256)":"24429","balanceOf(address)":"2649","bridge()":"infinite","burn(address,uint256)":"infinite","decimals()":"infinite","decreaseAllowance(address,uint256)":"26933","increaseAllowance(address,uint256)":"26827","l1Token()":"infinite","l2Bridge()":"infinite","mint(address,uint256)":"infinite","name()":"infinite","remoteToken()":"infinite","supportsInterface(bytes4)":"339","symbol()":"infinite","totalSupply()":"2366","transfer(address,uint256)":"51074","transferFrom(address,address,uint256)":"77427","version()":"infinite"}},"methodIdentifiers":{"BRIDGE()":"ee9a31a2","REMOTE_TOKEN()":"033964be","allowance(address,address)":"dd62ed3e","approve(address,uint256)":"095ea7b3","balanceOf(address)":"70a08231","bridge()":"e78cea92","burn(address,uint256)":"9dc29fac","decimals()":"313ce567","decreaseAllowance(address,uint256)":"a457c2d7","increaseAllowance(address,uint256)":"39509351","l1Token()":"c01e1bd6","l2Bridge()":"ae1f6aaf","mint(address,uint256)":"40c10f19","name()":"06fdde03","remoteToken()":"d6c0b2c4","supportsInterface(bytes4)":"01ffc9a7","symbol()":"95d89b41","totalSupply()":"18160ddd","transfer(address,uint256)":"a9059cbb","transferFrom(address,address,uint256)":"23b872dd","version()":"54fd4d50"}},"storageLayout":{"storage":[{"astId":4005,"contract":"contracts/FirelinkMintableERC20.sol:FirelinkMintableERC20","label":"_balances","offset":0,"slot":"0","type":"t_mapping(t_address,t_uint256)"},{"astId":4011,"contract":"contracts/FirelinkMintableERC20.sol:FirelinkMintableERC20","label":"_allowances","offset":0,"slot":"1","type":"t_mapping(t_address,t_mapping(t_address,t_uint256))"},{"astId":4013,"contract":"contracts/FirelinkMintableERC20.sol:FirelinkMintableERC20","label":"_totalSupply","offset":0,"slot":"2","type":"t_uint256"},{"astId":4015,"contract":"contracts/FirelinkMintableERC20.sol:FirelinkMintableERC20","label":"_name","offset":0,"slot":"3","type":"t_string_storage"},{"astId":4017,"contract":"contracts/FirelinkMintableERC20.sol:FirelinkMintableERC20","label":"_symbol","offset":0,"slot":"4","type":"t_string_storage"}],"types":{"t_address":{"encoding":"inplace","label":"address","numberOfBytes":"20"},"t_mapping(t_address,t_mapping(t_address,t_uint256))":{"encoding":"mapping","key":"t_address","label":"mapping(address => mapping(address => uint256))","numberOfBytes":"32","value":"t_mapping(t_address,t_uint256)"},"t_mapping(t_address,t_uint256)":{"encoding":"mapping","key":"t_address","label":"mapping(address => uint256)","numberOfBytes":"32","value":"t_uint256"},"t_string_storage":{"encoding":"bytes","label":"string","numberOfBytes":"32"},"t_uint256":{"encoding":"inplace","label":"uint256","numberOfBytes":"32"}}},"userdoc":{"events":{"Burn(address,uint256)":{"notice":"Emitted whenever tokens are burned from an account."},"Mint(address,uint256)":{"notice":"Emitted whenever tokens are minted for an account."}},"kind":"user","methods":{"BRIDGE()":{"notice":"Address of the StandardBridge on this network."},"REMOTE_TOKEN()":{"notice":"Address of the corresponding version of this token on the remote chain."},"burn(address,uint256)":{"notice":"Allows the StandardBridge on this network to burn tokens."},"mint(address,uint256)":{"notice":"Allows the StandardBridge on this network to mint tokens."},"supportsInterface(bytes4)":{"notice":"ERC165 interface check function."},"version()":{"notice":"Semantic version."}},"notice":"FirelinkMintableERC20 is a standard extension of the base ERC20 token contract designed         to allow the StandardBridge contracts to mint and burn tokens. This makes it possible to         use an FirelinkMintableRC20 as the L2 representation of an L1 token, or vice-versa.         Designed to be backwards compatible with the older StandardL2ERC20 token which was only         meant for use on L2.","version":1}}}}