{
  "_format": "hh-sol-artifact-1",
  "contractName": "FirelinkMintableERC20",
  "sourceName": "contracts/FirelinkMintableERC20.sol",
  "abi": [
    {
      "inputs": [
        {
          "internalType": "address",
          "name": "_bridge",
          "type": "address"
        },
        {
          "internalType": "address",
          "name": "_remoteToken",
          "type": "address"
        },
        {
          "internalType": "string",
          "name": "_name",
          "type": "string"
        },
        {
          "internalType": "string",
          "name": "_symbol",
          "type": "string"
        },
        {
          "internalType": "uint8",
          "name": "_decimals",
          "type": "uint8"
        }
      ],
      "stateMutability": "nonpayable",
      "type": "constructor"
    },
    {
      "anonymous": false,
      "inputs": [
        {
          "indexed": true,
          "internalType": "address",
          "name": "owner",
          "type": "address"
        },
        {
          "indexed": true,
          "internalType": "address",
          "name": "spender",
          "type": "address"
        },
        {
          "indexed": false,
          "internalType": "uint256",
          "name": "value",
          "type": "uint256"
        }
      ],
      "name": "Approval",
      "type": "event"
    },
    {
      "anonymous": false,
      "inputs": [
        {
          "indexed": true,
          "internalType": "address",
          "name": "account",
          "type": "address"
        },
        {
          "indexed": false,
          "internalType": "uint256",
          "name": "amount",
          "type": "uint256"
        }
      ],
      "name": "Burn",
      "type": "event"
    },
    {
      "anonymous": false,
      "inputs": [
        {
          "indexed": true,
          "internalType": "address",
          "name": "account",
          "type": "address"
        },
        {
          "indexed": false,
          "internalType": "uint256",
          "name": "amount",
          "type": "uint256"
        }
      ],
      "name": "Mint",
      "type": "event"
    },
    {
      "anonymous": false,
      "inputs": [
        {
          "indexed": true,
          "internalType": "address",
          "name": "from",
          "type": "address"
        },
        {
          "indexed": true,
          "internalType": "address",
          "name": "to",
          "type": "address"
        },
        {
          "indexed": false,
          "internalType": "uint256",
          "name": "value",
          "type": "uint256"
        }
      ],
      "name": "Transfer",
      "type": "event"
    },
    {
      "inputs": [],
      "name": "BRIDGE",
      "outputs": [
        {
          "internalType": "address",
          "name": "",
          "type": "address"
        }
      ],
      "stateMutability": "view",
      "type": "function"
    },
    {
      "inputs": [],
      "name": "REMOTE_TOKEN",
      "outputs": [
        {
          "internalType": "address",
          "name": "",
          "type": "address"
        }
      ],
      "stateMutability": "view",
      "type": "function"
    },
    {
      "inputs": [
        {
          "internalType": "address",
          "name": "owner",
          "type": "address"
        },
        {
          "internalType": "address",
          "name": "spender",
          "type": "address"
        }
      ],
      "name": "allowance",
      "outputs": [
        {
          "internalType": "uint256",
          "name": "",
          "type": "uint256"
        }
      ],
      "stateMutability": "view",
      "type": "function"
    },
    {
      "inputs": [
        {
          "internalType": "address",
          "name": "spender",
          "type": "address"
        },
        {
          "internalType": "uint256",
          "name": "amount",
          "type": "uint256"
        }
      ],
      "name": "approve",
      "outputs": [
        {
          "internalType": "bool",
          "name": "",
          "type": "bool"
        }
      ],
      "stateMutability": "nonpayable",
      "type": "function"
    },
    {
      "inputs": [
        {
          "internalType": "address",
          "name": "account",
          "type": "address"
        }
      ],
      "name": "balanceOf",
      "outputs": [
        {
          "internalType": "uint256",
          "name": "",
          "type": "uint256"
        }
      ],
      "stateMutability": "view",
      "type": "function"
    },
    {
      "inputs": [],
      "name": "bridge",
      "outputs": [
        {
          "internalType": "address",
          "name": "",
          "type": "address"
        }
      ],
      "stateMutability": "view",
      "type": "function"
    },
    {
      "inputs": [
        {
          "internalType": "address",
          "name": "_from",
          "type": "address"
        },
        {
          "internalType": "uint256",
          "name": "_amount",
          "type": "uint256"
        }
      ],
      "name": "burn",
      "outputs": [],
      "stateMutability": "nonpayable",
      "type": "function"
    },
    {
      "inputs": [],
      "name": "decimals",
      "outputs": [
        {
          "internalType": "uint8",
          "name": "",
          "type": "uint8"
        }
      ],
      "stateMutability": "view",
      "type": "function"
    },
    {
      "inputs": [
        {
          "internalType": "address",
          "name": "spender",
          "type": "address"
        },
        {
          "internalType": "uint256",
          "name": "subtractedValue",
          "type": "uint256"
        }
      ],
      "name": "decreaseAllowance",
      "outputs": [
        {
          "internalType": "bool",
          "name": "",
          "type": "bool"
        }
      ],
      "stateMutability": "nonpayable",
      "type": "function"
    },
    {
      "inputs": [
        {
          "internalType": "address",
          "name": "spender",
          "type": "address"
        },
        {
          "internalType": "uint256",
          "name": "addedValue",
          "type": "uint256"
        }
      ],
      "name": "increaseAllowance",
      "outputs": [
        {
          "internalType": "bool",
          "name": "",
          "type": "bool"
        }
      ],
      "stateMutability": "nonpayable",
      "type": "function"
    },
    {
      "inputs": [],
      "name": "l1Token",
      "outputs": [
        {
          "internalType": "address",
          "name": "",
          "type": "address"
        }
      ],
      "stateMutability": "view",
      "type": "function"
    },
    {
      "inputs": [],
      "name": "l2Bridge",
      "outputs": [
        {
          "internalType": "address",
          "name": "",
          "type": "address"
        }
      ],
      "stateMutability": "view",
      "type": "function"
    },
    {
      "inputs": [
        {
          "internalType": "address",
          "name": "_to",
          "type": "address"
        },
        {
          "internalType": "uint256",
          "name": "_amount",
          "type": "uint256"
        }
      ],
      "name": "mint",
      "outputs": [],
      "stateMutability": "nonpayable",
      "type": "function"
    },
    {
      "inputs": [],
      "name": "name",
      "outputs": [
        {
          "internalType": "string",
          "name": "",
          "type": "string"
        }
      ],
      "stateMutability": "view",
      "type": "function"
    },
    {
      "inputs": [],
      "name": "remoteToken",
      "outputs": [
        {
          "internalType": "address",
          "name": "",
          "type": "address"
        }
      ],
      "stateMutability": "view",
      "type": "function"
    },
    {
      "inputs": [
        {
          "internalType": "bytes4",
          "name": "_interfaceId",
          "type": "bytes4"
        }
      ],
      "name": "supportsInterface",
      "outputs": [
        {
          "internalType": "bool",
          "name": "",
          "type": "bool"
        }
      ],
      "stateMutability": "pure",
      "type": "function"
    },
    {
      "inputs": [],
      "name": "symbol",
      "outputs": [
        {
          "internalType": "string",
          "name": "",
          "type": "string"
        }
      ],
      "stateMutability": "view",
      "type": "function"
    },
    {
      "inputs": [],
      "name": "totalSupply",
      "outputs": [
        {
          "internalType": "uint256",
          "name": "",
          "type": "uint256"
        }
      ],
      "stateMutability": "view",
      "type": "function"
    },
    {
      "inputs": [
        {
          "internalType": "address",
          "name": "to",
          "type": "address"
        },
        {
          "internalType": "uint256",
          "name": "amount",
          "type": "uint256"
        }
      ],
      "name": "transfer",
      "outputs": [
        {
          "internalType": "bool",
          "name": "",
          "type": "bool"
        }
      ],
      "stateMutability": "nonpayable",
      "type": "function"
    },
    {
      "inputs": [
        {
          "internalType": "address",
          "name": "from",
          "type": "address"
        },
        {
          "internalType": "address",
          "name": "to",
          "type": "address"
        },
        {
          "internalType": "uint256",
          "name": "amount",
          "type": "uint256"
        }
      ],
      "name": "transferFrom",
      "outputs": [
        {
          "internalType": "bool",
          "name": "",
          "type": "bool"
        }
      ],
      "stateMutability": "nonpayable",
      "type": "function"
    },
    {
      "inputs": [],
      "name": "version",
      "outputs": [
        {
          "internalType": "string",
          "name": "",
          "type": "string"
        }
      ],
      "stateMutability": "view",
      "type": "function"
    }
  ],
  "bytecode": "0x60e060405234620003805762001224803803806200001d8162000385565b928339810160a08282031262000380576200003882620003ab565b90602062000048818501620003ab565b60408501519092906001600160401b03908181116200038057826200006f918801620003c0565b91606087015182811162000380576080916200008d918901620003c0565b9601519560ff871687036200038057825182811162000280576003918254916001958684811c9416801562000375575b888510146200035f578190601f9485811162000309575b508890858311600114620002a25760009262000296575b505060001982861b1c191690861b1783555b8051938411620002805760049586548681811c9116801562000275575b82821014620002605783811162000215575b5080928511600114620001a757509383949184926000956200019b575b50501b92600019911b1c19161790555b60805260a05260c052604051610df190816200043382396080518161099d015260a051818181610283015281816105990152610a90015260c051816106e80152f35b01519350388062000149565b92919084601f1981168860005285600020956000905b89838310620001fa5750505010620001df575b50505050811b01905562000159565b01519060f884600019921b161c1916905538808080620001d0565b858701518955909701969485019488935090810190620001bd565b87600052816000208480880160051c82019284891062000256575b0160051c019087905b828110620002495750506200012c565b6000815501879062000239565b9250819262000230565b602288634e487b7160e01b6000525260246000fd5b90607f16906200011a565b634e487b7160e01b600052604160045260246000fd5b015190503880620000eb565b90889350601f19831691876000528a6000209260005b8c828210620002f25750508411620002d9575b505050811b018355620000fd565b015160001983881b60f8161c19169055388080620002cb565b8385015186558c97909501949384019301620002b8565b90915085600052886000208580850160051c8201928b861062000355575b918a91869594930160051c01915b82811062000345575050620000d4565b600081558594508a910162000335565b9250819262000327565b634e487b7160e01b600052602260045260246000fd5b93607f1693620000bd565b600080fd5b6040519190601f01601f191682016001600160401b038111838210176200028057604052565b51906001600160a01b03821682036200038057565b919080601f84011215620003805782516001600160401b0381116200028057602090620003f6601f8201601f1916830162000385565b92818452828287010111620003805760005b8181106200041e57508260009394955001015290565b85810183015184820184015282016200040856fe608060408181526004908136101561001657600080fd5b600091823560e01c93846301ffc9a71461091b57508363033964be1461090f57836306fdde031461081c578363095ea7b3146107f357836318160ddd146107d557836323b872dd1461070c578363313ce567146106cf578363395093511461068057836340c10f191461056c57836354fd4d501461050957836370a08231146104d357836395d89b41146103d05783639dc29fac14610256578363a457c2d7146101b057508263a9059cbb14610181578263ae1f6aaf14610176578263c01e1bd61461016b578263d6c0b2c41461016b578263dd62ed3e146101205750508063e78cea92146101175763ee9a31a21461010f575b600080fd5b61010a610a79565b5061010a610a79565b346101675780600319360112610167578060209261013c610a15565b610144610a2b565b6001600160a01b0391821683526001865283832091168252845220549051908152f35b5080fd5b50505061010a610986565b50505061010a610a79565b346101675780600319360112610167576020906101a961019f610a15565b6024359033610ae2565b5160018152f35b82346102535782600319360112610253576101c9610a15565b918360243592338152600160205281812060018060a01b0386168252602052205490828210610202576020856101a98585038733610c50565b608490602086519162461bcd60e51b8352820152602560248201527f45524332303a2064656372656173656420616c6c6f77616e63652062656c6f77604482015264207a65726f60d81b6064820152fd5b80fd5b90346103cc57806003193601126103cc5761026f610a15565b60243591906001600160a01b03906102aa337f0000000000000000000000000000000000000000000000000000000000000000841614610d52565b1692831561038057838552846020528185205490838210610332575091602091817fcc16f5dbb4873280815c1ee09dbd06736cffcc184412cf7a71a0fdb75d397ca5948688528785520381872055816002540360025585857fddf252ad1be2c89b69c2b068fc378daa952ba7f163c4a11628f55a4df523b3ef858451868152a351908152a280f35b608490602084519162461bcd60e51b8352820152602260248201527f45524332303a206275726e20616d6f756e7420657863656564732062616c616e604482015261636560f01b6064820152fd5b6020608492519162461bcd60e51b8352820152602160248201527f45524332303a206275726e2066726f6d20746865207a65726f206164647265736044820152607360f81b6064820152fd5b8280fd5b925034610167578160031936011261016757805191809380549160019083821c928285169485156104c9575b60209586861081146104b657858952908115610492575060011461043a575b610436878761042c828c0383610a41565b51918291826109cc565b0390f35b81529295507f8a35acfbc15ff81a39ae7d344fd709f28e8600b4aa8c65c6b64bfe7fe36bd19b5b82841061047f57505050826104369461042c9282010194388061041b565b8054868501880152928601928101610461565b60ff19168887015250505050151560051b830101925061042c82610436388061041b565b634e487b7160e01b845260228352602484fd5b93607f16936103fc565b50346101675760203660031901126101675760209181906001600160a01b036104fa610a15565b16815280845220549051908152f35b9250346101675781600319360112610167578051918183019083821067ffffffffffffffff83111761055957506104369350815260058252640312e332e360dc1b602083015251918291826109cc565b634e487b7160e01b815260418552602490fd5b90346103cc57806003193601126103cc57610585610a15565b60243591906001600160a01b03906105c0337f0000000000000000000000000000000000000000000000000000000000000000841614610d52565b1692831561063e5750816020916105fa7f0f6798a560793a54c3bcfe86a93cde1e73087d944c0ea20544137d412139688594600254610abf565b60025584865285835280862082815401905584867fddf252ad1be2c89b69c2b068fc378daa952ba7f163c4a11628f55a4df523b3ef858451868152a351908152a280f35b6020606492519162461bcd60e51b8352820152601f60248201527f45524332303a206d696e7420746f20746865207a65726f2061646472657373006044820152fd5b50346101675780600319360112610167576101a96020926106c86106a2610a15565b338352600186528483206001600160a01b03821684528652918490205460243590610abf565b9033610c50565b50346101675781600319360112610167576020905160ff7f0000000000000000000000000000000000000000000000000000000000000000168152f35b82903461016757606036600319011261016757610727610a15565b61072f610a2b565b91846044359460018060a01b038416815260016020528181203382526020522054906000198203610769575b6020866101a9878787610ae2565b8482106107925750918391610787602096956101a995033383610c50565b91939481935061075b565b606490602087519162461bcd60e51b8352820152601d60248201527f45524332303a20696e73756666696369656e7420616c6c6f77616e63650000006044820152fd5b50346101675781600319360112610167576020906002549051908152f35b50346101675780600319360112610167576020906101a9610812610a15565b6024359033610c50565b90346103cc57826003193601126103cc57805191836003549060019082821c928281168015610905575b60209586861082146108f257508488529081156108d05750600114610877575b610436868661042c828b0383610a41565b929550600383527fc2575a0e9e593c00f959f8c92f12db2869c3395a3b0502d05e2516446f71f85b5b8284106108bd57505050826104369461042c928201019486610866565b80548685018801529286019281016108a0565b60ff191687860152505050151560051b830101925061042c8261043686610866565b634e487b7160e01b845260229052602483fd5b93607f1693610846565b5050505061010a610986565b9150346103cc5760203660031901126103cc573563ffffffff60e01b81168091036103cc57602092506301ffc9a760e01b8114908115610975575b8115610964575b5015158152f35b63ec4fc8e360e01b1490508361095d565b631d1d8b6360e01b81149150610956565b503461010a57600036600319011261010a576040517f00000000000000000000000000000000000000000000000000000000000000006001600160a01b03168152602090f35b6020808252825181830181905290939260005b828110610a0157505060409293506000838284010152601f8019910116010190565b8181018601518482016040015285016109df565b600435906001600160a01b038216820361010a57565b602435906001600160a01b038216820361010a57565b90601f8019910116810190811067ffffffffffffffff821117610a6357604052565b634e487b7160e01b600052604160045260246000fd5b503461010a57600036600319011261010a576040517f00000000000000000000000000000000000000000000000000000000000000006001600160a01b03168152602090f35b91908201809211610acc57565b634e487b7160e01b600052601160045260246000fd5b6001600160a01b03908116918215610bfd5716918215610bac57600082815280602052604081205491808310610b5857604082827fddf252ad1be2c89b69c2b068fc378daa952ba7f163c4a11628f55a4df523b3ef958760209652828652038282205586815220818154019055604051908152a3565b60405162461bcd60e51b815260206004820152602660248201527f45524332303a207472616e7366657220616d6f756e7420657863656564732062604482015265616c616e636560d01b6064820152608490fd5b60405162461bcd60e51b815260206004820152602360248201527f45524332303a207472616e7366657220746f20746865207a65726f206164647260448201526265737360e81b6064820152608490fd5b60405162461bcd60e51b815260206004820152602560248201527f45524332303a207472616e736665722066726f6d20746865207a65726f206164604482015264647265737360d81b6064820152608490fd5b6001600160a01b03908116918215610d015716918215610cb15760207f8c5be1e5ebec7d5bd14f71427d1e84f3dd0314c0f7b2291e5b200ac8c7c3b925918360005260018252604060002085600052825280604060002055604051908152a3565b60405162461bcd60e51b815260206004820152602260248201527f45524332303a20617070726f766520746f20746865207a65726f206164647265604482015261737360f01b6064820152608490fd5b60405162461bcd60e51b8152602060048201526024808201527f45524332303a20617070726f76652066726f6d20746865207a65726f206164646044820152637265737360e01b6064820152608490fd5b15610d5957565b60405162461bcd60e51b815260206004820152603460248201527f466972656c696e6b4d696e7461626c6545524332303a206f6e6c79206272696460448201527333b29031b0b71036b4b73a1030b73210313ab93760611b6064820152608490fdfea26469706673582212203d74d42d44ec403efbfe643878bec61619046547900a26cf34809b356ac3eb3f64736f6c63430008110033",
  "linkReferences": {},
  "deployedLinkReferences": {}
}