{
  "_format": "hh-sol-artifact-1",
  "contractName": "FirelinkBridge",
  "sourceName": "contracts/FirelinkBridge.sol",
  "abi": [
    {
      "inputs": [],
      "stateMutability": "nonpayable",
      "type": "constructor"
    },
    {
      "anonymous": false,
      "inputs": [
        {
          "indexed": false,
          "internalType": "address",
          "name": "previousAdmin",
          "type": "address"
        },
        {
          "indexed": false,
          "internalType": "address",
          "name": "newAdmin",
          "type": "address"
        }
      ],
      "name": "AdminChanged",
      "type": "event"
    },
    {
      "anonymous": false,
      "inputs": [
        {
          "indexed": true,
          "internalType": "address",
          "name": "beacon",
          "type": "address"
        }
      ],
      "name": "BeaconUpgraded",
      "type": "event"
    },
    {
      "anonymous": false,
      "inputs": [
        {
          "indexed": true,
          "internalType": "address",
          "name": "localToken",
          "type": "address"
        },
        {
          "indexed": true,
          "internalType": "address",
          "name": "remoteToken",
          "type": "address"
        },
        {
          "indexed": true,
          "internalType": "address",
          "name": "from",
          "type": "address"
        },
        {
          "indexed": false,
          "internalType": "address",
          "name": "to",
          "type": "address"
        },
        {
          "indexed": false,
          "internalType": "uint256",
          "name": "amount",
          "type": "uint256"
        },
        {
          "indexed": false,
          "internalType": "bytes",
          "name": "extraData",
          "type": "bytes"
        }
      ],
      "name": "ERC20BridgeFinalized",
      "type": "event"
    },
    {
      "anonymous": false,
      "inputs": [
        {
          "indexed": true,
          "internalType": "address",
          "name": "localToken",
          "type": "address"
        },
        {
          "indexed": true,
          "internalType": "address",
          "name": "remoteToken",
          "type": "address"
        },
        {
          "indexed": true,
          "internalType": "address",
          "name": "from",
          "type": "address"
        },
        {
          "indexed": false,
          "internalType": "address",
          "name": "to",
          "type": "address"
        },
        {
          "indexed": false,
          "internalType": "uint256",
          "name": "amount",
          "type": "uint256"
        },
        {
          "indexed": false,
          "internalType": "bytes",
          "name": "extraData",
          "type": "bytes"
        }
      ],
      "name": "ERC20BridgeInitiated",
      "type": "event"
    },
    {
      "anonymous": false,
      "inputs": [
        {
          "indexed": true,
          "internalType": "address",
          "name": "from",
          "type": "address"
        },
        {
          "indexed": true,
          "internalType": "address",
          "name": "to",
          "type": "address"
        },
        {
          "indexed": false,
          "internalType": "uint256",
          "name": "amount",
          "type": "uint256"
        },
        {
          "indexed": false,
          "internalType": "bytes",
          "name": "extraData",
          "type": "bytes"
        }
      ],
      "name": "ETHBridgeFinalized",
      "type": "event"
    },
    {
      "anonymous": false,
      "inputs": [
        {
          "indexed": true,
          "internalType": "address",
          "name": "from",
          "type": "address"
        },
        {
          "indexed": true,
          "internalType": "address",
          "name": "to",
          "type": "address"
        },
        {
          "indexed": false,
          "internalType": "uint256",
          "name": "amount",
          "type": "uint256"
        },
        {
          "indexed": false,
          "internalType": "bytes",
          "name": "extraData",
          "type": "bytes"
        }
      ],
      "name": "ETHBridgeInitiated",
      "type": "event"
    },
    {
      "anonymous": false,
      "inputs": [
        {
          "indexed": false,
          "internalType": "uint8",
          "name": "version",
          "type": "uint8"
        }
      ],
      "name": "Initialized",
      "type": "event"
    },
    {
      "anonymous": false,
      "inputs": [
        {
          "indexed": true,
          "internalType": "address",
          "name": "previousOwner",
          "type": "address"
        },
        {
          "indexed": true,
          "internalType": "address",
          "name": "newOwner",
          "type": "address"
        }
      ],
      "name": "OwnershipTransferred",
      "type": "event"
    },
    {
      "anonymous": false,
      "inputs": [
        {
          "indexed": true,
          "internalType": "address",
          "name": "implementation",
          "type": "address"
        }
      ],
      "name": "Upgraded",
      "type": "event"
    },
    {
      "inputs": [
        {
          "components": [
            {
              "internalType": "bytes32[]",
              "name": "merkleProof",
              "type": "bytes32[]"
            },
            {
              "components": [
                {
                  "internalType": "bytes32",
                  "name": "attestationType",
                  "type": "bytes32"
                },
                {
                  "internalType": "bytes32",
                  "name": "sourceId",
                  "type": "bytes32"
                },
                {
                  "internalType": "uint64",
                  "name": "votingRound",
                  "type": "uint64"
                },
                {
                  "internalType": "uint64",
                  "name": "lowestUsedTimestamp",
                  "type": "uint64"
                },
                {
                  "components": [
                    {
                      "internalType": "bytes32",
                      "name": "transactionHash",
                      "type": "bytes32"
                    },
                    {
                      "internalType": "uint16",
                      "name": "requiredConfirmations",
                      "type": "uint16"
                    },
                    {
                      "internalType": "bool",
                      "name": "provideInput",
                      "type": "bool"
                    },
                    {
                      "internalType": "bool",
                      "name": "listEvents",
                      "type": "bool"
                    },
                    {
                      "internalType": "uint32[]",
                      "name": "logIndices",
                      "type": "uint32[]"
                    }
                  ],
                  "internalType": "struct EVMTransaction.RequestBody",
                  "name": "requestBody",
                  "type": "tuple"
                },
                {
                  "components": [
                    {
                      "internalType": "uint64",
                      "name": "blockNumber",
                      "type": "uint64"
                    },
                    {
                      "internalType": "uint64",
                      "name": "timestamp",
                      "type": "uint64"
                    },
                    {
                      "internalType": "address",
                      "name": "sourceAddress",
                      "type": "address"
                    },
                    {
                      "internalType": "bool",
                      "name": "isDeployment",
                      "type": "bool"
                    },
                    {
                      "internalType": "address",
                      "name": "receivingAddress",
                      "type": "address"
                    },
                    {
                      "internalType": "uint256",
                      "name": "value",
                      "type": "uint256"
                    },
                    {
                      "internalType": "bytes",
                      "name": "input",
                      "type": "bytes"
                    },
                    {
                      "internalType": "uint8",
                      "name": "status",
                      "type": "uint8"
                    },
                    {
                      "components": [
                        {
                          "internalType": "uint32",
                          "name": "logIndex",
                          "type": "uint32"
                        },
                        {
                          "internalType": "address",
                          "name": "emitterAddress",
                          "type": "address"
                        },
                        {
                          "internalType": "bytes32[]",
                          "name": "topics",
                          "type": "bytes32[]"
                        },
                        {
                          "internalType": "bytes",
                          "name": "data",
                          "type": "bytes"
                        },
                        {
                          "internalType": "bool",
                          "name": "removed",
                          "type": "bool"
                        }
                      ],
                      "internalType": "struct EVMTransaction.Event[]",
                      "name": "events",
                      "type": "tuple[]"
                    }
                  ],
                  "internalType": "struct EVMTransaction.ResponseBody",
                  "name": "responseBody",
                  "type": "tuple"
                }
              ],
              "internalType": "struct EVMTransaction.Response",
              "name": "data",
              "type": "tuple"
            }
          ],
          "internalType": "struct EVMTransaction.Proof",
          "name": "_transaction",
          "type": "tuple"
        }
      ],
      "name": "FinalizeBridgeAndReleaseEth",
      "outputs": [],
      "stateMutability": "nonpayable",
      "type": "function"
    },
    {
      "inputs": [],
      "name": "MESSENGER",
      "outputs": [
        {
          "internalType": "contract IFlareRelayer",
          "name": "",
          "type": "address"
        }
      ],
      "stateMutability": "view",
      "type": "function"
    },
    {
      "inputs": [],
      "name": "OTHER_BRIDGE",
      "outputs": [
        {
          "internalType": "contract FirelinkBridge",
          "name": "",
          "type": "address"
        }
      ],
      "stateMutability": "view",
      "type": "function"
    },
    {
      "inputs": [
        {
          "internalType": "address",
          "name": "_localToken",
          "type": "address"
        },
        {
          "internalType": "address",
          "name": "_remoteToken",
          "type": "address"
        },
        {
          "internalType": "uint256",
          "name": "_amount",
          "type": "uint256"
        },
        {
          "internalType": "uint32",
          "name": "_minGasLimit",
          "type": "uint32"
        },
        {
          "internalType": "bytes",
          "name": "_extraData",
          "type": "bytes"
        }
      ],
      "name": "bridgeERC20",
      "outputs": [],
      "stateMutability": "nonpayable",
      "type": "function"
    },
    {
      "inputs": [
        {
          "internalType": "address",
          "name": "_localToken",
          "type": "address"
        },
        {
          "internalType": "address",
          "name": "_remoteToken",
          "type": "address"
        },
        {
          "internalType": "address",
          "name": "_to",
          "type": "address"
        },
        {
          "internalType": "uint256",
          "name": "_amount",
          "type": "uint256"
        },
        {
          "internalType": "uint32",
          "name": "_minGasLimit",
          "type": "uint32"
        },
        {
          "internalType": "bytes",
          "name": "_extraData",
          "type": "bytes"
        }
      ],
      "name": "bridgeERC20To",
      "outputs": [],
      "stateMutability": "nonpayable",
      "type": "function"
    },
    {
      "inputs": [
        {
          "internalType": "uint32",
          "name": "_minGasLimit",
          "type": "uint32"
        },
        {
          "internalType": "bytes",
          "name": "_extraData",
          "type": "bytes"
        }
      ],
      "name": "bridgeETH",
      "outputs": [],
      "stateMutability": "payable",
      "type": "function"
    },
    {
      "inputs": [
        {
          "internalType": "address",
          "name": "_to",
          "type": "address"
        },
        {
          "internalType": "uint32",
          "name": "_minGasLimit",
          "type": "uint32"
        },
        {
          "internalType": "bytes",
          "name": "_extraData",
          "type": "bytes"
        }
      ],
      "name": "bridgeETHTo",
      "outputs": [],
      "stateMutability": "payable",
      "type": "function"
    },
    {
      "inputs": [
        {
          "internalType": "address",
          "name": "",
          "type": "address"
        },
        {
          "internalType": "address",
          "name": "",
          "type": "address"
        }
      ],
      "name": "deposits",
      "outputs": [
        {
          "internalType": "uint256",
          "name": "",
          "type": "uint256"
        }
      ],
      "stateMutability": "view",
      "type": "function"
    },
    {
      "inputs": [
        {
          "internalType": "address",
          "name": "_localToken",
          "type": "address"
        },
        {
          "internalType": "address",
          "name": "_remoteToken",
          "type": "address"
        },
        {
          "internalType": "address",
          "name": "_from",
          "type": "address"
        },
        {
          "internalType": "address",
          "name": "_to",
          "type": "address"
        },
        {
          "internalType": "uint256",
          "name": "_amount",
          "type": "uint256"
        },
        {
          "internalType": "bytes",
          "name": "_extraData",
          "type": "bytes"
        }
      ],
      "name": "finalizeBridgeERC20",
      "outputs": [],
      "stateMutability": "nonpayable",
      "type": "function"
    },
    {
      "inputs": [
        {
          "internalType": "address",
          "name": "_from",
          "type": "address"
        },
        {
          "internalType": "address",
          "name": "_to",
          "type": "address"
        },
        {
          "internalType": "uint256",
          "name": "_amount",
          "type": "uint256"
        },
        {
          "internalType": "bytes",
          "name": "_extraData",
          "type": "bytes"
        }
      ],
      "name": "finalizeBridgeETH",
      "outputs": [],
      "stateMutability": "payable",
      "type": "function"
    },
    {
      "inputs": [],
      "name": "getAllTransactions",
      "outputs": [
        {
          "components": [
            {
              "components": [
                {
                  "internalType": "bytes32[]",
                  "name": "merkleProof",
                  "type": "bytes32[]"
                },
                {
                  "components": [
                    {
                      "internalType": "bytes32",
                      "name": "attestationType",
                      "type": "bytes32"
                    },
                    {
                      "internalType": "bytes32",
                      "name": "sourceId",
                      "type": "bytes32"
                    },
                    {
                      "internalType": "uint64",
                      "name": "votingRound",
                      "type": "uint64"
                    },
                    {
                      "internalType": "uint64",
                      "name": "lowestUsedTimestamp",
                      "type": "uint64"
                    },
                    {
                      "components": [
                        {
                          "internalType": "bytes32",
                          "name": "transactionHash",
                          "type": "bytes32"
                        },
                        {
                          "internalType": "uint16",
                          "name": "requiredConfirmations",
                          "type": "uint16"
                        },
                        {
                          "internalType": "bool",
                          "name": "provideInput",
                          "type": "bool"
                        },
                        {
                          "internalType": "bool",
                          "name": "listEvents",
                          "type": "bool"
                        },
                        {
                          "internalType": "uint32[]",
                          "name": "logIndices",
                          "type": "uint32[]"
                        }
                      ],
                      "internalType": "struct EVMTransaction.RequestBody",
                      "name": "requestBody",
                      "type": "tuple"
                    },
                    {
                      "components": [
                        {
                          "internalType": "uint64",
                          "name": "blockNumber",
                          "type": "uint64"
                        },
                        {
                          "internalType": "uint64",
                          "name": "timestamp",
                          "type": "uint64"
                        },
                        {
                          "internalType": "address",
                          "name": "sourceAddress",
                          "type": "address"
                        },
                        {
                          "internalType": "bool",
                          "name": "isDeployment",
                          "type": "bool"
                        },
                        {
                          "internalType": "address",
                          "name": "receivingAddress",
                          "type": "address"
                        },
                        {
                          "internalType": "uint256",
                          "name": "value",
                          "type": "uint256"
                        },
                        {
                          "internalType": "bytes",
                          "name": "input",
                          "type": "bytes"
                        },
                        {
                          "internalType": "uint8",
                          "name": "status",
                          "type": "uint8"
                        },
                        {
                          "components": [
                            {
                              "internalType": "uint32",
                              "name": "logIndex",
                              "type": "uint32"
                            },
                            {
                              "internalType": "address",
                              "name": "emitterAddress",
                              "type": "address"
                            },
                            {
                              "internalType": "bytes32[]",
                              "name": "topics",
                              "type": "bytes32[]"
                            },
                            {
                              "internalType": "bytes",
                              "name": "data",
                              "type": "bytes"
                            },
                            {
                              "internalType": "bool",
                              "name": "removed",
                              "type": "bool"
                            }
                          ],
                          "internalType": "struct EVMTransaction.Event[]",
                          "name": "events",
                          "type": "tuple[]"
                        }
                      ],
                      "internalType": "struct EVMTransaction.ResponseBody",
                      "name": "responseBody",
                      "type": "tuple"
                    }
                  ],
                  "internalType": "struct EVMTransaction.Response",
                  "name": "data",
                  "type": "tuple"
                }
              ],
              "internalType": "struct EVMTransaction.Proof",
              "name": "originalTransaction",
              "type": "tuple"
            },
            {
              "internalType": "uint256",
              "name": "eventNumber",
              "type": "uint256"
            },
            {
              "components": [
                {
                  "internalType": "address",
                  "name": "sender",
                  "type": "address"
                },
                {
                  "internalType": "address",
                  "name": "receiver",
                  "type": "address"
                },
                {
                  "internalType": "uint256",
                  "name": "value",
                  "type": "uint256"
                },
                {
                  "internalType": "bytes",
                  "name": "data",
                  "type": "bytes"
                }
              ],
              "internalType": "struct FirelinkBridge.EventInfo[]",
              "name": "eventInfo",
              "type": "tuple[]"
            }
          ],
          "internalType": "struct FirelinkBridge.TransactionInfo[]",
          "name": "",
          "type": "tuple[]"
        }
      ],
      "stateMutability": "view",
      "type": "function"
    },
    {
      "inputs": [],
      "name": "getTransactionCount",
      "outputs": [
        {
          "internalType": "uint256",
          "name": "",
          "type": "uint256"
        }
      ],
      "stateMutability": "view",
      "type": "function"
    },
    {
      "inputs": [
        {
          "internalType": "address",
          "name": "initialOwner",
          "type": "address"
        },
        {
          "internalType": "address payable",
          "name": "_messenger",
          "type": "address"
        },
        {
          "internalType": "address payable",
          "name": "_otherBridge",
          "type": "address"
        }
      ],
      "name": "initialize",
      "outputs": [],
      "stateMutability": "nonpayable",
      "type": "function"
    },
    {
      "inputs": [
        {
          "components": [
            {
              "internalType": "bytes32[]",
              "name": "merkleProof",
              "type": "bytes32[]"
            },
            {
              "components": [
                {
                  "internalType": "bytes32",
                  "name": "attestationType",
                  "type": "bytes32"
                },
                {
                  "internalType": "bytes32",
                  "name": "sourceId",
                  "type": "bytes32"
                },
                {
                  "internalType": "uint64",
                  "name": "votingRound",
                  "type": "uint64"
                },
                {
                  "internalType": "uint64",
                  "name": "lowestUsedTimestamp",
                  "type": "uint64"
                },
                {
                  "components": [
                    {
                      "internalType": "bytes32",
                      "name": "transactionHash",
                      "type": "bytes32"
                    },
                    {
                      "internalType": "uint16",
                      "name": "requiredConfirmations",
                      "type": "uint16"
                    },
                    {
                      "internalType": "bool",
                      "name": "provideInput",
                      "type": "bool"
                    },
                    {
                      "internalType": "bool",
                      "name": "listEvents",
                      "type": "bool"
                    },
                    {
                      "internalType": "uint32[]",
                      "name": "logIndices",
                      "type": "uint32[]"
                    }
                  ],
                  "internalType": "struct EVMTransaction.RequestBody",
                  "name": "requestBody",
                  "type": "tuple"
                },
                {
                  "components": [
                    {
                      "internalType": "uint64",
                      "name": "blockNumber",
                      "type": "uint64"
                    },
                    {
                      "internalType": "uint64",
                      "name": "timestamp",
                      "type": "uint64"
                    },
                    {
                      "internalType": "address",
                      "name": "sourceAddress",
                      "type": "address"
                    },
                    {
                      "internalType": "bool",
                      "name": "isDeployment",
                      "type": "bool"
                    },
                    {
                      "internalType": "address",
                      "name": "receivingAddress",
                      "type": "address"
                    },
                    {
                      "internalType": "uint256",
                      "name": "value",
                      "type": "uint256"
                    },
                    {
                      "internalType": "bytes",
                      "name": "input",
                      "type": "bytes"
                    },
                    {
                      "internalType": "uint8",
                      "name": "status",
                      "type": "uint8"
                    },
                    {
                      "components": [
                        {
                          "internalType": "uint32",
                          "name": "logIndex",
                          "type": "uint32"
                        },
                        {
                          "internalType": "address",
                          "name": "emitterAddress",
                          "type": "address"
                        },
                        {
                          "internalType": "bytes32[]",
                          "name": "topics",
                          "type": "bytes32[]"
                        },
                        {
                          "internalType": "bytes",
                          "name": "data",
                          "type": "bytes"
                        },
                        {
                          "internalType": "bool",
                          "name": "removed",
                          "type": "bool"
                        }
                      ],
                      "internalType": "struct EVMTransaction.Event[]",
                      "name": "events",
                      "type": "tuple[]"
                    }
                  ],
                  "internalType": "struct EVMTransaction.ResponseBody",
                  "name": "responseBody",
                  "type": "tuple"
                }
              ],
              "internalType": "struct EVMTransaction.Response",
              "name": "data",
              "type": "tuple"
            }
          ],
          "internalType": "struct EVMTransaction.Proof",
          "name": "transaction",
          "type": "tuple"
        }
      ],
      "name": "isEVMTransactionProofValid",
      "outputs": [
        {
          "internalType": "bool",
          "name": "",
          "type": "bool"
        }
      ],
      "stateMutability": "view",
      "type": "function"
    },
    {
      "inputs": [],
      "name": "owner",
      "outputs": [
        {
          "internalType": "address",
          "name": "",
          "type": "address"
        }
      ],
      "stateMutability": "view",
      "type": "function"
    },
    {
      "inputs": [],
      "name": "proxiableUUID",
      "outputs": [
        {
          "internalType": "bytes32",
          "name": "",
          "type": "bytes32"
        }
      ],
      "stateMutability": "view",
      "type": "function"
    },
    {
      "inputs": [],
      "name": "renounceOwnership",
      "outputs": [],
      "stateMutability": "nonpayable",
      "type": "function"
    },
    {
      "inputs": [
        {
          "internalType": "address",
          "name": "_ethAddress",
          "type": "address"
        }
      ],
      "name": "setEthERC20ContractAddress",
      "outputs": [],
      "stateMutability": "nonpayable",
      "type": "function"
    },
    {
      "inputs": [
        {
          "internalType": "uint256",
          "name": "",
          "type": "uint256"
        }
      ],
      "name": "transactions",
      "outputs": [
        {
          "components": [
            {
              "internalType": "bytes32[]",
              "name": "merkleProof",
              "type": "bytes32[]"
            },
            {
              "components": [
                {
                  "internalType": "bytes32",
                  "name": "attestationType",
                  "type": "bytes32"
                },
                {
                  "internalType": "bytes32",
                  "name": "sourceId",
                  "type": "bytes32"
                },
                {
                  "internalType": "uint64",
                  "name": "votingRound",
                  "type": "uint64"
                },
                {
                  "internalType": "uint64",
                  "name": "lowestUsedTimestamp",
                  "type": "uint64"
                },
                {
                  "components": [
                    {
                      "internalType": "bytes32",
                      "name": "transactionHash",
                      "type": "bytes32"
                    },
                    {
                      "internalType": "uint16",
                      "name": "requiredConfirmations",
                      "type": "uint16"
                    },
                    {
                      "internalType": "bool",
                      "name": "provideInput",
                      "type": "bool"
                    },
                    {
                      "internalType": "bool",
                      "name": "listEvents",
                      "type": "bool"
                    },
                    {
                      "internalType": "uint32[]",
                      "name": "logIndices",
                      "type": "uint32[]"
                    }
                  ],
                  "internalType": "struct EVMTransaction.RequestBody",
                  "name": "requestBody",
                  "type": "tuple"
                },
                {
                  "components": [
                    {
                      "internalType": "uint64",
                      "name": "blockNumber",
                      "type": "uint64"
                    },
                    {
                      "internalType": "uint64",
                      "name": "timestamp",
                      "type": "uint64"
                    },
                    {
                      "internalType": "address",
                      "name": "sourceAddress",
                      "type": "address"
                    },
                    {
                      "internalType": "bool",
                      "name": "isDeployment",
                      "type": "bool"
                    },
                    {
                      "internalType": "address",
                      "name": "receivingAddress",
                      "type": "address"
                    },
                    {
                      "internalType": "uint256",
                      "name": "value",
                      "type": "uint256"
                    },
                    {
                      "internalType": "bytes",
                      "name": "input",
                      "type": "bytes"
                    },
                    {
                      "internalType": "uint8",
                      "name": "status",
                      "type": "uint8"
                    },
                    {
                      "components": [
                        {
                          "internalType": "uint32",
                          "name": "logIndex",
                          "type": "uint32"
                        },
                        {
                          "internalType": "address",
                          "name": "emitterAddress",
                          "type": "address"
                        },
                        {
                          "internalType": "bytes32[]",
                          "name": "topics",
                          "type": "bytes32[]"
                        },
                        {
                          "internalType": "bytes",
                          "name": "data",
                          "type": "bytes"
                        },
                        {
                          "internalType": "bool",
                          "name": "removed",
                          "type": "bool"
                        }
                      ],
                      "internalType": "struct EVMTransaction.Event[]",
                      "name": "events",
                      "type": "tuple[]"
                    }
                  ],
                  "internalType": "struct EVMTransaction.ResponseBody",
                  "name": "responseBody",
                  "type": "tuple"
                }
              ],
              "internalType": "struct EVMTransaction.Response",
              "name": "data",
              "type": "tuple"
            }
          ],
          "internalType": "struct EVMTransaction.Proof",
          "name": "originalTransaction",
          "type": "tuple"
        },
        {
          "internalType": "uint256",
          "name": "eventNumber",
          "type": "uint256"
        }
      ],
      "stateMutability": "view",
      "type": "function"
    },
    {
      "inputs": [
        {
          "internalType": "address",
          "name": "newOwner",
          "type": "address"
        }
      ],
      "name": "transferOwnership",
      "outputs": [],
      "stateMutability": "nonpayable",
      "type": "function"
    },
    {
      "inputs": [
        {
          "internalType": "address",
          "name": "newImplementation",
          "type": "address"
        }
      ],
      "name": "upgradeTo",
      "outputs": [],
      "stateMutability": "nonpayable",
      "type": "function"
    },
    {
      "inputs": [
        {
          "internalType": "address",
          "name": "newImplementation",
          "type": "address"
        },
        {
          "internalType": "bytes",
          "name": "data",
          "type": "bytes"
        }
      ],
      "name": "upgradeToAndCall",
      "outputs": [],
      "stateMutability": "payable",
      "type": "function"
    },
    {
      "stateMutability": "payable",
      "type": "receive"
    }
  ],
  "bytecode": "0x60a08060405234620000e157306080526000549060ff8260081c166200008f575060ff8082160362000053575b604051613df99081620000e78239608051818181610b3b01528181610e4f0152610f650152f35b60ff90811916176000557f7f26b83ff96e1f2b6a682f133852f6798a09c465da95921460cefb3847402498602060405160ff8152a1386200002c565b62461bcd60e51b815260206004820152602760248201527f496e697469616c697a61626c653a20636f6e747261637420697320696e697469604482015266616c697a696e6760c81b6064820152608490fd5b600080fdfe6080604052600436101561001b575b361561001957600080fd5b005b60003560e01c80630166a07a146101d357806309f5dc91146101ca57806309fc8843146101c15780631635f5fd146101b857806327506f53146101af5780632e7700f0146101a65780633659cfe61461019d5780634f1ef2861461019457806352d1902d1461018b578063540abf7314610182578063715018a6146101795780637eccb307146101705780637f46ddb214610167578063870876231461015e5780638da5cb5b146101555780638f601f661461014c578063927ede2d146101435780639ace38c21461013a578063c0c53b8b14610131578063e11013dd14610128578063ecc6da0c1461011f5763f2fde38b0361000e5761011a611e4d565b61000e565b5061011a611e05565b5061011a611d84565b5061011a611c7d565b5061011a611be5565b5061011a6115cc565b5061011a611568565b5061011a61153e565b5061011a6113ed565b5061011a6113c3565b5061011a6111d9565b5061011a61117a565b5061011a611017565b5061011a610f51565b5061011a610e0d565b5061011a610b13565b5061011a610af4565b5061011a610997565b5061011a6104a9565b5061011a61042b565b5061011a6103fa565b5061011a61022c565b6001600160a01b038116036101ed57565b600080fd5b35906101fd826101dc565b565b9181601f840112156101ed578235916001600160401b0383116101ed57602083818601950101116101ed57565b50346101ed5760c03660031901126101ed5760043561024a816101dc565b60243590610257826101dc565b604435610263816101dc565b60643561026f816101dc565b6084359160a4356001600160401b0381116101ed576102929036906004016101ff565b959061029d86612885565b15610343576102b46102af83886129f0565b612671565b6001600160a01b03861690813b156101ed576040516340c10f1960e01b81526001600160a01b03861660048201526024810187905261001998610317939091906000908290604490829084905af18015610336575b61031d575b505b3691610dbb565b94612b84565b8061032a61033092610c78565b806105d6565b3861030e565b61033e612064565b610309565b610317906100199761038c876103868661036f8c60018060a01b031660005260ce602052604060002090565b9060018060a01b0316600052602052604060002090565b5461265c565b6001600160a01b038916600090815260ce602052604090206103af90869061036f565b556103c487876001600160a01b038b166126f6565b610310565b600319906020818301126101ed57600435916001600160401b0383116101ed57826040920301126101ed5760040190565b50346101ed57602061041361040e366103c9565b612ec5565b6040519015158152f35b63ffffffff8116036101ed57565b5060403660031901126101ed5761044360043561041d565b6024356001600160401b0381116101ed576104656104709136906004016101ff565b610310333b156124c6565b604051907f2849b43074093a05396b6f2a937dee8565b15a48a7b3d4bffb732a5017380af53392806104a433943483612ab5565b0390a3005b5060803660031901126101ed576004356104c2816101dc565b6024356104ce816101dc565b604435906064356001600160401b0381116101ed576104f19036906004016101ff565b929081340361056b5761001994610566946105579284918691610551916103106001600160a01b03851661052730821415612538565b60c95461054a9061053e906001600160a01b031681565b6001600160a01b031690565b1415612590565b92612acc565b5a610560612042565b92612bcb565b6125ed565b60405162461bcd60e51b815260206004820152603a60248201527f466972656c696e6b4272696467653a20616d6f756e742073656e7420646f657360448201527f206e6f74206d6174636820616d6f756e742072657175697265640000000000006064820152608490fd5b60009103126101ed57565b90815180825260208080930193019160005b828110610601575050505090565b8351855293810193928101926001016105f3565b919082519283825260005b848110610641575050826000602080949584010152601f8019910116010190565b602081830181015184830182015201610620565b908082519081815260208091019281808460051b8301019501936000915b8483106106835750505050505090565b9091929394958480600192601f1985820301865289519063ffffffff8251168152848060a01b038383015116838201526106e26106cf6040808501519060a080918601528401906105e1565b6060808501519084830390850152610615565b9160808091015115159101529801930193019194939290610673565b80516001600160401b0316825261079991906020818101516001600160401b0316908301526040818101516001600160a01b0316908301526060818101511515908301526080818101516001600160a01b03169083015260a081015160a083015261077860c08201516101208060c0860152840190610615565b60e08281015160ff1690840152916101008092015191818403910152610655565b90565b9190916107b281516040855260408501906105e1565b60208092015193828183039101528351815281840151828201526001600160401b03806040860151166040830152606085015116606082015260808401519160c060808301526080610160830193805160c085015261ffff838201511660e0850152604081015115156101008501526060810151151561012085015201519260a0610140840152835180915281610180840194019160005b82811061086c575050505060a0610799939401519060a08184039101526106fe565b835163ffffffff168652948101949281019260010161084a565b6020808201908083528351809252604092838101600594838186881b850101970195600080945b8786106108c05750505050505050505090565b909192939495969798603f19828203018652878a51805190876108eb6060938487528487019061079c565b918481015185870152015193888183039101528351808252838201918480838b1b83010196019388905b8b84831061093b5750505050505050806001929b019601960194979695939291906108ad565b9661098660019395979983839496989a601f198a8403018c528c5190878060a01b03808351168552868301511686850152808201519084015201519060809081888201520190610615565b9801960192018d9594929391610915565b50346101ed57600080600319360112610af15760cb54906109b782611782565b906040906109c782519384610d56565b838352601f196109d685611782565b01815b818110610a315750505b8381106109fb578151806109f78582610886565b0390f35b80610a11610a0b610a2c9361160d565b50613cf1565b610a1b8286613ccf565b52610a268185613ccf565b50613a9a565b6109e3565b6020908451610a3f81610c98565b8551610a4a81610cb3565b6060808252875191610a5b83610cce565b87835285928884820152888a82015288838201528951610a7a81610ce9565b8981528985820152898b8201528984820152608090848282015281830152898b5191610aa583610d04565b8183528187840152818d840152818684015282015260a08a818301528460c08301528a60e0830152846101008301528201528382015283528682840152878301528288010152016109d9565b80fd5b50346101ed5760003660031901126101ed57602060cb54604051908152f35b50346101ed5760203660031901126101ed57600435610b31816101dc565b6001600160a01b037f000000000000000000000000000000000000000000000000000000000000000081169190610b6a30841415611f80565b610b87600080516020613da4833981519152938285541614611fe1565b610b8f611edf565b60405190610b9c82610d3b565b600082527f4910fdfa16fed3260ed0e7147f7cc6da11a60208b5b9406d12a635614ffd91435460ff1615610bd6575050610019915061211e565b6020600491604094939451928380926352d1902d60e01b825286165afa60009181610c31575b50610c1e5760405162461bcd60e51b815280610c1a600482016120cf565b0390fd5b61001993610c2c9114612071565b6121ae565b610c5391925060203d8111610c5a575b610c4b8183610d56565b810190612055565b9038610bfc565b503d610c41565b50634e487b7160e01b600052604160045260246000fd5b6001600160401b038111610c8b57604052565b610c93610c61565b604052565b606081019081106001600160401b03821117610c8b57604052565b604081019081106001600160401b03821117610c8b57604052565b60c081019081106001600160401b03821117610c8b57604052565b60a081019081106001600160401b03821117610c8b57604052565b61012081019081106001600160401b03821117610c8b57604052565b608081019081106001600160401b03821117610c8b57604052565b602081019081106001600160401b03821117610c8b57604052565b90601f801991011681019081106001600160401b03821117610c8b57604052565b604051906101fd82610d20565b604051906101fd82610d04565b6020906001600160401b038111610dae575b601f01601f19160190565b610db6610c61565b610da3565b929192610dc782610d91565b91610dd56040519384610d56565b8294818452818301116101ed578281602093846000960137010152565b9080601f830112156101ed5781602061079993359101610dbb565b5060403660031901126101ed57600435610e26816101dc565b6024356001600160401b0381116101ed57610e45903690600401610df2565b6001600160a01b037f00000000000000000000000000000000000000000000000000000000000000008116929190610e7f30851415611f80565b610e9c600080516020613da4833981519152948286541614611fe1565b610ea4611edf565b7f4910fdfa16fed3260ed0e7147f7cc6da11a60208b5b9406d12a635614ffd91435460ff1615610eda575050610019915061211e565b6020600491604094939451928380926352d1902d60e01b825286165afa60009181610f31575b50610f1e5760405162461bcd60e51b815280610c1a600482016120cf565b61001993610f2c9114612071565b61226a565b610f4a91925060203d8111610c5a57610c4b8183610d56565b9038610f00565b50346101ed5760003660031901126101ed577f00000000000000000000000000000000000000000000000000000000000000006001600160a01b03163003610fac57604051600080516020613da48339815191528152602090f35b60405162461bcd60e51b815260206004820152603860248201527f555550535570677261646561626c653a206d757374206e6f742062652063616c60448201527f6c6564207468726f7567682064656c656761746563616c6c00000000000000006064820152608490fd5b50346101ed5760c03660031901126101ed57600435611035816101dc565b60243590611042826101dc565b60443561104e816101dc565b6064359061105d60843561041d565b60a4356001600160401b0381116101ed5761031061107f9136906004016101ff565b9261108981612885565b1561110e5761109b6102af86836129f0565b6001600160a01b03811694853b156101ed57604051632770a7eb60e21b815233600482015260248101859052610019966000908290604490829084905af18015611101575b6110ee575b505b3391612b38565b8061032a6110fb92610c78565b386110e5565b611109612064565b6110e0565b610019946111278430336001600160a01b038616612843565b6111518461114b8361036f8660018060a01b031660005260ce602052604060002090565b54612836565b6001600160a01b038316600090815260ce6020526040902061117490839061036f565b556110e7565b50346101ed57600080600319360112610af157611195611edf565b603380546001600160a01b0319811690915581906001600160a01b03167f8be0079c531659141344cd1fd0a4f28419497f9722a3daafe3b4186f6b6457e08280a380f35b50346101ed576111e8366103c9565b6111f96111f482612ec5565b61309e565b60cb54906112056130ea565b505061121a816112148461160d565b50613903565b60208082019261122a8484613218565b600f61126461123e60a093848101906133ec565b9361124f610100958681019061315d565b9050600e61125c8361160d565b50015561160d565b50019460005b61128c61128361127a8489613218565b858101906133ec565b8581019061315d565b905081101561132057806113166113086112cb61131b946112c56112bc6112b3898e613218565b8a8101906133ec565b8a81019061315d565b90613ab6565b6112e56112dd6060928381019061340c565b810190613adc565b93926112f395919295610d77565b6001600160a01b03918216815295168c860152565b604084015282015289613b72565b613a9a565b61126a565b60fe548790611337906001600160a01b031661053e565b90600261136061135a600161134b85613b25565b5001546001600160a01b031690565b92613b25565b500154823b156101ed576040516340c10f1960e01b81526001600160a01b039290921660048301526024820152906000908290604490829084905af180156113b6575b6113a957005b8061032a61001992610c78565b6113be612064565b6113a3565b50346101ed5760003660031901126101ed5760ca546040516001600160a01b039091168152602090f35b50346101ed5760a03660031901126101ed5760043561140b816101dc565b602435611417816101dc565b60443561142560643561041d565b6084356001600160401b0381116101ed576104656114479136906004016101ff565b9161145184612885565b156114d8576114636102af82866129f0565b6001600160a01b03841693843b156101ed57604051632770a7eb60e21b815233600482015260248101849052610019956000908290604490829084905af180156114cb575b6114b8575b505b33913391612b38565b8061032a6114c592610c78565b386114ad565b6114d3612064565b6114a8565b610019936114f18330336001600160a01b038516612843565b6115158361114b8461036f8560018060a01b031660005260ce602052604060002090565b6001600160a01b038216600090815260ce6020526040902061153890849061036f565b556114af565b50346101ed5760003660031901126101ed576033546040516001600160a01b039091168152602090f35b50346101ed5760403660031901126101ed5760206115c360043561158b816101dc565b60243590611598826101dc565b60018060a01b031660005260ce835260406000209060018060a01b0316600052602052604060002090565b54604051908152f35b50346101ed5760003660031901126101ed5760c9546040516001600160a01b039091168152602090f35b50634e487b7160e01b600052603260045260246000fd5b60cb54811015611648575b60cb60005260041b7fa7ce836d032b2bf62b7e2097a8e0a6d8aeb35405ad15271e96d3b0188a1d06fb0190600090565b6116506115f6565b611618565b9060405191828154918282526020928383019160005283600020936000905b82821061168a575050506101fd92500383610d56565b855484526001958601958895509381019390910190611674565b90600182811c921680156116d4575b60208310146116be57565b634e487b7160e01b600052602260045260246000fd5b91607f16916116b3565b90604051918260008254926116f2846116a4565b90818452600194858116908160001461175f575060011461171c575b50506101fd92500383610d56565b9093915060005260209081600020936000915b8183106117475750506101fd9350820101388061170e565b8554888401850152948501948794509183019161172f565b9150506101fd94506020925060ff191682840152151560051b820101388061170e565b6020906001600160401b03811161179b575b60051b0190565b6117a3610c61565b611794565b9081546117b481611782565b926040936117c485519182610d56565b828152809460208092019260005281600020906000935b8585106117ea57505050505050565b60048460019284516117fb81610ce9565b865463ffffffff81168252858060a01b0390841c168382015261181f858801611655565b8682015261182f600288016116de565b606082015260ff600388015416151560808201528152019301940193916117db565b906118eb600661185f610d84565b84546001600160401b03808216835260409190911c1660208201529360018101546001600160a01b038116604087015260a01c60ff161515606086015260028101546001600160a01b03166080860152600381015460a08601526118c5600482016116de565b60c08601526118e56118db600583015460ff1690565b60ff1660e0870152565b016117a8565b610100830152565b9060409182519261190384610cb3565b8361190d83611655565b815281519261191b84610cce565b600192838201548552600282015493602094858701528460038401546001600160401b03808216858a0152606091851c168189015283519361195c85610ce9565b6004860154855260ff600587015461ffff811685880152818160101c1615158388015260181c16151582860152600686019181519081956119b26119a68654809560209181520190565b95600052602060002090565b916000925b846007850110611b275793879389979360079b99611a249894611a349e9c985495858510611b11575b858510611af9575b858510611adf575b50848410611aba575b50838310611a95575b838310611a70575b838310611a4b575b505010611a3d575b5090500382610d56565b6080820152608087015201611851565b60a08401520152565b60e01c815201899038611a1a565b909194611a668163ffffffff8760c01c1663ffffffff169052565b0193013885611a12565b85611a8b83949763ffffffff8860a01c1663ffffffff169052565b0194019085611a0a565b85611ab083949763ffffffff8860801c1663ffffffff169052565b0194019085611a02565b95611ad48163ffffffff8886979a1c1663ffffffff169052565b0194019085386119f9565b86901c63ffffffff168752929582908201960192386119f0565b63ffffffff87841c16885296820196938301936119e8565b63ffffffff8716885296820196938301936119e0565b96916101008194959697611bd460089495611bc98c5491611b6963ffffffff91611b588784871663ffffffff169052565b63ffffffff85821c84161690870152565b63ffffffff838e1c821616858e015263ffffffff838a1c821616858a0152611b9e60808285828901921c1663ffffffff169052565b611bb560a08285828901921c1663ffffffff169052565b60c09083828701921c1663ffffffff169052565b60e090811c90830152565b019701930191908b969594936119b7565b50346101ed5760203660031901126101ed5760043560cb548110156101ed57611c739060cb60005260041b7fa7ce836d032b2bf62b7e2097a8e0a6d8aeb35405ad15271e96d3b0188a1d0709611c5c827fa7ce836d032b2bf62b7e2097a8e0a6d8aeb35405ad15271e96d3b0188a1d06fb016118f3565b91015460405192839260408452604084019061079c565b9060208301520390f35b50346101ed5760603660031901126101ed57600435611c9b816101dc565b611cf8602435611caa816101dc565b60443590611cb7826101dc565b60005493611cdc60ff8660081c161580968197611d76575b8115611d56575b50612386565b84611cef600160ff196000541617600055565b611d3d576123e9565b611cfe57005b611d0e61ff001960005416600055565b604051600181527f7f26b83ff96e1f2b6a682f133852f6798a09c465da95921460cefb384740249890602090a1005b611d5161010061ff00196000541617600055565b6123e9565b303b15915081611d68575b5038611cd6565b6001915060ff161438611d61565b600160ff8216109150611ccf565b5060603660031901126101ed57600435611d9d816101dc565b611da860243561041d565b6044356001600160401b0381116101ed57610310611dca9136906004016101ff565b7f2849b43074093a05396b6f2a937dee8565b15a48a7b3d4bffb732a5017380af56040519260018060a01b031692806104a433943483612ab5565b50346101ed5760203660031901126101ed57600435611e23816101dc565b611e2b611edf565b60fe80546001600160a01b0319166001600160a01b0392909216919091179055005b50346101ed5760203660031901126101ed57600435611e6b816101dc565b611e73611edf565b6001600160a01b03811615611e8b5761001990611f37565b60405162461bcd60e51b815260206004820152602660248201527f4f776e61626c653a206e6577206f776e657220697320746865207a65726f206160448201526564647265737360d01b6064820152608490fd5b6033546001600160a01b03163303611ef357565b606460405162461bcd60e51b815260206004820152602060248201527f4f776e61626c653a2063616c6c6572206973206e6f7420746865206f776e65726044820152fd5b603380546001600160a01b039283166001600160a01b0319821681179092559091167f8be0079c531659141344cd1fd0a4f28419497f9722a3daafe3b4186f6b6457e0600080a3565b15611f8757565b60405162461bcd60e51b815260206004820152602c60248201527f46756e6374696f6e206d7573742062652063616c6c6564207468726f7567682060448201526b19195b1959d85d1958d85b1b60a21b6064820152608490fd5b15611fe857565b60405162461bcd60e51b815260206004820152602c60248201527f46756e6374696f6e206d7573742062652063616c6c6564207468726f7567682060448201526b6163746976652070726f787960a01b6064820152608490fd5b6040519061204f82610d3b565b60008252565b908160209103126101ed575190565b506040513d6000823e3d90fd5b1561207857565b60405162461bcd60e51b815260206004820152602960248201527f45524331393637557067726164653a20756e737570706f727465642070726f786044820152681a58589b195555525160ba1b6064820152608490fd5b60809060208152602e60208201527f45524331393637557067726164653a206e657720696d706c656d656e7461746960408201526d6f6e206973206e6f74205555505360901b60608201520190565b803b1561215357600080516020613da483398151915280546001600160a01b0319166001600160a01b03909216919091179055565b60405162461bcd60e51b815260206004820152602d60248201527f455243313936373a206e657720696d706c656d656e746174696f6e206973206e60448201526c1bdd08184818dbdb9d1c9858dd609a1b6064820152608490fd5b906121b88261211e565b6001600160a01b0382167fbc7cd75a20ee27fd9adebab32041f755214dbc6bffa90cc0225b39da2e5c2d3b600080a2805115801590612262575b6121fa575050565b61225f916000806040519361220e85610c98565b602785527f416464726573733a206c6f772d6c6576656c2064656c65676174652063616c6c6020860152660819985a5b195960ca1b6040860152602081519101845af46122596122bd565b916122ed565b50565b5060006121f2565b906122748261211e565b6001600160a01b0382167fbc7cd75a20ee27fd9adebab32041f755214dbc6bffa90cc0225b39da2e5c2d3b600080a28051158015906122b5576121fa575050565b5060016121f2565b3d156122e8573d906122ce82610d91565b916122dc6040519384610d56565b82523d6000602084013e565b606090565b9192901561234f5750815115612301575090565b3b1561230a5790565b60405162461bcd60e51b815260206004820152601d60248201527f416464726573733a2063616c6c20746f206e6f6e2d636f6e74726163740000006044820152606490fd5b8251909150156123625750805190602001fd5b60405162461bcd60e51b815260206004820152908190610c1a906024830190610615565b1561238d57565b60405162461bcd60e51b815260206004820152602e60248201527f496e697469616c697a61626c653a20636f6e747261637420697320616c72656160448201526d191e481a5b9a5d1a585b1a5e995960921b6064820152608490fd5b919061240560ff60005460081c1661240081612466565b612466565b61240e33611f37565b61241f60ff60005460081c16612466565b60018060a01b038092816bffffffffffffffffffffffff60a01b93168360c954161760c955169060ca54161760ca55612456611edf565b811615611e8b576101fd90611f37565b1561246d57565b60405162461bcd60e51b815260206004820152602b60248201527f496e697469616c697a61626c653a20636f6e7472616374206973206e6f74206960448201526a6e697469616c697a696e6760a81b6064820152608490fd5b156124cd57565b60405162461bcd60e51b815260206004820152603760248201527f466972656c696e6b4272696467653a2066756e6374696f6e2063616e206f6e6c60448201527f792062652063616c6c65642066726f6d20616e20454f410000000000000000006064820152608490fd5b1561253f57565b60405162461bcd60e51b815260206004820152602360248201527f466972656c696e6b4272696467653a2063616e6e6f742073656e6420746f207360448201526232b63360e91b6064820152608490fd5b1561259757565b60405162461bcd60e51b815260206004820152602860248201527f466972656c696e6b4272696467653a2063616e6e6f742073656e6420746f206d60448201526732b9b9b2b733b2b960c11b6064820152608490fd5b156125f457565b60405162461bcd60e51b815260206004820152602360248201527f466972656c696e6b4272696467653a20455448207472616e73666572206661696044820152621b195960ea1b6064820152608490fd5b50634e487b7160e01b600052601160045260246000fd5b9190820391821161266957565b6101fd612645565b1561267857565b60405162461bcd60e51b815260206004820152604a60248201527f466972656c696e6b4272696467653a2077726f6e672072656d6f746520746f6b60448201527f656e20666f7220466972656c696e6b204d696e7461626c65204552433230206c60648201526937b1b0b6103a37b5b2b760b11b608482015260a490fd5b60405163a9059cbb60e01b60208201526001600160a01b039290921660248301526044808301939093529181526101fd91612732606483610d56565b612756565b801515036101ed57565b908160209103126101ed575161079981612737565b6040516127ae916001600160a01b031661276f82610cb3565b6000806020958685527f5361666545524332303a206c6f772d6c6576656c2063616c6c206661696c656487860152868151910182855af16122596122bd565b80519082821592831561281e575b505050156127c75750565b6084906040519062461bcd60e51b82526004820152602a60248201527f5361666545524332303a204552433230206f7065726174696f6e20646964206e6044820152691bdd081cdd58d8d9595960b21b6064820152fd5b61282e9350820181019101612741565b3882816127bc565b9190820180921161266957565b6040516323b872dd60e01b60208201526001600160a01b0392831660248201529290911660448301526064808301939093529181526101fd9161273282610ce9565b61288e81612925565b908115612899575090565b90506128a481612982565b9081612913575b816128b4575090565b60209150600090604051838101906301ffc9a760e01b825263ec4fc8e360e01b6024820152602481526128e681610c98565b5191617530fa6000513d82612907575b5081612900575090565b9050151590565b602011159150386128f6565b905061291e816129ab565b15906128ab565b61292e81612982565b9081612970575b8161293e575090565b60209150600090604051838101906301ffc9a760e01b8252631d1d8b6360e01b6024820152602481526128e681610c98565b905061297b816129ab565b1590612935565b6000602091604051838101906301ffc9a760e01b8083526024820152602481526128e681610c98565b6000602091604051838101906301ffc9a760e01b825263ffffffff60e01b6024820152602481526128e681610c98565b908160209103126101ed5751610799816101dc565b6129f981612925565b15612a785760405163600f0deb60e11b81526001600160a01b03918291906020908290600490829086165afa908115612a6b575b600091612a3d575b501691161490565b612a5e915060203d8111612a64575b612a568183610d56565b8101906129db565b38612a35565b503d612a4c565b612a73612064565b612a2d565b6040516335b02cb160e21b81526001600160a01b03918291906020908290600490829086165afa908115612a6b57600091612a3d57501691161490565b604090610799939281528160208201520190610615565b6040516001600160a01b039283169492909116927f31b2166ff604fc5672ea5df08a78081d2bc6d746cadce880747f3643d819e83d928291612b0f919083612ab5565b0390a3565b610799939260609260018060a01b0316825260208201528160408201520190610615565b6040516001600160a01b03938416969284169591909316937f7ff126db8024424bbfd9826e8ab82ff59136289ea440b04b39a0df1b03b9cabf93928392612b7f9284612b14565b0390a4565b6040516001600160a01b03938416969284169591909316937fd59c65b35445225835c83f50b6ede06a7be047d22e357073e250d9af537518cd93928392612b7f9284612b14565b906000939192849360208451940192f190565b9035601e19823603018112156101ed5701602081359101916001600160401b0382116101ed578160051b360383136101ed57565b81835290916001600160fb1b0383116101ed5760209260051b809284830137010190565b6001600160401b038116036101ed57565b35906101fd82612c36565b9035609e19823603018112156101ed570190565b61ffff8116036101ed57565b35906101fd82612737565b903561011e19823603018112156101ed570190565b9035601e19823603018112156101ed5701602081359101916001600160401b0382116101ed5781360383136101ed57565b908060209392818452848401376000828201840152601f01601f1916010190565b60ff8116036101ed57565b35906101fd82612ce4565b90808352602080930192838260051b810194846000925b858410612d22575050505050505090565b9091929394959685808284600194038752612d3d8b87612c52565b9063ffffffff8235612d4e8161041d565b16815282820135612d5e816101dc565b858060a01b031683820152612da9612d8e6040612d7d81860186612bde565b909160a08091870152850191612c12565b6060612d9c81860186612c92565b9185840390860152612cc3565b91608080910135612db981612737565b1515910152990194019401929594939190612d11565b61079991612ded81612de084612c47565b6001600160401b03169052565b612e0c612dfc60208401612c47565b6001600160401b03166020830152565b612e2b612e1b604084016101f2565b6001600160a01b03166040830152565b612e43612e3a60608401612c72565b15156060830152565b612e62612e52608084016101f2565b6001600160a01b03166080830152565b60a082013560a0820152612e8d612e7c60c0840184612c92565b6101208060c0860152840191612cc3565b91612ea7612e9d60e08301612cef565b60ff1660e0840152565b612eb76101009182810190612bde565b929091818503910152612cfa565b6040516358fbe9e160e01b815260206004820181905291612efa612ee98280612bde565b604060248601526064850191612c12565b908381013560be19823603018112156101ed578383036023190160448501520180358252808401358285015290839083906040840135612f3981612c36565b6001600160401b0380911660408301526060850135612f5781612c36565b166060820152612f6a6080850185612c52565b9360c06080830152612fce610160830195803560c085015261ffff86820135612f9281612c66565b1660e08501526040810135612fa681612737565b15156101008501526060810135612fbc81612737565b15156101208501526080810190612bde565b60a06101408501529586905261018083019560005b8181106130705750505093613010916130028660a08697980190612c7d565b9060a0818403910152612dcf565b038173f37ad1278917c04fb291c75a42e61710964cb57c5afa918215613063575b60009261303d57505090565b6107999250803d1061305c575b6130548183610d56565b810190612741565b503d61304a565b61306b612064565b613031565b929450929480829763ffffffff6001943561308a8161041d565b168152019601910190879492879492612fe3565b156130a557565b60405162461bcd60e51b815260206004820152601960248201527f496e76616c6964207472616e73616374696f6e2070726f6f66000000000000006044820152606490fd5b60cb54600160401b811015613139575b600181018060cb558110156116485760cb60005260041b7fa7ce836d032b2bf62b7e2097a8e0a6d8aeb35405ad15271e96d3b0188a1d06fb0190600090565b613141610c61565b6130fa565b50634e487b7160e01b600052600060045260246000fd5b903590601e19813603018212156101ed57018035906001600160401b0382116101ed57602001918160051b360383136101ed57565b805490600090818155826131a557505050565b815260208120918201915b8281106131bc57505050565b8181556001016131b0565b600160401b821161320b575b8054918082558281106131e557505050565b60009182526020822092830192015b82811061320057505050565b8181556001016131f4565b613213610c61565b6131d3565b90359060be19813603018212156101ed570190565b3561079981612c36565b903590609e19813603018212156101ed570190565b3561079981612737565b818110613261575050565b60008155600101613256565b90600160401b81116132d6575b815481835580821061328b57505050565b6101fd926000526007602060002091601c82850160031c84019460021b16806132bb575b500160031c0190613256565b600019908186019182549160200360031b1c169055386132af565b6132de610c61565b61327a565b356107998161041d565b9190613318906001600160401b0383116133df575b61330c838561326d565b92600052602060002090565b8160031c9160005b83811061338f5750600719811690038061333b575b50505050565b92600093845b81811061335657505050015538808080613335565b909194602061338560019261336a896132e3565b908560021b60031b63ffffffff811b9283911b169119161790565b9601929101613341565b6000805b600881106133a8575083820155600101613320565b959060206133d66001926133bb856132e3565b908a60021b60031b63ffffffff811b9283911b169119161790565b92019601613393565b6133e7610c61565b613302565b90359061011e19813603018212156101ed570190565b35610799816101dc565b903590601e19813603018212156101ed57018035906001600160401b0382116101ed576020019181360383136101ed57565b9190601f811161344d57505050565b6101fd926000526020600020906020601f840160051c83019310613479575b601f0160051c0190613256565b909150819061346c565b9092916001600160401b03811161354b575b6134a9816134a384546116a4565b8461343e565b6000601f82116001146134e357819293946000926134d8575b50508160011b916000199060031b1c1916179055565b0135905038806134c2565b601f198216946134f884600052602060002090565b91805b878110613533575083600195969710613519575b505050811b019055565b0135600019600384901b60f8161c1916905538808061350f565b909260206001819286860135815501940191016134fb565b613553610c61565b613495565b3561079981612ce4565b9063ffffffff81356135738161041d565b1682548163ffffffff19821617845560209182840135613592816101dc565b6001600160c01b03199092161790821b640100000000600160c01b03161783556001908382016135c5604085018561315d565b92906001600160401b038411613649575b6135e084846131c7565b91600052806000209060005b8481106136385750505050505090600361362560808461361f61361560606101fd98018361340c565b9060028801613483565b0161324c565b91019060ff801983541691151516179055565b8335838201559281019285016135ec565b613651610c61565b6135d6565b600160401b83116137a3575b80548382558084106136ba575b50906136818192600052602060002090565b906000925b848410613694575050505050565b60046020826136ae6136a860019587613237565b87613562565b01930193019291613686565b6001600160fe1b038181168203613796575b84168403613789575b60008281526020812091600290811b83019286821b015b8381106136fb5750505061366f565b80836004925583600161370f818401613192565b8483019061371d82546116a4565b9081613732575b5050506003820155016136ec565b601f80831160011461374c57505050555b83388080613724565b613784945090613774929161376685600052602060002090565b920160051c82019101613256565b6000908082528160208120915555565b613743565b613791612645565b6136d5565b61379e612645565b6136cc565b6137ab610c61565b613662565b6006906138fa6101fd936137e36137c68261322d565b845467ffffffffffffffff19166001600160401b03909116178455565b61381f6137f26020830161322d565b84546fffffffffffffffff0000000000000000191660409190911b67ffffffffffffffff60401b16178455565b6138776001840161385161383560408501613402565b82546001600160a01b0319166001600160a01b03909116178255565b61385d6060840161324c565b815460ff60a01b191690151560a01b60ff60a01b16179055565b6138a961388660808301613402565b6002850180546001600160a01b0319166001600160a01b03909216919091179055565b60a081013560038401556138cd6138c360c083018361340c565b9060048601613483565b6138ef6138dc60e08301613558565b600585019060ff1660ff19825416179055565b61010081019061315d565b92909101613656565b9061390e818061315d565b91906001600160401b038311613a8d575b61392983856131c7565b91836000526020928360002060005b838110613a7b5750505050613a7482613a6a613a60613960856101fd98976007970190613218565b92833560018801558084013560028801556139dd600388016139a6604087013561398981612c36565b825467ffffffffffffffff19166001600160401b03909116178255565b6060860135906139b582612c36565b9067ffffffffffffffff60401b82549160401b169067ffffffffffffffff60401b1916179055565b613a566139ed6080860186613237565b91823560048a01556005890190830135613a0681612c66565b815461ffff62ff00006040870135613a1d81612737565b151560101b1692169062ffffff191617178155613a3c6060840161324c565b815463ff000000191690151560181b63ff00000016179055565b608081019061315d565b90600687016132ed565b60a08101906133ec565b91016137b0565b82358282015591850191600101613938565b613a95610c61565b61391f565b6001906000198114613aaa570190565b613ab2612645565b0190565b909161079992811015613acf575b60051b810190613237565b613ad76115f6565b613ac4565b906080828203126101ed578135613af2816101dc565b926020830135613b01816101dc565b9260408101359260608201356001600160401b0381116101ed576107999201610df2565b805415613b3b575b600052602060002090600090565b613b436115f6565b613b2d565b8054821015613b65575b60005260206000209060021b0190600090565b613b6d6115f6565b613b52565b613b918154600160401b811015613cc2575b6001928382018155613b48565b613cb5575b825181546001600160a01b039182166001600160a01b031991821617835560208086015185850180549093169316929092179055906060906003906040860151600282015501930151908151916001600160401b038311613ca8575b613c0683613c0087546116a4565b8761343e565b81601f8411600114613c3f5750928293918392600094613c34575b50501b916000199060031b1c1916179055565b015192503880613c21565b919083601f198116613c5688600052602060002090565b946000905b88838310613c8e5750505010613c7557505050811b019055565b015160001960f88460031b161c1916905538808061350f565b858701518855909601959485019487935090810190613c5b565b613cb0610c61565b613bf2565b613cbd613146565b613b96565b613cca610c61565b613b84565b6020918151811015613ce4575b60051b010190565b613cec6115f6565b613cdc565b90604091825192613d0184610c98565b83613d0b836118f3565b8152600f600e840154936020948584015201805490613d2982611782565b94613d3685519687610d56565b82865260009182528082208187015b848410613d555750505050500152565b6004836001928951613d6681610d20565b848060a01b0380875416825285870154168382015260028601548b820152613d90600387016116de565b6060820152815201920193019290613d4556fe360894a13ba1a3210667c828492db98dca3e2076cc3735a920a3ca505d382bbca2646970667358221220f0fd61f6d1c68c5e8a5ad095f38f61965c7fe15a03b48781bd49f9a13b6ed4e664736f6c63430008110033",
  "linkReferences": {},
  "deployedLinkReferences": {}
}